:1000000000100020011E00000B3700000B3700001D
:100010000B3700000B3700000B3700000B370000D8
:100020000B3700000B3700000B3700000B370000C8
:100030000B3700000B3700000B3700000B370000B8
:100040000B3700000B3700000B3700000B370000A8
:100050000B370000A10B00000B3700000B3700002E
:100060000B3700000B3700000B370000D90B0000E6
:100070000B3700000B370000BD0B00000B370000F2
:100080000B3700000B3700000B3700000B37000068
:100090000B3700000B3700000B3700000B37000058
:1000A0000B3700000B3700000B3700000B37000048
:1000B0000B3700000B3700000B3700000B37000038
:1000C0000B3700000B3700000B3700000B37000028
:1000D0000B3700000B3700000B3700000B37000018
:1000E0000B3700000B3700000B3700000B37000008
:1000F0000B3700000B3700000B3700000B370000F8
:100100000B3700000B3700000B3700000B370000E7
:100110000B3700000B3700000B3700000B370000D7
:100120000B3700000B3700000B3700000B370000C7
:100130000B3700000B3700000B3700000B370000B7
:100140000B3700000B3700000B3700000B370000A7
:1001500000000000000000000348044B834202D06E
:10016000034B03B1184770471C1000201C100020DF
:10017000000000000548064B1B1AD90F01EBA30134
:10018000491002D0034B03B1184770471C100020E0
:100190001C1000200000000010B5064C237843B965
:1001A000FFF7DAFF044B13B10448AFF300800123DB
:1001B000237010BD6010002000000000C44B000040
:1001C00008B5054B1BB105490548AFF30080BDE8F4
:1001D0000840FFF7CFBF00BF000000001C10002048
:1001E000C44B0000A3F5803A704700BF174B002BAB
:1001F00008BF134B9D46FFF7F5FF00218B460F46C6
:100200001348144A121A03F0CFFA0E4B002B00D0F9
:1002100098470D4B002B00D0984700200021040088
:100220000D000D48002802D00C48AFF3008003F009
:10023000B7F92000290001F0C7F803F09FF900BFCB
:100240000000080000000000000000000010002076
:100250001C100020681000200000000000000000BA
:1002600082B00190019B1A4A934227D0019B194A00
:10027000934223D0019B184A93421FD0019B174AF7
:1002800093421BD0019B164A934217D0019B154AFB
:10029000934213D0019B144A93420FD0019B134AFF
:1002A00093420BD0019B124A934207D0019B114A03
:1002B000934203D0019B104A934201D1012300E0F5
:1002C000002303F00103DBB2184602B0704700BF01
:1002D000008001400084014000880140008C014002
:1002E00000900140009401400098014000A00140AE
:1002F00000A4014000A8014000AC014000B585B059
:10030000019000910198FFF7ABFF0346002B03D14A
:10031000B421404803F003FA00230393009B1B78A9
:1003200083F00103DBB2002B02D0019B02225A6052
:10033000019B00225A62009B9B781A06009BDB7887
:100340001B041A43009BDB799B021A43009B1B7A18
:100350001B021343009A527A1343009A5278002AE0
:1003600001D0402200E000221343009A927A002A32
:1003700001D0802200E000221343009AD27A002AA2
:1003800001D0202200E000221343009A127B002AB1
:1003900001D0102200E000221343009A927B002A31
:1003A00002D04FF4804200E000221343009A527BB7
:1003B000002A01D0082200E0002213430393009B8F
:1003C0001B79002B02D04FF4005200E00022009B6A
:1003D0005B79002B02D04FF0805300E000231343E1
:1003E000009A9279002A02D04FF0005200E00022D9
:1003F0001343039A13430393019B039A1A60009BD0
:100400001B78002B02D0019B01225A6000BF05B06F
:100410005DF804FB6038000000B587B003900291DE
:1004200001928DF8033000230593019B002B04D12A
:1004300040F255114C4803F072F9029B002B0CD18D
:10044000039B4A4A934204D1494802F0F5F80290CE
:1004500003E0484802F0F0F802909DF80330602B6A
:1004600034D0602B3FDC402B20D0402B3BDC002BDA
:1004700002D0202B0DD036E0029B1B09019A9A4234
:1004800004D940F28711384803F049F91023059345
:100490002FE0029BDB08019A9A4204D94FF4C671FF
:1004A000314803F03CF90823059322E0029B324ACD
:1004B000A2FB03239B08019A9A4204D940F29111AE
:1004C000294803F02CF90623059312E0029B9B08B0
:1004D000019A9A4204D94FF4CB71234803F01FF9D3
:1004E0000423059305E04FF4CE711F4803F017F97C
:1004F00000BF059B002B33D0029B5A01059B01993D
:1005000001FB03F35B0813440493059B019A02FB70
:1005100003F3049AB2FBF3F30493049B203B04938C
:10052000049BDB000493049B144A934204D940F2D9
:10053000B3110D4803F0F3F8049A104B13400493E1
:10054000039B1B6823F06002039B1A60039B1A68DD
:100550009DF803301A43039B1A60039B049A5A6167
:1005600000BF07B05DF804FBB83800000008014088
:100570005041070040410500ABAAAAAAF8FF7F003E
:1005800000B587B0039002910192019B002B04D12A
:1005900040F2A621164803F0C2F8029B002B0CD1B2
:1005A000039B144A934204D1134802F045F8029089
:1005B00003E0124802F040F80290029B5A1E019B91
:1005C0005B00B2FBF3F30593059B1B020593059AB1
:1005D0000B4B1340002B04D040F2CB21044803F016
:1005E0009EF8039B059A5A6100BF07B05DF804FBB3
:1005F000B8380000000801405041070040410500A4
:10060000070080FF00B585B001900B468DF80330E0
:10061000019B1C4A934220D0019B1B4A93421CD051
:10062000019B1A4A934218D0019B194A934214D055
:10063000019B184A934210D0019B174A93420CD059
:10064000019B164A934208D0019B154A934204D05D
:100650004FF43971134803F062F89DF80330DB431F
:100660000393039B03F005030393039B5A00019B31
:10067000DA609DF80320019BDA6000BF05B05DF8E9
:1006800004FB00BF000001400004014000080140DD
:10069000000C0140001001400014014000400140E6
:1006A00000440140B838000000B583B001900091CB
:1006B000019B434A934220D0019B424A93421CD063
:1006C000019B414A934218D0019B404A934214D067
:1006D000019B3F4A934210D0019B3E4A93420CD06B
:1006E000019B3D4A934208D0019B3C4A934204D06F
:1006F00040F215313A4803F012F8019800F00EF973
:10070000009B9B7C002B05D0019B1B6843F0804223
:10071000019B1A60009BDB7C002B05D0009B1B7D9E
:100720001946019802F060FF009B5B7B1A46009B14
:100730001B8A1343009AD2891A43019B5A60009B7B
:100740005968009B9A68009B1B7B0198FFF764FE29
:10075000009B5B7D002B05D0019B1B6843F480321E
:10076000019B1A60009B9B7D002B05D0019B1B68A1
:1007700043F40042019B1A60009BDB7D1B0703F0E2
:10078000E042009B1B7E1B0503F4E0031A43019B20
:100790001A66019B5B6F23F03002019B5A67019B35
:1007A0005B6F009A527E1A43019B5A67009B1B782D
:1007B0001A46019BDA6000BF03B05DF804FB00BF7E
:1007C000000001400004014000080140000C01400D
:1007D000001001400014014000400140004401406D
:1007E000B838000000B583B001900091019B444AE5
:1007F000934218D0019B434A934214D0019B424A32
:10080000934210D0019B414A93420CD0019B404A35
:10081000934208D0019B3F4A934204D040F2813179
:100820003D4802F07CFF019800F078F8019B1A68BF
:10083000009B1B8A43F001039BB21946009B9B7BE4
:10084000002B02D04FF4806300E000230B431A43D7
:10085000019B1A60019B1B68009A127D002A02D03E
:100860004FF0005200E000221A43019B1A60009BE7
:100870009B7C002B05D0009BDB7C1946019802F085
:10088000B3FE009B1B7B43F48052019B5A60009B8C
:100890005968009B9B681A460198FFF771FE009B00
:1008A0005B7B002B02D0019B1022DA60009B5B7DFA
:1008B000002B05D0019B1B6843F48032019B1A601A
:1008C000009B9B7D002B05D0019B1B6843F40042DD
:1008D000019B1A60009BDB7D1B0703F0E042009B3D
:1008E0001B7E1B0503F4E0031A43019B1A66009B61
:1008F0001B781A46019BDA6000BF03B05DF804FB69
:10090000000001400004014000080140000C0140CB
:100910000010014000140140B838000000B583B059
:100920000190019B334A934220D0019B324A93426B
:100930001CD0019B314A934218D0019B304A93420C
:1009400014D0019B2F4A934210D0019B2E4A934210
:100950000CD0019B2D4A934208D0019B2C4A934214
:1009600004D040F25E412B4802F0D9FE019B40F6D4
:10097000AA62DA60019B00221A60019B41F2050223
:100980005A60019B00229A60019B00225A61019BE0
:100990000022DA64019B204A9A64019B00221A66B5
:1009A000019B00225A67019B00229A67019B00224B
:1009B000DA67019B0F4A934203D0019B0F4A93428F
:1009C00002D1019B00221A65019B00229A65019BBE
:1009D000094A934207D0019B094A934203D0019BE5
:1009E000084A934202D1019B0022DA6500BF03B09E
:1009F0005DF804FB000001400004014000080140D4
:100A0000000C014000100140001401400040014072
:100A100000440140B8380000F9FF010008B5022188
:100A2000024802F042FE00BF08BD00BFA83F000020
:100A300082B003468DF807309DF90730002B0CDBA0
:100A40009DF8073003F01F0205499DF907305B0947
:100A5000012000FA02F241F8232000BF02B07047E3
:100A600000E100E082B00190019B0B4A93420BD061
:100A7000019B0A4A934207D0019B094A934203D043
:100A8000019B084A934202D14FF0FF3301E04FF639
:100A9000FF73184602B0704700A0014000A4014057
:100AA00000A8014000AC014000B583B00190009166
:100AB0000198FFF7D7FF0246009B934204D940F20A
:100AC000BC41054802F02BFE019B009ADA6100BF91
:100AD00003B05DF804FB00BF5440000000B587B0D0
:100AE0000121154801F0F0FC01AB00221A605A60A8
:100AF0009A60C3F80B2001238DF8043000238DF891
:100B0000043006238DF8063001AB19460B48FFF779
:100B1000F5FB40F20D33059305990848FFF7C4FF34
:100B20000121064802F09BFD0520FFF781FF00BF71
:100B300007B05DF804FB00BF000206000080014022
:100B400000B587B00121144801F0BEFC01AB0022C2
:100B50001A605A609A60C3F80B2001238DF80430A4
:100B600000238DF804300A238DF8063001AB1946B6
:100B70000A48FFF7C3FB3123059305990748FFF7A0
:100B800093FF0121054802F06AFD0E20FFF750FF98
:100B900000BF07B05DF804FB0012040000840140B0
:100BA00008B50121034802F051FD034B01221A70E0
:100BB00000BF08BD008001406110002008B5012180
:100BC000034802F043FD034B01221A7000BF08BD29
:100BD000008401406210002000B583B0434B5B6B82
:100BE0000193019B03F08003002B10D002214048A9
:100BF00002F05BFD3F4B06221A703C4B02225A600A
:100C00003A4B8022DA633C4B01221A706AE0394B7E
:100C10001B78DBB2013B062B59D801A252F823F016
:100C20003D0C0000630C0000CF0C0000870C00009E
:100C3000CF0C0000CF0C0000AF0C000002213120CF
:100C400001F06EF8019B03F04003002B43D0274BCB
:100C50000022DA62274B02221A70244B4022DA6308
:100C600039E0019B03F01003002B36D01F4B01220B
:100C70005A601E4B3322DA621E4B04221A701B4B41
:100C80001022DA6329E0019B03F02003002B26D019
:100C9000164BDB69DAB2194B1A70144B0A225A60F0
:100CA000144B07221A70114B2022DA6317E0019BC4
:100CB00003F48073002B14D00F4B01221A700D4BDC
:100CC00000221A70094B4FF48072DA6309E0074A78
:100CD000019BD36306E000BF04E000BF02E000BF59
:100CE00000E000BF03B05DF804FB00BF00900840C7
:100CF0007440000063100020641000206510002084
:100D000000B583B0034600918DF807309DF8073099
:100D1000002B39D09DF80730012B32D09DF80730D9
:100D2000022B2BD09DF80730032B24D09DF80730E1
:100D3000042B1DD09DF80730052B16D09DF80730E9
:100D4000062B0FD09DF80730072B08D09DF80730F1
:100D5000082B02D14FF6FF7318E0002316E04FF680
:100D6000FF7313E04FF6FF7310E04FF6FF730DE0D3
:100D70004FF6FF730AE04FF6FF7307E04FF6FF737D
:100D800004E04FF6FF7301E04FF6FF73009AD34083
:100D900003F00103002B04D140F201410C4802F0A2
:100DA000BEFC9DF8072013465B0013441B010C3367
:100DB00003F1804303F508230121009A01FA02F2AE
:100DC0001146184602F064FC00BF03B05DF804FB56
:100DD0007C40000000B583B0034600918DF80730D9
:100DE0009DF80730002B39D09DF80730012B32D009
:100DF0009DF80730022B2BD09DF80730032B24D011
:100E00009DF80730042B1DD09DF80730052B16D018
:100E10009DF80730062B0FD09DF80730072B08D020
:100E20009DF80730082B02D14FF6FF7318E000231E
:100E300016E04FF6FF7313E04FF6FF7310E04FF626
:100E4000FF730DE04FF6FF730AE04FF6FF7307E004
:100E50004FF6FF7304E04FF6FF7301E04FF6FF73A8
:100E6000009AD34003F00103002B04D14FF48661B4
:100E70000C4802F054FC9DF8072013465B00134415
:100E80001B010C3303F1804303F508230121009A71
:100E900001FA02F21146184602F0EDFB00BF03B062
:100EA0005DF804FB7C4000004FF0804301225A644F
:100EB000164BD3F8B030154A43F00103C2F8B030F6
:100EC000124BD3F8E030114A43F00803C2F8E03087
:100ED0000F4B1B680E4A43F4805313600B4BD3F83F
:100EE000E0300A4A23F00803C2F8E030074BD3F899
:100EF000B030064A23F00103C2F8B030054B1B683E
:100F0000044A43F4F843136000BF704700400E40AA
:100F100034400540A4310E4008B5FFF7C5FF01215C
:100F2000F84801F0D1FA0121F74801F0CDFA01218A
:100F3000F64801F0C9FA0121F54801F0C5FA01218E
:100F4000F44801F0C1FA0121F34801F0BDFA012192
:100F5000F24801F0B9FA0121F14801F0B5FA012196
:100F6000F04801F0B1FA0121EF4801F0ADFA01219A
:100F7000EE4801F0A9FA002301220A21022002F022
:100F800045FA012304220B21022002F03FFA01233B
:100F900004220821022002F039FA00230122012153
:100FA000032002F033FA012304220021032002F07F
:100FB0002DFA002301220121052002F027FA012346
:100FC00004220021052002F021FA01230422052138
:100FD000052002F01BFA002301220721042002F061
:100FE00015FA012304220621042002F00FFA01233E
:100FF00004220421042002F009FA01230F2208210F
:10100000012002F003FA012305220721012002F04A
:10101000FDF9012305220421022002F0F7F94FF027
:101020000111022002F0A8F94FF00111012002F095
:10103000A3F9012304220A21002002F0E7F90A2182
:101040000020FFF7C7FE002301220921042002F03F
:10105000DDF9002301220121012002F0D7F901234B
:1010600004220621002002F0D1F9002301220121EF
:10107000042002F0CBF9012304220021042002F015
:10108000C5F9002301220321042002F0BFF9012346
:1010900004220221042002F0B9F9012304220121D3
:1010A000002002F0B3F901210020FFF729FE0123FF
:1010B00004220221002002F0A9F902210020FFF7FA
:1010C0001FFE012304220321002002F09FF90321C7
:1010D0000020FFF715FE012304220F21002002F05B
:1010E00095F90F210020FFF70BFE012304220421B4
:1010F000002002F08BF904210020FFF701FE0123FC
:1011000004220521002002F081F905210020FFF7CB
:10111000F7FD012304220221012002F077F90221C8
:101120000120FFF7EDFD012304220F21002002F032
:101130006DF90F210020FFF7E3FD012304220A21AE
:10114000042002F063F90A210420FFF7D9FD0123EE
:1011500004220F21042002F059F90F210420FFF787
:10116000CFFD012304220E21042002F04FF90E21AD
:101170000420FFF7C5FD012304220C21052002F005
:1011800045F90C210520FFF7BBFD012304220821AE
:10119000042002F03BF908210420FFF7B1FD0123F0
:1011A00004220121022002F031F901210220FFF77F
:1011B000A7FD012304220B21002002F027F90B21B7
:1011C0000020FFF79DFD012304220721022002F0E9
:1011D0001DF907210220FFF793FD012304220921B5
:1011E000022002F013F909210220FFF789FD0123F3
:1011F00004220621012002F009F906210120FFF74F
:101200007FFD012304220221032002F0FFF80221C6
:101210000320FFF775FD012304220321032002F0C0
:10122000F5F803210320FFF76BFD012304220421BD
:10123000032002F0EBF804210320FFF761FD4FF0DB
:101240000111032002F098F84FF00111002002F084
:1012500093F8012304220921002002F0D7F8092184
:101260000020FFF7B7FD012304220821002002F02F
:10127000CDF808210020FFF7ADFD0123042207214E
:10128000002002F0C3F807210020FFF7A3FD01238F
:1012900004220A21002002F0B9F80A210020FFF7F9
:1012A00099FD012304220021002002F0AFF8002163
:1012B0000020FFF78FFD012304220A21012002F004
:1012C000A5F80A210120FFF71BFD012304220921B3
:1012D000012002F09BF809210120FFF711FD0123F5
:1012E00004220E21002002F091F80E210020FFF7C9
:1012F00007FD012304220D21012002F087F80D21B2
:10130000012015E04041050000550A0000120900C7
:1013100000720400008204000092060000A2040093
:1013200000B2040000C20400004E0400005E04008D
:10133000FFF7E6FC012304220C21002002F066F8EE
:101340000C210020FFF7DCFC0123042205210120F1
:1013500002F05CF805210120FFF7D2FC01230422F2
:101360000B21052002F052F80B210520FFF7C8FCE5
:10137000012304220A21052002F048F80A21052051
:10138000FFF7BEFC012304220521032002F03EF8F2
:1013900005210320FFF7B4FC0123042202210220CF
:1013A00002F034F802210220FFF7AAFC00230122F8
:1013B0000521022002F02AF8FFF790FBFFF7C0FB9F
:1013C00000F00EFC00BF08BD00B583B0FFF7A4FD20
:1013D000074B019300F08CF90221064802F065F9F1
:1013E00000F096F90023184603B05DF804FB00BF37
:1013F000341000203841000000B583B003468DF85A
:1014000007309DF80730092B09D99DF807300F4A9E
:10141000A2FB0323DB08DBB21846FFF7EDFF9DF8C4
:1014200007200A4BA3FB0213D9080B469B000B4471
:101430005B00D31ADBB23033DBB20221184600F076
:101440006FFC00BF03B05DF804FB00BFCDCCCCCC7B
:1014500000B583B002212A4802F027F9294B1B6806
:101460009B680221184602F020F90221264802F06A
:101470001CF900238DF807302EE0224B1B799DF8D4
:1014800007209A4204D10221204802F00EF903E01D
:1014900002211F4802F009F99DF807300133DBB241
:1014A0001846FFF7A9FF02211A4802F0FEF8154B73
:1014B0001B681A689DF80730DB0013441B68022183
:1014C000184602F0F2F80221134802F0EEF89DF8F7
:1014D000073001338DF807300A4B1B681B799DF8E4
:1014E00007209A42C9D3074B5B79002B03D0022116
:1014F0000A4802F0DAF800BF03B05DF804FB00BF51
:10150000DC43000054100020E4430000EC430000E2
:10151000F0430000F4430000F8430000FC430000E7
:10152000054B1B79002B05D0034B1B79013BDAB22D
:10153000014B1A7100BF704754100020084B1B79F3
:101540001A46074B1B681B79013B9A4205DA044B8C
:101550001B790133DAB2024B1A7100BF704700BF2A
:101560005410002008B50A4B1B681A68084B1B79F9
:10157000DB0013445B68002B08D0054B1B681A681E
:10158000034B1B79DB0013445B68984700BF08BD21
:1015900054100020074B5B79002B08D0054B064AFE
:1015A0001A60044B00221A71024B00225A7100BFCC
:1015B000704700BF54100020D0470000054B064A7A
:1015C0001A60044B00221A71024B01225A7100BFAB
:1015D000704700BF54100020F4470000054B064A36
:1015E0001A60044B00221A71024B01225A7100BF8B
:1015F000704700BF5410002018480000054B064AF1
:101600001A60044B00221A71024B01225A7100BF6A
:10161000704700BF541000203C480000054B064AAC
:101620001A60044B00221A71024B01225A7100BF4A
:10163000704700BF5410002060480000054B064A68
:101640001A60044B00221A71024B01225A7100BF2A
:10165000704700BF5410002084480000054B064A24
:101660001A60044B00221A71024B01225A7100BF0A
:10167000704700BF54100020A8480000054B064AE0
:101680001A60044B00221A71024B01225A7100BFEA
:10169000704700BF54100020CC480000054B064A9C
:1016A0001A60044B00221A71024B01225A7100BFCA
:1016B000704700BF5410002014490000054B064A33
:1016C0001A60044B00221A71024B01225A7100BFAA
:1016D000704700BF54100020F048000008B50348D0
:1016E00001F0FAFF0346184608BD00BF000801409C
:1016F000054B064A1A60044B00221A71024B002265
:101700005A7100BF704700BF54100020D04700003E
:1017100000B583B0FFF782F9FFF79AFEFFF7DEFF0F
:1017200003468DF807309DF80730572BF2DC302B3D
:1017300004DA0A2B5ED00D2B5CD065E0303B272B02
:10174000E8D801A252F823F0011800001517000094
:1017500015170000151700001517000015170000D9
:1017600015170000151700001517000015170000C9
:1017700015170000151700001517000015170000B9
:1017800015170000151700001517000015170000A9
:10179000FB170000151700001517000015170000B3
:1017A0001517000015170000151700001517000089
:1017B0001517000015170000151700001517000079
:1017C0001517000015170000151700000B18000072
:1017D00015170000EF17000015170000151700007F
:1017E00015170000E9170000FFF79AFE0CE0FFF75D
:1017F000A5FE09E0FFF7B6FE06E0FFF7CBFE03E02B
:10180000FFF7C8FE00BF85E784E700BF03B05DF8BF
:1018100004FB00BF08B50721054801F046FF02217F
:10182000044801F042FFFFF759FF00BF08BD00BFA9
:10183000084400002844000008B50721054801F0CD
:1018400034FF0221044801F030FFFFF747FF00BFDB
:1018500008BD00BF3C4400002844000008B5072133
:10186000054801F022FF0221044801F01EFFFFF7A6
:1018700035FF00BF08BD00BF5C44000028440000E5
:1018800008B50621054801F010FF0221044801F0C7
:101890000CFFFFF723FF00BF08BD00BF7C44000022
:1018A0002844000008B50621054801F0FEFE02218B
:1018B000044801F0FAFEFFF711FF00BF08BD00BFAA
:1018C0009C4400002844000008B50621054801F0AA
:1018D000ECFE0221044801F0E8FEFFF7FFFE00BF26
:1018E00008BD00BFBC4400002844000008B500212A
:1018F000054801F0DAFE0221044801F0D6FEFFF7A8
:10190000EDFE00BF08BD00BFDC440000284400001D
:1019100008B50021054801F0C8FE0221044801F085
:10192000C4FEFFF7DBFE00BF08BD00BFFC440000A3
:101930002844000008B50021054801F0B6FE022148
:10194000044801F0B2FEFFF7C9FE00BF08BD00BFAA
:101950001C4500002844000008B50121054801F09D
:10196000A4FE0221044801F0A0FEFFF7B7FE00BF6D
:1019700008BD00BF3C4500002844000008B5012117
:10198000054801F092FE0221044801F08EFEFFF7A7
:10199000A5FE00BF08BD00BF5C4500002844000054
:1019A00008B50121054801F080FE0221044801F03C
:1019B0007CFEFFF793FE00BF08BD00BF7C45000022
:1019C0002844000008B50221054801F06EFE0221FE
:1019D000044801F06AFEFFF781FE00BF08BD00BFAA
:1019E0009C4500002844000008B50221054801F08C
:1019F0005CFE0221044801F058FEFFF76FFE00BFB5
:101A000008BD00BFBC4500002844000008B5022105
:101A1000054801F04AFE0221044801F046FEFFF7A6
:101A20005DFE00BF08BD00BFDC450000284400008B
:101A300008B50321054801F038FE0221044801F0F1
:101A400034FEFFF74BFE00BF08BD00BFFC450000A1
:101A50002844000008B50321054801F026FE0221B4
:101A6000044801F022FEFFF739FE00BF08BD00BFA9
:101A70001C4600002844000008B50321054801F079
:101A800014FE0221044801F010FEFFF727FE00BFFC
:101A900008BD00BF3C4600002844000008B50421F2
:101AA000054801F002FE0221044801F0FEFDFFF7A7
:101AB00015FE00BF08BD00BF5C46000028440000C2
:101AC00008B50421054801F0F0FD0221044801F0A9
:101AD000ECFDFFF703FE00BF08BD00BF804600001D
:101AE0002844000008B50421054801F0DEFD02216C
:101AF000044801F0DAFDFFF7F1FD00BF08BD00BFAB
:101B0000A44600002844000008B50221054801F061
:101B1000CCFD0221044801F0C8FDFFF7DFFD00BF46
:101B200008BD00BFC84600002844000008B50221D7
:101B3000054801F0BAFD0221044801F0B6FDFFF7A7
:101B4000CDFD00BF08BD00BFE846000028440000EE
:101B500008B50221054801F0A8FD0221044801F062
:101B6000A4FDFFF7BBFD00BF08BD00BF0847000094
:101B70002844000008B50521054801F096FD022122
:101B8000044801F092FDFFF7A9FD00BF08BD00BFAA
:101B9000284700002844000008B50521054801F049
:101BA00084FD0221044801F080FDFFF797FD00BF8E
:101BB00008BD00BF484700002844000008B50521C3
:101BC000054801F072FD0221044801F06EFDFFF7A7
:101BD00085FD00BF08BD00BF684700002844000025
:101BE00030B58FB0444B07AC1D460FCD0FC495E800
:101BF000070084E80700414B6C461D460FCD0FC41B
:101C000095E8070084E8070007AB19463C48FEF753
:101C10004BFD3B4B40F202229A67394B5B6F384ACF
:101C200043F00303536707AB19463648FEF73CFD04
:101C3000344B40F201129A67324B5B6F314A43F0EA
:101C40000303536707AB19462F48FEF72DFD2E4BB4
:101C500040F205529A672C4B5B6F2B4A43F003030B
:101C6000536707AB19462948FEF71EFD274B40F284
:101C700001129A67254B5B6F244A43F003035367B5
:101C80006B4619462248FEF7ADFD214B00229A67AC
:101C90001F4B5B6F1E4A43F00B03536707AB19469C
:101CA0001C48FEF701FD1B4B4FF481729A67194BDC
:101CB0005B6F184A43F00303536707AB1946164896
:101CC000FEF7F2FC144B40F201129A67124B03220A
:101CD0005A6707AB19461148FEF7E6FC0F4B40F276
:101CE00003329A670D4B03225A6705210848FEF715
:101CF00089FC00BF0FB030BD204900003C49000006
:101D0000000001400004014000080140000C0140B7
:101D10000010014000140140004001400044014017
:101D200000B583B0034600918DF80730009B072B68
:101D30004AD801A252F823F0591D0000671D000087
:101D4000751D0000831D0000911D00009F1D0000F7
:101D5000AD1D0000BB1D00009DF80730194620484E
:101D600001F061FC37E09DF8073019461D4801F08D
:101D70005AFC30E09DF8073019461B4801F053FC2F
:101D800029E09DF807301946184801F04CFC22E084
:101D90009DF807301946164801F045FC1BE09DF8F8
:101DA00007301946134801F03EFC14E09DF8073057
:101DB0001946114801F037FC0DE09DF8073019462F
:101DC0000E4801F030FC06E09DF807301946064841
:101DD00001F029FC00BF00BF03B05DF804FB00BFA9
:101DE000000001400004014000080140000C0140D7
:101DF0000010014000140140004001400044014037
:101E000000B585B000F0C2F81F4B039319E0002322
:101E100002930EE0039B1A68029B9B001A44039BEB
:101E20005968029B9B000B4412681A60029B0133A5
:101E30000293039B9B68029A9A42EBD3039B0C3359
:101E40000393039B114A9342E1D3114B019314E096
:101E50000023009309E0019B1A68009B9B00134438
:101E600000221A60009B01330093019B5B68009A7B
:101E70009A42F0D3019B08330193019B054A934298
:101E8000E6D3FEF7B3F900BFCC4B0000D84B0000FF
:101E9000D84B0000D84B000082B0314BD3F89430BF
:101EA00003F00703023B042B49D801A252F823F0A8
:101EB000D51E0000CD1E0000C51E0000351F00000D
:101EC000DD1E0000274B1B6801933CE04FF40043EC
:101ED000019338E0244B1B68019334E0204B9B684E
:101EE0001B0C03F01F03073B072B1FD801A252F85E
:101EF00023F000BF151F00002D1F00002D1F000044
:101F00002D1F00001B1F00002D1F0000211F0000BF
:101F1000271F0000154B01930BE0154B019308E0C0
:101F2000144B019305E0144B019302E0002301934D
:101F300000BF08E0114B1B685B08019303E00F4BE7
:101F40001B68019300BF064BD3F800311B0A03F056
:101F50001F030133019AB2FBF3F3184602B0704736
:101F600000400E4004100020001000200024F40067
:101F70000048E801006CDC0280F0FA020810002042
:101F8000014B1B681846704700100020064B074A9B
:101F90009A60054BD3F88830034A43F47003C2F8C3
:101FA000883000BF704700BF00ED00E00000000077
:101FB000014B1B68184670470410002000B583B021
:101FC0000190019B1F2B04D940F27711054801F0C5
:101FD000A6FB0122019B02FA03F3184603B05DF849
:101FE00004FB00BF5849000000B587B00390029180
:101FF0000192029B1F2B03D991210A4801F08FFB0C
:10200000039B03F1424303F58013DA00029B134460
:102010009B000593059B019A1A6000BF07B05DF80D
:1020200004FB00BFB449000082B0034B1B6801935E
:10203000019B184602B070470C10002000B583B019
:10204000FFF72AFF0190074BD3F800311B0A03F07A
:102050001F030133019A02FB03F3184603B05DF836
:1020600004FB00BF00400E4000B583B0104800F0F4
:10207000ABFE03468DF803309DF80330072B05D0E7
:10208000092B07D1FFF708FF01900BE0FFF7CCFF0A
:10209000019007E00023019341F2D661054801F069
:1020A0003EFB00BF019B184603B05DF804FB00BF78
:1020B00006000E00644A000000B585B00190019B47
:1020C000002B03D0019B012B07D00DE0244800F02A
:1020D0007BFE03468DF80B300DE0224800F074FEC5
:1020E00003468DF80B3006E041F2F6611E4801F020
:1020F00016FB002330E09DF80B30013B072B22D864
:1021000001A252F823F000BF29210000472100005E
:10211000472100003721000047210000472100002F
:102120002F2100003F2100000023039313E0FFF75D
:102130007BFF03900FE0FFF723FF03900BE0FFF717
:102140007DFF039007E00023039341F20D710648E1
:1021500001F0E5FA00BF039B184605B05DF804FBEB
:10216000B8003200B9003400644A000000B583B002
:102170001C4800F029FE03468DF803309DF803301B
:10218000043B062B20D801A252F823F0B121000015
:10219000A9210000C9210000B9210000C9210000C7
:1021A000C9210000C12100000F4B1B68019313E0FF
:1021B000FFF7E6FE01900FE0FFF736FF01900BE01E
:1021C0000A4B1B68019307E00023019341F237712A
:1021D000074801F0A4FA00BF019B184603B05DF860
:1021E00004FB00BF0A7B36000810002010100020FE
:1021F000644A000000B585B00190019B002B1DD101
:10220000204800F0E1FD03468DF80B3000BF9DF83B
:102210000B30043B062B28D801A252F823F000BF54
:10222000532200004B2200006B2200005B220000C2
:102230006B2200006B2200006322000041F2527109
:10224000114801F06CFA002318E0104B1B6803934F
:1022500013E0FFF795FE03900FE0FFF7E5FE039014
:102260000BE00B4B1B68039307E00023039341F241
:102270006971054801F053FA00BF039B184605B089
:102280005DF804FB0B7C3800644A00000810002055
:102290001010002000B583B0244800F095FD0346DF
:1022A0008DF803309DF80330023B092B30D801A292
:1022B00052F823F00123000009230000E52200006A
:1022C000F922000011230000112300001123000057
:1022D00011230000DD220000ED220000144B1B68DA
:1022E00001931DE0FFF74CFE019019E0FFF748FE57
:1022F00003465B00019313E00E4B1B6801930FE054
:10230000FFF756FE01900BE001F001FA019007E0A3
:10231000002301934FF4BE51074801F000FA00BFBB
:10232000019B184603B05DF804FB00BF0C7F3A0028
:102330001010002008100020644A000010B584B07E
:10234000019000230293019B4D4A934219D0019BB7
:102350004B4A93420FD8019B4A4A934211D0019BAA
:10236000484A934207D8019B474A934209D0019BB0
:10237000464A934205D041F61311454801F0CFF982
:1023800000E000BF019800F01FFD03460393019B8E
:102390003B4A934229D0019B394A93422CD8019B56
:1023A000384A93421AD0019B364A934224D8019B63
:1023B000354A934204D0019B344A934207D01BE034
:1023C000344BD3F8803003F0070303931AE0314B0A
:1023D000D3F8843003F00703039313E02D4BD3F8B5
:1023E0008C3003F0070303930CE02A4BD3F88830BA
:1023F00003F00703039305E041F64211244801F07E
:102400008EF900BF039B042B2DD801A252F823F0B4
:1024100061240000252400002D2400003D2400003C
:102420003524000001F073F9029024E0FFF7C0FDAD
:10243000029020E001F06FF902901CE0FFF72CFD04
:102440000446144BD3F800311B0E03F00303013391
:102450001846FFF7B3FD0346B4FBF3F302930AE01B
:102460000023029307E00023029341F694110848E9
:1024700001F055F900BF029B184604B010BD00BF23
:10248000050024000400220002001E0003002000BA
:10249000644A000000400E4082B00190094BD3F81E
:1024A000443103F00103002B08D100BF054BD3F8E2
:1024B0004021019B1340002BF8D100E000BF02B087
:1024C000704700BF00400E4000B587B001900B463A
:1024D0008DF8033000230493019B1B0A03F00F03C4
:1024E000013B0E2B72D801A252F823F029250000DF
:1024F00035250000CD250000CD2500002F2500004A
:10250000412500004B2500005525000061250000F5
:10251000C72500006D25000097250000CD2500008F
:102520003B250000C1250000364B059354E0364B97
:10253000059351E0354B05934EE0354B05934BE049
:10254000344B05930123049346E0334B059310234A
:10255000049341E0314B05934FF4807304933BE0C7
:102560002F4B05934FF48033049335E02D4B0593A7
:102570009DF80330002B14BF01230023DBB283F04E
:102580000103DBB28DF803309DF8033003F0010343
:102590008DF8033020E0244B05939DF80330002B89
:1025A00014BF01230023DBB283F00103DBB28DF8FB
:1025B00003309DF8033003F001038DF803300BE086
:1025C0001A4B059308E01A4B059305E041F6B0510C
:1025D000184801F0A4F811E0019B1B0B03F01F0346
:1025E0000393049B002B02D00498FFF755FF9DF83E
:1025F00003301A4603990598FFF7F6FC07B05DF81B
:1026000004FB00BF00400E40B0400E40C0400E40F2
:10261000C4400E40E0400E40E8400E40EC400E400A
:10262000F0400E4060410E4064410E40F0410E40CB
:1026300050410E40644A000010B584B00190019BE7
:1026400003F47813B3F5781F00F01082B3F5781F08
:1026500000F21782B3F5681F00F00482B3F5681F1B
:1026600000F20F82B3F5601F00F0F781B3F5601F31
:1026700000F20782B3F5581F00F0EB81B3F5581F45
:1026800000F2FF81B3F5501F00F0D381B3F5501F66
:1026900000F2F781B3F5481F00F0BC81B3F5481F85
:1026A00000F2EF81B3F5401F00F08E81B3F5401FBB
:1026B00000F2E781B3F5381F00F04D81B3F5381F04
:1026C00000F2DF81B3F5281F00F03281B3F5281F37
:1026D00000F2D781B3F5201F00F08A81B3F5201FE7
:1026E00000F2CF81B3F5101F00F08781B3F5101F02
:1026F00000F2C781B3F5001F00F03C81B3F5001F65
:1027000000F2BF81B3F5F01F00F0CB80B3F5F01FEE
:1027100000F2B781B3F5E01F00F04381B3F5E01F8D
:1027200000F2AF81B3F5D01F00F02981B3F5D01FBF
:1027300000F2A781B3F5C01F00F0E780B3F5C01F1A
:1027400000F29F81B3F5B01F00F0CD80B3F5B01F4C
:1027500000F29781B3F5A01F00F0B780B3F5A01F7A
:1027600000F28F81B3F5901F00F0A080B3F5901FA9
:1027700000F28781B3F5801F00F04881B3F5801F18
:1027800000F27F81B3F5602F00F03C81B3F5602F3C
:1027900000F27781B3F5402F74D0B3F5402F00F2EB
:1027A0007081B3F5202F4FD0B3F5202F00F269814F
:1027B000B3F5002F39D0B3F5002F00F26281B3F5E5
:1027C000C02F23D0B3F5C02F00F25B81B3F5802F6B
:1027D0000DD0B3F5802F00F25481002B03D0B3F558
:1027E000003F40D04DE1FFF757FB039051E1FFF769
:1027F00053FB0390A94BD3F80C311B0AC3F3080316
:102800000133039AB2FBF3F3039342E1FFF744FB76
:102810000390A24BD3F818311B0AC3F3080301330A
:10282000039AB2FBF3F3039333E1FFF735FB039015
:102830009A4BD3F81C311B0AC3F308030133039AE4
:10284000B2FBF3F3039324E1FFF726FB0390934BD2
:10285000D3F804311B0AC3F308030133039AB2FB14
:10286000F3F3039315E1FFF717FB03908B4BD3F8BA
:1028700008311B0AC3F308030133039AB2FBF3F3D5
:10288000039306E1FFF708FB0390844BD3F8143160
:102890001B0A03F01F030133039AB2FBF3F3039304
:1028A000F7E07F48FFF74AFD0390F2E07C48FFF72E
:1028B00045FD0390794BD3F820311B0C03F00F0337
:1028C000039A22FA03F30393E3E07648FFF736FD19
:1028D0000390724BD3F8303103F00303039A22FACA
:1028E00003F30393D5E06E48FFF728FD03906B4B8D
:1028F000D3F8203103F00F031846FFF75FFB0246C1
:10290000039BB3FBF2F30393C3E06548FFF716FDA7
:102910000390624BD3F820311B0903F00F031846D4
:10292000FFF74CFB0246039BB3FBF2F30393B0E0CB
:102930005B48FFF703FD0390584BD3F820311B0B86
:1029400003F007031846FFF739FB0246039BB3FB6E
:10295000F2F303939DE05248FFF7F0FC03904F4BD6
:10296000D3F820311B0A03F00303039A22FA03F37E
:1029700003938EE04C48FFF7E1FC039089E04A485E
:10298000FFF7DCFC0390454BD3F8283103F0030339
:102990001846FFF713FB0246039BB3FBF2F30393C6
:1029A00077E04148FFF7CAFC03903C4BD3F828314D
:1029B0001B0903F003031846FFF700FB0246039BC5
:1029C000B3FBF2F3039364E03748FFF7B7FC0390DF
:1029D000324BD3F828311B0B03F0030304331846A2
:1029E000FFF7ECFA0246039BB3FBF2F3039350E0CC
:1029F0002E48FFF7A3FC03904BE02A48FFF79EFC0C
:102A0000039046E0FFF730FB039042E0FFF70CFB3A
:102A100003903EE00020FFF74FFB03901F4BD3F8DD
:102A20005C3103F003030133039AB2FBF3F3039326
:102A30002FE00120FFF740FB0390184BD3F85C31E7
:102A40001B0C03F003030133039AB2FBF3F303936C
:102A50001FE0FFF78BFB03901BE00020FFF7CAFB92
:102A6000039016E0FFF716FC039012E0FFF714FA4C
:102A70000446019800F05CFE0346B4FBF3F30393B5
:102A800007E0002303934FF4F751094800F047FE95
:102A900000BF039B184604B010BD00BF00400E40AD
:102AA00002001E0005002400030020000400220094
:102AB000644A000000B585B00190019B1B0903F03A
:102AC0000F030293029B013B0B2B00F2538101A2E7
:102AD00052F823F0052B0000152B0000252B0000D9
:102AE000452B0000552B0000652B0000752B0000C6
:102AF000852B0000712C0000FB2C0000232D000012
:102B0000652D0000A24BD3F800311B0A03F01F0310
:102B1000039337E19E4BD3F814311B0A03F01F03D4
:102B200003932FE19A4BD3F800311B0E03F00303FC
:102B30000393039B01331846FFF740FA0346013B1A
:102B400003931FE1924BD3F80C311B0AC3F3080324
:102B5000039317E18E4BD3F818311B0AC3F3080314
:102B600003930FE18A4BD3F81C311B0AC3F308030C
:102B7000039307E1864BD3F808311B0AC3F308031C
:102B80000393FFE0019B834A934230D0019B814A2B
:102B9000934264D8019B804A934244D0019B7E4A71
:102BA00093425CD8019B7D4A93423CD0019B7B4A77
:102BB000934254D8019B7A4A934226D0019B784A8B
:102BC00093424CD8019B774A93423AD0019B764A74
:102BD000934244D16E4BD3F8203103F00F0303939B
:102BE0000398FFF7EBF90346013B03933FE0684B83
:102BF000D3F820311B0A03F0030303930398FFF774
:102C0000DDF90346013B039331E0614BD3F82031FA
:102C10001B0903F00F0303930398FFF7CFF9034653
:102C2000013B039323E05A4BD3F820311B0B03F0F5
:102C3000070303930398FFF7C1F90346013B03938E
:102C400015E0534BD3F820311B0C03F00F03039313
:102C50000398FFF7B3F90346013B039307E0002312
:102C6000039341F65471514800F059FD00BF89E0CB
:102C7000019B4F4A934227D0019B4D4A934233D840
:102C8000019B4C4A934204D0019B4B4A93420DD086
:102C90002AE03F4BD3F8283103F003030393039852
:102CA000FFF78CF90346013B039325E0384BD3F83B
:102CB00028311B0903F0030303930398FFF77EF900
:102CC0000346013B039317E0314BD3F828311B0B2C
:102CD00003F003030393039B04331846FFF76EF9D5
:102CE0000346013B039307E00023039341F6787109
:102CF0002E4800F014FD00BF44E0019B2F4A934290
:102D000006D1234BD3F8303103F00303039307E0DC
:102D10000023039341F68771244800F000FD00BFB3
:102D200030E0019B264A934204D0019B254A9342FE
:102D300007D00EE0164BD3F85C3103F00303039386
:102D40000FE0134BD3F85C311B0C03F00303039328
:102D500007E00023039341F69F71144800F0DFFC65
:102D600000BF0FE00A4BD3F804311B0AC3F308037A
:102D7000039307E00023039341F6AC710B4800F086
:102D8000CEFC00BF039B184605B05DF804FB00BFF6
:102D900000400E4080262E0000362C0080002A00C5
:102DA000801618008046120080061600644A000053
:102DB0009037300090071A0090171C00A0091400EB
:102DC000B8003200B900340000B585B0019001238D
:102DD0008DF80F30019B03F00F030293029B013B20
:102DE0000B2B00F2B68101A252F823F01D2E000039
:102DF000872E0000C52E0000552F0000172F000061
:102E0000932F000053310000BD2F00000B30000055
:102E10005F300000A7300000F5300000B44BD3F85D
:102E2000943003F00703023B052B27D801A252F888
:102E300023F000BF5D2E0000552E00004D2E000037
:102E4000652E0000752E00006D2E000002238DF807
:102E50000F3017E003238DF80F3013E004238DF8B3
:102E60000F300FE00D238DF80F300BE00E238DF89F
:102E70000F3007E00A238DF80F3003E005238DF8AB
:102E80000F3000BF75E19A4BD3F8803003F0070391
:102E9000042B0ED0042B10D8012B02D0022B04D00F
:102EA0000BE003238DF80F300BE002238DF80F3079
:102EB00007E00C238DF80F3003E001238DF80F306D
:102EC00000BF56E18A4BD3F8843003F00703013B7F
:102ED000032B1BD801A252F823F000BFED2E0000F7
:102EE000F52E0000052F0000FD2E000003238DF8B5
:102EF0000F300FE002238DF80F300BE00C238DF81C
:102F00000F3007E006238DF80F3003E001238DF822
:102F10000F3000BF2DE1764BD3F8883003F0070364
:102F2000042B0ED0042B10D8012B02D0022B04D07E
:102F30000BE003238DF80F300BE002238DF80F30E8
:102F400007E00C238DF80F3003E001238DF80F30DC
:102F500000BF0EE1664BD3F88C3003F00703042B5F
:102F60000ED0042B10D8012B02D0022B04D00BE082
:102F700003238DF80F300BE002238DF80F3007E0AC
:102F80000C238DF80F3003E001238DF80F3000BFC4
:102F9000EFE0574B1B6F03F00303002B05D0012B11
:102FA00007D109238DF80F3007E007238DF80F3084
:102FB00003E001238DF80F3000BFDAE04C4BD3F86B
:102FC0005C3103F03003302B16D0302B18D8202B77
:102FD0000ED0202B14D8002B02D0102B04D00FE0E1
:102FE00001238DF80F300FE007238DF80F300BE031
:102FF00004238DF80F3007E008238DF80F3003E02D
:1030000001238DF80F3000BFB3E0394BD3F85C31AA
:1030100003F44013B3F5401F1CD0B3F5401F00F27A
:10302000A180B3F5001F11D0B3F5001F00F29A8004
:10303000002B03D0B3F5801F04D093E001238DF85B
:103040000F300BE007238DF80F3007E004238DF8D5
:103050000F3003E008238DF80F3000BF82E0244BCF
:10306000D3F8603103F00303032B7DD801A252F89B
:1030700023F000BF853000008D3000009530000047
:103080009D30000005238DF80F300BE004238DF8F0
:103090000F3007E007238DF80F3003E00A238DF887
:1030A0000F3000BF60E0124BD3F8643103F003032C
:1030B000032B5BD801A252F823F000BFCD300000F3
:1030C000D5300000DD300000E530000005238DF82C
:1030D0000F300BE004238DF80F3007E007238DF845
:1030E0000F3003E00A238DF80F3000BF3EE000BF31
:1030F00000400E40224BD3F8F03103F00703052BBC
:1031000036D801A252F823F0213100002931000005
:1031100031310000393100004131000049310000F7
:103120000A238DF80F3013E004238DF80F300FE0E1
:103130000B238DF80F300BE005238DF80F3007E0DF
:1031400002238DF80F3003E003238DF80F3000BF0A
:103150000EE000238DF80F3042F20131094800F0F3
:10316000DEFA06E000BF04E000BF02E000BF00E0BE
:1031700000BF9DF80F30184605B05DF804FB00BF96
:1031800000400E40644A000000B587B003900291F1
:10319000019200F0D9FA0590039B002B04D14FF463
:1031A0009C710A4800F0BBFA039B1A68029BDB4340
:1031B0001A400199029B0B401A43039B1A60059821
:1031C00000F0CEFA00BF07B05DF804FBBC4A000077
:1031D00000B583B0034600918DF807309DF80730A5
:1031E000002B39D09DF80730012B32D09DF80730E5
:1031F000022B2BD09DF80730032B24D09DF80730ED
:10320000042B1DD09DF80730052B16D09DF80730F4
:10321000062B0FD09DF80730072B08D09DF80730FC
:10322000082B02D14FF6FF7318E0002316E04FF68B
:10323000FF7313E04FF6FF7310E04FF6FF730DE0DE
:103240004FF6FF730AE04FF6FF7307E04FF6FF7388
:1032500004E04FF6FF7301E04FF6FF73009AD3408E
:1032600003F00103002B04D140F201410C4800F0AF
:1032700056FA9DF8072013465B0013441B010C33DC
:1032800003F1804303F508230121009A01FA02F2B9
:103290001146184600F07BFA00BF03B05DF804FB4E
:1032A000144B000000B583B0034600918DF8073041
:1032B0009DF80730002B39D09DF80730012B32D014
:1032C0009DF80730022B2BD09DF80730032B24D01C
:1032D0009DF80730042B1DD09DF80730052B16D024
:1032E0009DF80730062B0FD09DF80730072B08D02C
:1032F0009DF80730082B02D14FF6FF7318E000232A
:1033000016E04FF6FF7313E04FF6FF7310E04FF631
:10331000FF730DE04FF6FF730AE04FF6FF7307E00F
:103320004FF6FF7304E04FF6FF7301E04FF6FF73B3
:10333000009AD34003F00103002B04D14FF48661BF
:103340000C4800F0ECF99DF8072013465B0013448D
:103350001B010C3303F1804303F508230121009A7C
:1033600001FA02F21146184600F004FA00BF03B059
:103370005DF804FB144B000000B583B003460091D8
:103380008DF807309DF80730002B1FD09DF80730CF
:10339000012B1BD09DF80730022B17D09DF807306A
:1033A000032B13D09DF80730042B0FD09DF8073066
:1033B000052B0BD09DF80730062B07D09DF8073062
:1033C000072B03D09DF80730082B04D1009B23F076
:1033D0000113002B03D07D210B4800F0A0F99DF8CC
:1033E000072013465B0013441B0103F1804303F5E0
:1033F0000823009A4FF001111846FFF7C5FE00BFE1
:1034000003B05DF804FB00BF6C4B000000B585B055
:1034100002910192009303468DF80F309DF80F3012
:10342000002B39D09DF80F30012B32D09DF80F3092
:10343000022B2BD09DF80F30032B24D09DF80F309A
:10344000042B1DD09DF80F30052B16D09DF80F30A2
:10345000062B0FD09DF80F30072B08D09DF80F30AA
:10346000082B02D14FF6FF7318E0002316E04FF649
:10347000FF7313E04FF6FF7310E04FF6FF730DE09C
:103480004FF6FF730AE04FF6FF7307E04FF6FF7346
:1034900004E04FF6FF7301E04FF6FF73029AD3404A
:1034A00003F00103002B04D14FF4B071324800F057
:1034B00036F9019B002B0FD0009B002B06D09DF806
:1034C0000F3002991846FFF7EDFE05E09DF80F302A
:1034D00002991846FFF77CFE029B072B19D89DF82E
:1034E0000F2013465B0013441B01043303F1804398
:1034F00003F50823029A92000F2101FA02F0029AC2
:103500009200019901FA02F201461846FFF73CFECB
:103510001AE09DF80F2013465B0013441B0108338B
:1035200003F1804303F50823029A083A92000F2121
:1035300001FA02F0029A083A9200019901FA02F2A5
:1035400001461846FFF720FE019B002B0FD1009B80
:10355000002B06D09DF80F3002991846FFF7A2FE07
:1035600005E09DF80F3002991846FFF731FE00BFC5
:1035700005B05DF804FB00BF6C4B000008B5064BBE
:10358000044613B10021AFF30080044B1B6803B164
:103590009847204600F0C8F8000000005C100020AA
:1035A00070B50D4D0D4C641BA4100026A64209D128
:1035B0000B4D0C4C00F004F9641BA4100026A6422D
:1035C00005D170BD55F8043B98470136EEE755F834
:1035D000043B98470136F2E7141000201410002035
:1035E000141000201810002082B001900B468DF8B6
:1035F00003309DF8033063F07F03DBB21A46019B72
:103600009A6500BF02B0704782B0019000BF019B75
:103610001B6903F08003002BF9D0019BDB69DBB24F
:10362000184602B0704782B001900B468DF8033007
:1036300000BF019B1B6903F04003002BF9D09DF8EC
:103640000320019B5A6300BF02B0704782B0019013
:103650000091019B009A5A6100BF02B0704782B08E
:1036600001900091019B9A69009B1A43019B9A610A
:1036700000BF02B0704784B001900091019B03F13C
:10368000C0630393039B009A1A6000BF04B07047A5
:1036900084B001900091019B03F180630393039B2D
:1036A000009A1A6000BF04B0704700B583B0019063
:1036B000009108E0019B1B7800991846FEF730FB4B
:1036C000019B01330193019B1B78002BF2D100BFBA
:1036D00000BF03B05DF804FB00B585B00190002386
:1036E0008DF80F3000BF019B1B6903F08003002B96
:1036F000F9D00198FFF788FF03468DF80F309DF849
:103700000F30184605B05DF804FB00BFFDE74FF42D
:103710000043184670474FF47A731846704782B0DA
:103720000190009100BFFDE782B0019000BFFDE76E
:1037300000B583B001900198FFF7BCF9034601334F
:10374000184603B05DF804FB82B0EFF310830093DA
:10375000009B019372B600BF019B184602B07047F0
:1037600082B00190019B002B01D162B600BF00BF67
:1037700002B0704784B001900091019B03F1C063D7
:103780000393039B009A1A6000BF04B0704784B093
:1037900001900091019B03F180630393039B009AC6
:1037A0001A6000BF04B0704702440346934200D140
:1037B000704703F8011BF9E700000000000000005B
:1037C000F8B500BFF8BC08BC9E467047F8B500BF0E
:1037D000F8BC08BC9E4670470000000000000000D6
:1037E00000000000000000000000000000000000D9
:1037F00000000000000000000000000000000000C9
:10380000433A5C55736572735C4A6F6E61746861AC
:103810006E53746F7265795C53696D706C6963691E
:10382000747953747564696F5C76355F776F726B0A
:1038300073706163655C4E4156434F4D5F46756ED4
:103840006374696F6E616C6974795F5465737469D0
:103850006E672F656D5F74696D65722E680000007C
:10386000433A2F55736572732F4A6F6E61746861A6
:103870006E53746F7265792F53696D706C696369EB
:10388000747953747564696F2F53444B732F676554
:10389000636B6F5F73646B5F322F706C6174666F04
:1038A000726D2F656D6C69622F7372632F656D5F2A
:1038B00074696D65722E6300433A2F557365727398
:1038C0002F4A6F6E617468616E53746F7265792FE1
:1038D00053696D706C696369747953747564696F49
:1038E0002F53444B732F6765636B6F5F73646B5F1C
:1038F000322F706C6174666F726D2F656D6C6962CA
:103900002F7372632F656D5F75736172742E630020
:10391000633A5C75736572735C6A6F6E617468613B
:103920006E73746F7265795C73696D706C696369CD
:10393000747973747564696F5C73646B735C6765C9
:10394000636B6F5F73646B5F325C706C6174666F26
:10395000726D5C656D6C69625C696E635C656D5F00
:103960006770696F2E680000457870616E646572DB
:10397000204120456E61626C65640A0D0000000004
:10398000457870616E646572204120536875746477
:103990006F776E0A0D000000457870616E64657285
:1039A000204220456E61626C65640A0D00000000D3
:1039B000726573657420636F6D706C6574650A0D54
:1039C00000000000457870616E64657220422053EB
:1039D000687574646F776E0A0D0000004578706139
:1039E0006E646572204320456E61626C65640A0DE9
:1039F00000000000457870616E64657220432053BA
:103A0000687574646F776E0A0D000000456E65740A
:103A10002053776974636820456E61626C65642029
:103A20000A0D0000456E6574207377697463682021
:103A300053687574646F776E200A0D00504C5631D0
:103A400020456E61626C65640A0D0000504C563171
:103A50002044697361626C65640A0D00525332330D
:103A600032204120456E61626C65640A0D000000E1
:103A7000525332333220412044697361626C656471
:103A80000A0D00005253323332204220456E6162EB
:103A90006C65640A0D00000052533233322042201C
:103AA00044697361626C65640A0D000035562045F7
:103AB0006E61626C6564200A0D000000355620536B
:103AC000687574646F776E200A0D00004643505588
:103AD0002053687574646F776E202D206275742092
:103AE000736F6D657468696E672077656E74207793
:103AF000726F6E670A0D0000332E335620526567D1
:103B000020456E61626C65640A0D0000332E3356E9
:103B1000205265672053687574646F776E0A0D00D4
:103B200050485920656E61626C65640A0D000000A2
:103B30005048592073687574646F776E0A0D0000E1
:103B400045746865726E6574205265736574206192
:103B50006374697665200A0D00000000457468658D
:103B6000726E65742072657365742020646561638C
:103B70007469766561746564200A0D00534441538D
:103B800020526573657420616374697665200A0D3F
:103B900000000000534441532064656163746976FA
:103BA0006561746564200A0D000000005044454DB5
:103BB00020526573657420616374697665200A0D0F
:103BC000000000005044454D2064656163746976CF
:103BD0006561746564200A0D00000000464350557D
:103BE00020726573657420646561637469766561CC
:103BF000746564200A0D0000494D552052657365B7
:103C00007420616374697665200A0D00494D552062
:103C10007265736574206465616374697665617447
:103C20006564200A0D000000416E74656E6E6120AF
:103C3000526573657420616374697665200A0D00AE
:103C4000416E74656E6E6120726573657420646583
:103C500061637469766561746564200A0D00000013
:103C6000464350555F4750494F5F30204869676869
:103C7000200A0D00464350555F4750494F5F3020A2
:103C80004C6F770A0D00000053656E736F725F43CF
:103C9000616464795F4750494F5F302048696768C5
:103CA000200A0D0053656E736F725F43616464791F
:103CB0005F4750494F5F30204C6F770A0D0000007E
:103CC0002053656E736F725F43616464795F475020
:103CD000494F5F312048696768200A0D00000000E5
:103CE0002053656E736F725F43616464795F475000
:103CF000494F5F31204C6F770A0D0000504C412036
:103D00004750494F20302048696768200A0D00005D
:103D100020504C41204750494F2030204C6F770AAB
:103D20000D00000020504C415F4750494F5F31204B
:103D300048696768200A0D00504C415F4750494F61
:103D40005F31204C6F770A0D00000000504C425F3D
:103D50004750494F5F302048696768200A0D0000CE
:103D6000504C425F4750494F5F30204C6F770A0DEF
:103D700000000000504C425F4750494F5F312048DF
:103D8000696768200A0D0000504C425F4750494F58
:103D90005F31204C6F770A0D00000000504C435FEC
:103DA0004750494F5F302048696768200A0D00007E
:103DB000504C435F4750494F5F30204C6F770A0D9E
:103DC00000000000504C445F4750494F5F3020488E
:103DD000696768200A0D0000504C445F4750494F06
:103DE0005F30204C6F770A0D00000000504C455F9B
:103DF0004750494F5F302048696768200A0D00002E
:103E0000504C455F4750494F5F30204C6F770A0D4B
:103E100000000000464350555F5350495F4D4F53DB
:103E20004920456E61626C65640A0D004643505539
:103E30005F5350495F4D4F53492053687574646F09
:103E4000776E0A0D00000000464350555F535049FD
:103E50005F4D49534F20456E61626C65640A0D00E9
:103E6000464350555F5350495F4D49534F20536867
:103E70007574646F776E0A0D000000000D0A35201E
:103E8000566F6C74206973203A2009090000000005
:103E90000D0A3320566F6C74206973203A2009098B
:103EA000000000000D0A5253323332204120697362
:103EB000203A2009090000000D0A52533233322003
:103EC00042206973203A2009090000000D0A457458
:103ED0006865726E6574206973203A2009090000D4
:103EE0000D0A457870616E646572732041206973B4
:103EF000203A2009000000000D0A457870616E64C8
:103F00006572732042206973203A20090000000086
:103F10000D0A457870616E64657273204320697381
:103F2000203A2009000000000D0A456E65742072D9
:103F30006573657420206973203A20090000000031
:103F40000D0A534441532072657374206973203AFB
:103F5000200900000D0A455044454D205265736507
:103F600074206973203A2009000000000D0A4643BE
:103F70005055205265736574206973203A200900FA
:103F80000D0A494D55205265736574206973203AB6
:103F9000200900000D0A416E74656E6E6120206973
:103FA00073203A20090000001B5B324A0000000029
:103FB000303132333435363738394142434445465F
:103FC0000000000068656C6C6F2066726F6D204E9B
:103FD0006F6465200A0D000068656C6C6F20667266
:103FE0006F6D20494D55200A0D00000068656C6C0E
:103FF0006F2066726F6D205044454D200A0D000001
:1040000068656C6C6F2066726F6D2053444153205D
:104010000A0D000068656C6C6F2066726F6D20542D
:1040200068727573746572200A0D000068656C6CA7
:104030006F2066726F6D2046435055200A0D0000B8
:1040400068656C6C6F2066726F6D205553424C2012
:104050000A0D00002E2E2F656D5F74696D65722E3E
:10406000680000000101000000000000606701001E
:10407000000000004E414B0A0D000000633A5C75E1
:10408000736572735C6A6F6E617468616E73746F6E
:104090007265795C73696D706C6963697479737446
:1040A0007564696F5C73646B735C6765636B6F5F8A
:1040B00073646B5F325C706C6174666F726D5C65AB
:1040C0006D6C69625C696E635C656D5F6770696F7A
:1040D0002E6800000D0A496E6974696C6973696E17
:1040E00067204E4156434F4D20636F6D706F6E6574
:1040F0006E74730D0A0000000D0A496E6974696CD4
:104100006973696E672045746865726E65742073A3
:1041100077697463680D0A000D0A496E6974696CE9
:104120006973696E67205541525420457870616EFD
:10413000646572730D0A00000A0D3D3D3D204E413D
:1041400056434F4D204D656E752053797374656DE0
:10415000203D3D3D0A0D00005553424C2046756EF2
:104160006374696F6E730000464350552046756E48
:104170006374696F6E730000494D552046756E6318
:1041800074696F6E730000005044454D2046756E93
:104190006374696F6E7300004E4F44452046756E20
:1041A0006374696F6E7300005448525553544552FE
:1041B0002046756E6374696F6E73000045585041F8
:1041C0004E4445522046756E6374696F6E730000ED
:1041D000534441532046756E6374696F6E730000DB
:1041E00052616E646F6D2046756E6374696F6E7395
:1041F000000000004D61696E204D656E7500000085
:104200005553424C2046756E6374696F6E204100B1
:104210005553424C2046756E6374696F6E204200A0
:104220005553424C2046756E6374696F6E2043008F
:10423000464350552046756E6374696F6E20410089
:10424000464350552046756E6374696F6E20420078
:10425000464350552046756E6374696F6E20430067
:10426000494D552046756E6374696F6E204100009C
:10427000494D552046756E6374696F6E204200008B
:10428000494D552046756E6374696F6E204300007A
:104290004E6F64652046756E6374696F6E204100D1
:1042A0004E6F64652046756E6374696F6E204200C0
:1042B0004E6F64652046756E6374696F6E204300AF
:1042C0004E6F64652046756E6374696F6E7300008F
:1042D00054687275737465722046756E6374696F85
:1042E0006E20410054687275737465722046756E55
:1042F0006374696F6E2042005468727573746572DE
:104300002046756E6374696F6E2043005468727541
:10431000737465722046756E6374696F6E73000006
:10432000457870616E6465722046756E6374696F5E
:104330006E204100457870616E6465722046756E2E
:104340006374696F6E204200457870616E646572B7
:104350002046756E6374696F6E20430065787061E6
:104360006E6465722046756E6374696F6E730000CB
:1043700052616E646F6D2046756E6374696F6E2056
:104380004100000052616E646F6D2046756E63746B
:10439000696F6E204200000052616E646F6D2046AE
:1043A000756E6374696F6E2043000000534441537F
:1043B0002046756E6374696F6E204100534441530B
:1043C0002046756E6374696F6E20420053444153FA
:1043D0002046756E6374696F6E2043000A0D2D2DA3
:1043E0002D200000202D2D2D0A0D00003E20000064
:1043F000202000002E2000000A0D00002020302E7A
:10440000204261636B0A0D000A0D4578656375747F
:10441000696E67205553424C2046756E6374696F10
:104420006E20410A0D000000507265737320616EAA
:1044300079206B65792E2E2E0A0D00000A0D457825
:1044400065637574696E67205553424C2046756EDE
:104450006374696F6E20420A0D0000000A0D4578F2
:1044600065637574696E67205553424C2046756EBE
:104470006374696F6E20430A0D0000000A0D4578D1
:1044800065637574696E6720464350552046756EA6
:104490006374696F6E20410A0D0000000A0D4578B3
:1044A00065637574696E6720464350552046756E86
:1044B0006374696F6E20420A0D0000000A0D457892
:1044C00065637574696E6720464350552046756E66
:1044D0006374696F6E20430A0D0000000A0D457871
:1044E00065637574696E6720494D552046756E6326
:1044F00074696F6E20410A0D000000000A0D4578B6
:1045000065637574696E6720494D552046756E6305
:1045100074696F6E20420A0D000000000A0D457894
:1045200065637574696E6720494D552046756E63E5
:1045300074696F6E20430A0D000000000A0D457873
:1045400065637574696E67205044454D2046756EED
:104550006374696F6E20410A0D0000000A0D4578F2
:1045600065637574696E67205044454D2046756ECD
:104570006374696F6E20420A0D0000000A0D4578D1
:1045800065637574696E67205044454D2046756EAD
:104590006374696F6E20430A0D0000000A0D4578B0
:1045A00065637574696E67204E4F44452046756E8D
:1045B0006374696F6E20410A0D0000000A0D457892
:1045C00065637574696E67204E4F44452046756E6D
:1045D0006374696F6E20420A0D0000000A0D457871
:1045E00065637574696E67204E4F44452046756E4D
:1045F0006374696F6E20430A0D0000000A0D457850
:1046000065637574696E672054485255535420464B
:10461000756E6374696F6E20410A0D000A0D45784E
:1046200065637574696E672054485255535420462B
:10463000756E6374696F6E20420A0D000A0D45782D
:1046400065637574696E672054485255535420460B
:10465000756E6374696F6E20430A0D000A0D45780C
:1046600065637574696E6720455850414E444552E4
:104670002046756E6374696F6E20410A0D0000005C
:104680000A0D457865637574696E67204558504119
:104690004E4445522046756E6374696F6E20420A1F
:1046A0000D0000000A0D457865637574696E67201A
:1046B000455850414E4445522046756E6374696FAB
:1046C0006E20430A0D0000000A0D4578656375747D
:1046D000696E672052414E444F4D2046756E63749B
:1046E000696F6E20410A0D000A0D45786563757487
:1046F000696E672052414E444F4D2046756E63747B
:10470000696F6E20420A0D000A0D45786563757465
:10471000696E672052414E444F4D2046756E63745A
:10472000696F6E20430A0D000A0D45786563757444
:10473000696E6720534441532046756E6374696FF8
:104740006E20410A0D0000000A0D457865637574FE
:10475000696E6720534441532046756E6374696FD8
:104760006E20420A0D0000000A0D457865637574DD
:10477000696E6720534441532046756E6374696FB8
:104780006E20430A0D00000058410000BD150000D6
:1047900068410000DD15000078410000FD150000B3
:1047A000884100001D160000984100003D160000E1
:1047B000A84100005D160000BC4100007D1600000D
:1047C000D04100009D160000E0410000BD16000031
:1047D0008847000009000000F4410000004200008A
:1047E0001518000010420000391800002042000097
:1047F0005D180000DC470000030000005841000085
:10480000304200008118000040420000A51800005E
:1048100050420000C91800000048000003000000DA
:104820006841000060420000ED1800007042000086
:1048300011190000804200003519000024480000D2
:104840000300000078410000604200005919000098
:10485000704200007D19000080420000A119000094
:10486000484800000300000088410000904200001A
:10487000C5190000A0420000E9190000B042000084
:104880000D1A00006C48000003000000C042000048
:10489000D0420000311A0000E4420000551A000026
:1048A000F8420000791A0000904800000300000060
:1048B0000C430000204300009D1A00003443000018
:1048C000C11A000048430000E51A0000B448000087
:1048D000030000005C43000070430000091B00005F
:1048E000844300002D1B000098430000511B000072
:1048F000D848000003000000E0410000AC43000085
:10490000751B0000BC430000991B0000CC43000055
:10491000BD1B0000FC48000003000000D041000067
:10492000050000000000000000C2010000050000BA
:104930000010000000000000000000000500000062
:104940000000000020A10700050101000000000098
:104950000000000000000000633A5C75736572732C
:104960005C6A6F6E617468616E73746F7265795C96
:1049700073696D706C696369747973747564696F58
:104980005C73646B735C6765636B6F5F73646B5FB1
:10499000325C706C6174666F726D5C636F6D6D6FAD
:1049A0006E5C696E635C736C5F636F6D6D6F6E2EB2
:1049B00068000000633A5C75736572735C6A6F6EC1
:1049C000617468616E73746F7265795C73696D7020
:1049D0006C696369747973747564696F5C73646B13
:1049E000735C6765636B6F5F73646B5F325C706C85
:1049F0006174666F726D5C656D6C69625C696E6333
:104A00005C656D5F6275732E68000000633A5C75CB
:104A1000736572735C6A6F6E617468616E73746FD4
:104A20007265795C73696D706C69636974797374AC
:104A30007564696F5C73646B735C6765636B6F5FF0
:104A400073646B5F325C706C6174666F726D5C6511
:104A50006D6C69625C696E635C656D5F636D752E1C
:104A600068000000433A2F55736572732F4A6F6ECA
:104A7000617468616E53746F7265792F53696D70DC
:104A80006C696369747953747564696F2F53444B0F
:104A9000732F6765636B6F5F73646B5F322F706C2E
:104AA0006174666F726D2F656D6C69622F737263CE
:104AB0002F656D5F636D752E63000000633A5C7552
:104AC000736572735C6A6F6E617468616E73746F24
:104AD0007265795C73696D706C69636974797374FC
:104AE0007564696F5C73646B735C6765636B6F5F40
:104AF00073646B5F325C706C6174666F726D5C6561
:104B00006D6C69625C696E635C656D5F6275732E66
:104B100068000000633A5C75736572735C6A6F6E5F
:104B2000617468616E73746F7265795C73696D70BE
:104B30006C696369747973747564696F5C73646BB1
:104B4000735C6765636B6F5F73646B5F325C706C23
:104B50006174666F726D5C656D6C69625C696E63D1
:104B60005C656D5F6770696F2E680000433A2F5572
:104B7000736572732F4A6F6E617468616E53746FE0
:104B80007265792F53696D706C69636974795374B8
:104B90007564696F2F53444B732F6765636B6F5F49
:104BA00073646B5F322F706C6174666F726D2F650A
:104BB0006D6C69622F7372632F656D5F6770696FCB
:044BC0002E63000060
:084BC40020B6FF7F0100000094
:0C4BCC00D84B0000001000200700000083
:104BD80080F0FA0200800000C0EA2101C0EA210149
:0C4BE800006CDC02C1010000990100001B
:0400000300001E01DA
:00000001FF
