S02300004E4156434F4D5F46756E6374696F6E616C6974795F54657374696E672E73333708
S1130000001000206D190000DD340000DD34000014
S1130010DD340000DD340000DD340000DD34000098
S1130020DD340000DD340000DD340000DD34000088
S1130030DD340000DD340000DD340000DD34000078
S1130040DD340000DD340000DD340000DD34000068
S1130050DD340000F50F0000DD340000DD34000065
S1130060DD340000DD340000DD340000391100000F
S1130070DD340000DD34000011100000DD34000028
S1130080DD340000DD340000DD340000DD34000028
S1130090DD340000DD340000DD340000DD34000018
S11300A0DD340000DD340000DD340000DD34000008
S11300B0DD340000DD340000DD340000DD340000F8
S11300C0DD340000DD340000DD340000DD340000E8
S11300D0DD340000DD340000DD340000DD340000D8
S11300E0DD340000DD340000DD340000DD340000C8
S11300F0DD340000DD340000DD340000DD340000B8
S1130100DD340000DD340000DD340000DD340000A7
S1130110DD340000DD340000DD340000DD34000097
S1130120DD340000DD340000DD340000DD34000087
S1130130DD340000DD340000DD340000DD34000077
S1130140DD340000DD340000DD340000DD34000067
S113015000000000000000000348044B834202D06A
S1130160034B03B1184770473010002030100020B3
S1130170000000000548064B1B1AD90F01EBA30130
S1130180491002D0034B03B11847704730100020C8
S1130190301000200000000010B5064C237843B94D
S11301A0FFF7DAFF044B13B10448AFF300800123D7
S11301B0237010BD4C10002000000000043F00001C
S11301C008B5054B1BB105490548AFF30080BDE8F0
S11301D00840FFF7CFBF00BF000000003010002030
S11301E0043F0000A3F5803A704700BF174B002B73
S11301F008BF134B9D46FFF7F5FF00218B460F46C2
S11302001348144A121A03F0C1F90E4B002B00D004
S113021098470D4B002B00D0984700200021040084
S11302200D000D48002802D00C48AFF3008003F005
S1130230BBF82000290001F089FA03F0A3F800BFFD
S11302400000080000000000000000000010002072
S113025030100020541000200000000000000000B6
S113026082B00190019B1A4A934227D0019B194AFC
S1130270934223D0019B184A93421FD0019B174AF3
S113028093421BD0019B164A934217D0019B154AF7
S1130290934213D0019B144A93420FD0019B134AFB
S11302A093420BD0019B124A934207D0019B114AFF
S11302B0934203D0019B104A934201D1012300E0F1
S11302C0002303F00103DBB2184602B0704700BFFD
S11302D0008001400084014000880140008C0140FE
S11302E000900140009401400098014000A00140AA
S11302F000A4014000A8014000AC014000B585B055
S1130300019000910198FFF7ABFF0346002B03D146
S1130310B421404803F0ECF800230393009B1B78BE
S113032083F00103DBB2002B02D0019B02225A604E
S1130330019B00225A62009B9B781A06009BDB7883
S11303401B041A43009BDB799B021A43009B1B7A14
S11303501B021343009A527A1343009A5278002ADC
S113036001D0402200E000221343009A927A002A2E
S113037001D0802200E000221343009AD27A002A9E
S113038001D0202200E000221343009A127B002AAD
S113039001D0102200E000221343009A927B002A2D
S11303A002D04FF4804200E000221343009A527BB3
S11303B0002A01D0082200E0002213430393009B8B
S11303C01B79002B02D04FF4005200E00022009B66
S11303D05B79002B02D04FF0805300E000231343DD
S11303E0009A9279002A02D04FF0005200E00022D5
S11303F01343039A13430393019B039A1A60009BCC
S11304001B78002B02D0019B01225A6000BF05B06B
S11304105DF804FB4036000000B587B003900291FC
S113042001928DF8033000230593019B002B04D126
S113043040F255114C4803F05BF8029B002B0CD1A1
S1130440039B4A4A934204D1494801F0ABFE02900F
S113045003E0484801F0A6FE02909DF80330602BAB
S113046034D0602B3FDC402B20D0402B3BDC002BD6
S113047002D0202B0DD036E0029B1B09019A9A4230
S113048004D940F28711384803F032F81023059359
S11304902FE0029BDB08019A9A4204D94FF4C671FB
S11304A0314803F025F80823059322E0029B324AE1
S11304B0A2FB03239B08019A9A4204D940F29111AA
S11304C0294803F015F80623059312E0029B9B08C4
S11304D0019A9A4204D94FF4CB71234803F008F8E7
S11304E00423059305E04FF4CE711F4803F000F890
S11304F000BF059B002B33D0029B5A01059B019939
S113050001FB03F35B0813440493059B019A02FB6C
S113051003F3049AB2FBF3F30493049B203B049388
S1130520049BDB000493049B144A934204D940F2D5
S1130530B3110D4802F0DCFF049A104B13400493EE
S1130540039B1B6823F06002039B1A60039B1A68D9
S11305509DF803301A43039B1A60039B049A5A6163
S113056000BF07B05DF804FB9836000000080140A6
S11305705041070040410500ABAAAAAAF8FF7F003A
S113058000B583B001900091019B434A934220D06F
S1130590019B424A93421CD0019B414A934218D08A
S11305A0019B404A934214D0019B3F4A934210D08E
S11305B0019B3E4A93420CD0019B3D4A934208D092
S11305C0019B3C4A934204D040F215313A4802F070
S11305D08FFF019800F072F8009B9B7C002B05D0E4
S11305E0019B1B6843F08042019B1A60009BDB7CEB
S11305F0002B05D0009B1B7D1946019802F0F8FEE4
S1130600009B5B7B1A46009B1B8A1343009AD2898A
S11306101A43019B5A60009B5968009B9A68009B8F
S11306201B7B0198FFF7F8FE009B5B7D002B05D038
S1130630019B1B6843F48032019B1A60009B9B7DE5
S1130640002B05D0019B1B6843F40042019B1A60F8
S1130650009BDB7D1B0703F0E042009B1B7E1B0518
S113066003F4E0031A43019B1A66019B5B6F23F0BA
S11306703002019B5A67019B5B6F009A527E1A43BA
S1130680019B5A67009B1B781A46019BDA6000BFE6
S113069003B05DF804FB00BF00000140000401400A
S11306A000080140000C014000100140001401400A
S11306B000400140004401409836000000B583B07A
S11306C00190019B334A934220D0019B324A9342CA
S11306D01CD0019B314A934218D0019B304A93426B
S11306E014D0019B2F4A934210D0019B2E4A93426F
S11306F00CD0019B2D4A934208D0019B2C4A934273
S113070004D040F25E412B4802F0F2FE019B40F619
S1130710AA62DA60019B00221A60019B41F2050281
S11307205A60019B00229A60019B00225A61019B3E
S11307300022DA64019B204A9A64019B00221A6613
S1130740019B00225A67019B00229A67019B0022A9
S1130750DA67019B0F4A934203D0019B0F4A9342ED
S113076002D1019B00221A65019B00229A65019B1C
S1130770094A934207D0019B094A934203D0019B43
S1130780084A934202D1019B0022DA6500BF03B0FC
S11307905DF804FB00000140000401400008014032
S11307A0000C0140001001400014014000400140D1
S11307B00044014098360000F9FF010000B583B001
S11307C0034600918DF807309DF80730002B39D08F
S11307D09DF80730012B32D09DF80730022B2BD027
S11307E09DF80730032B24D09DF80730042B1DD02F
S11307F09DF80730052B16D09DF80730062B0FD037
S11308009DF80730072B08D09DF80730082B02D13C
S11308104FF6FF7318E0002316E04FF6FF7313E062
S11308204FF6FF7310E04FF6FF730DE04FF6FF73C2
S11308300AE04FF6FF7307E04FF6FF7304E04FF64C
S1130840FF7301E04FF6FF73009AD34003F00103F6
S1130850002B04D140F201410C4802F049FE9DF8FE
S1130860072013465B0013441B010C3303F1804340
S113087003F508230121009A01FA02F211461846F1
S113088002F0E6FD00BF03B05DF804FBF0360000A3
S113089000B583B0034600918DF807309DF807300A
S11308A0002B39D09DF80730012B32D09DF807304A
S11308B0022B2BD09DF80730032B24D09DF8073052
S11308C0042B1DD09DF80730052B16D09DF807305A
S11308D0062B0FD09DF80730072B08D09DF8073062
S11308E0082B02D14FF6FF7318E0002316E04FF6F1
S11308F0FF7313E04FF6FF7310E04FF6FF730DE044
S11309004FF6FF730AE04FF6FF7307E04FF6FF73ED
S113091004E04FF6FF7301E04FF6FF73009AD340F3
S113092003F00103002B04D14FF486610C4802F05C
S1130930DFFD9DF8072013465B0013441B010C33B5
S113094003F1804303F508230121009A01FA02F21E
S11309501146184602F06FFD00BF03B05DF804FBBA
S1130960F036000000B583B0034600918DF80730DF
S11309709DF80730062B00F2998001A252F823F06B
S11309809D090000AD0A0000AD0A0000AD0A000098
S1130990E1090000250A0000690A0000009B00220A
S11309A01A60009B00221A71009B00225A71009B5E
S11309B000229A71009B0022DA71009B00221A72B5
S11309C0009B00225A72009B00229A72009B002214
S11309D0DA72009B00221A73009B00225A7386E08D
S11309E0009B04221A60009B01221A71009B0122C1
S11309F05A71009B01229A71009B0022DA71009BBC
S1130A0000221A72009B00225A72009B00229A72E2
S1130A10009B0022DA72009B00221A73009B0022C2
S1130A205A7364E0009B05221A60009B00221A712D
S1130A30009B01225A71009B01229A71009B0022A3
S1130A40DA71009B00221A72009B01225A72009BE9
S1130A5001229A72009B0022DA72009B00221A7310
S1130A60009B00225A7342E0009B06221A60009BFE
S1130A7000221A71009B01225A71009B01229A7173
S1130A80009B0022DA71009B00221A72009B002254
S1130A905A72009B00229A72009B0122DA72009B18
S1130AA001221A73009B01225A7320E0009B00224A
S1130AB01A60009B00221A71009B00225A71009B4D
S1130AC000229A71009B0022DA71009B00221A72A4
S1130AD0009B00225A72009B00229A72009B002203
S1130AE0DA72009B00221A73009B00225A73009B47
S1130AF01B79002B04D00099012000F003F903E0D6
S1130B000099002000F0FEF8009B5B79002B04D0D4
S1130B100099012000F07AF903E00099002000F028
S1130B2075F9009B9B79002B04D00099012000F0FB
S1130B30A7F903E00099002000F0A2F9009BDB79FB
S1130B40002B04D00099012000F09AF903E00099E9
S1130B50002000F095F9009B1B7A002B04D000992B
S1130B60012000F08DF903E00099002000F088F9DD
S1130B70009B5B7A002B04D00099012000F0EEF872
S1130B8003E00099002000F0E9F8009B9B7A002B19
S1130B9004D00099012000F00DF903E00099002031
S1130BA000F008F9009BDB7A002B04D000990120A7
S1130BB000F024F803E00099002000F01FF8009BE7
S1130BC01B7B002B04D00099012000F043F803E0C4
S1130BD00099002000F03EF8009B5B7B002B04D0C2
S1130BE00099012000F062F803E00099002000F071
S1130BF05DF800BF03B05DF804FB00BF00B583B02F
S1130C00034600918DF807309DF80730002B0DD076
S1130C10012B17D102210320FFF73AFE02210B48D2
S1130C2002F045FC009B3122DA720BE00221032022
S1130C30FFF7C4FD0221064802F039FC009B302274
S1130C40DA7200BF00BF03B05DF804FB4837000050
S1130C506037000000B583B0034600918DF807307B
S1130C609DF80730002B0DD0012B17D10321032051
S1130C70FFF70EFE02210B4802F019FC009B312203
S1130C801A730BE003210320FFF798FD02210648A5
S1130C9002F00DFC009B30221A7300BF00BF03B0AA
S1130CA05DF804FB783700009037000000B583B08E
S1130CB0034600918DF807309DF80730002B0DD0C6
S1130CC0012B17D104210320FFF7E2FD02210B4879
S1130CD002F0EDFB009B31225A730BE00421032048
S1130CE0FFF76CFD0221064802F0E1FB009B302275
S1130CF05A7300BF00BF03B05DF804FBA8370000BF
S1130D00C037000000B583B0034600918DF807306A
S1130D109DF80730002B0DD0012B17D10A21042098
S1130D20FFF7B6FD02210B4802F0C1FB009B312204
S1130D301A710BE00A210420FFF740FD0221064846
S1130D4002F0B5FB009B30221A7100BF00BF03B054
S1130D505DF804FBD8370000F037000000B583B01D
S1130D60034600918DF807309DF80730002B0DD015
S1130D70012B17D104210020FFF78AFD02210B4823
S1130D8002F095FB009B31225A720BE004210020F3
S1130D90FFF714FD0221064802F089FB009B302274
S1130DA05A7200BF00BF03B05DF804FB08380000AE
S1130DB01C38000000B583B0034600918DF807305D
S1130DC09DF80730002B0DD0012B17D105210020F1
S1130DD0FFF75EFD02210B4802F069FB009B312204
S1130DE09A720BE005210020FFF7E8FC0221064877
S1130DF002F05DFB009B30229A7200BF00BF03B07B
S1130E005DF804FB303800004438000000B583B0BE
S1130E10034600918DF807309DF80730002B0DD064
S1130E20012B17D10F210020FFF732FD02211148B9
S1130E3002F03DFB009B31225A7117E00F21002084
S1130E40FFF7BCFC02210C4802F031FB009B30226E
S1130E505A710BE00F210020FFF7B0FC0221074874
S1130E6002F025FB009B30225A7100BF00BF03B083
S1130E705DF804FB58380000683800007C38000036
S1130E8000B583B0034600918DF807309DF8073014
S1130E90002B0DD0012B17D102210120FFF7F8FC04
S1130EA002210B4802F003FB009B31229A710BE0F4
S1130EB002210120FFF782FC0221064802F0F7FA22
S1130EC0009B30229A7100BF00BF03B05DF804FBA1
S1130ED0A8380000BC38000082B003468DF8073003
S1130EE09DF90730002B0CDB9DF8073003F01F023F
S1130EF005499DF907305B09012000FA02F241F827
S1130F00232000BF02B0704700E100E082B00190EE
S1130F10019B0B4A93420BD0019B0A4A934207D090
S1130F20019B094A934203D0019B084A934202D190
S1130F304FF0FF3301E04FF6FF73184602B07047DD
S1130F4000A0014000A4014000A8014000AC014001
S1130F5000B583B0019000910198FFF7D7FF0246D6
S1130F60009B934204D940F2BC41054802F0C0FA08
S1130F70019B009ADA6100BF03B05DF804FB00BF77
S1130F80483B000000B587B001AB00221A605A60EC
S1130F909A60C3F80B2001238DF8043000238DF8E8
S1130FA004300A238DF8063001AB19460E48FFF7CA
S1130FB0A5F90E4801F0F6F803469DF80620D34043
S1130FC00B4AA2FB03235B0B059305990648FFF725
S1130FD0BFFF0121044802F051FA0520FFF77CFF0E
S1130FE000BF07B05DF804FB00800140000206006A
S1130FF05917B7D108B50121034802F036FA034B5B
S113100001221A7000BF08BD008001404D1000206D
S113101008B50121034802F028FA034B01221A7093
S113102000BF08BD008401404E10002082B003467A
S11310308DF807309DF90730002B0CDB9DF8073045
S113104003F01F0205499DF907305B09012000FAEE
S113105002F241F8232000BF02B0704700E100E033
S113106082B003468DF807309DF90730002B0DDB65
S11310709DF8073003F01F0206499DF907305B090C
S1131080012000FA02F2603341F8232000BF02B0CD
S1131090704700BF00E100E010B584B00121214891
S11310A000F0C8FF0121204800F0C4FF01230B22F7
S11310B00721032001F016FF01230B220621032040
S11310C001F010FF194B40F201129A64174B0322EE
S11310D05A64174B6C460FCB84E80F0000238DF83D
S11310E000306B461946114802F008F900BF0F4B57
S11310F0DB6803F00103002BF9D101210B4802F056
S1131100D3F80A4B0B4ADA63084B4FF4F0721A64B3
S11311100B20FFF7A5FF0B20FFF788FF00BF04B0EB
S113112010BD00BF00550A000012090000900840DD
S1131130583B0000CFFF070000B583B0434B5B6B07
S11311400193019B03F08003002B10D0022140483F
S113115002F0ADF93F4B06221A703C4B02225A6052
S11311603A4B8022DA633C4B01221A706AE0394B15
S11311701B78DBB2013B062B59D801A252F823F0AD
S11311809D110000C31100002F120000E7110000A0
S11311902F1200002F1200000F1200000221312034
S11311A000F074FB019B03F04003002B43D0274B5A
S11311B00022DA62274B02221A70244B4022DA639F
S11311C039E0019B03F01003002B36D01F4B0122A2
S11311D05A601E4B3322DA621E4B04221A701B4BD8
S11311E01022DA6329E0019B03F02003002B26D0B0
S11311F0164BDB69DAB2194B1A70144B0A225A6087
S1131200144B07221A70114B2022DA6317E0019B5A
S113121003F48073002B14D00F4B01221A700D4B72
S113122000221A70094B4FF48072DA6309E0074A0E
S1131230019BD36306E000BF04E000BF02E000BFEF
S113124000E000BF03B05DF804FB00BF009008405D
S1131250683B00004F100020501000205110002067
S113126000B583B0034600918DF807309DF8073030
S1131270002B39D09DF80730012B32D09DF8073070
S1131280022B2BD09DF80730032B24D09DF8073078
S1131290042B1DD09DF80730052B16D09DF8073080
S11312A0062B0FD09DF80730072B08D09DF8073088
S11312B0082B02D14FF6FF7318E0002316E04FF617
S11312C0FF7313E04FF6FF7310E04FF6FF730DE06A
S11312D04FF6FF730AE04FF6FF7307E04FF6FF7314
S11312E004E04FF6FF7301E04FF6FF73009AD3401A
S11312F003F00103002B04D140F201410C4802F039
S1131300F7F89DF8072013465B0013441B010C33C8
S113131003F1804303F508230121009A01FA02F244
S11313201146184602F0B6F800BF03B05DF804FB9E
S1131330703B00004FF0804301225A64164BD3F8EF
S1131340B030154A43F00103C2F8B030124BD3F861
S1131350E030114A43F00803C2F8E0300F4B1B6839
S11313600E4A43F4805313600B4BD3F8E0300A4A1F
S113137023F00803C2F8E030074BD3F8B030064A34
S113138023F00103C2F8B030054B1B68044A43F450
S1131390F843136000BF704700400E4034400540DE
S11313A0A4310E4008B5FFF7C5FF0121DC4800F069
S11313B041FE0121DB4800F03DFE0121DA4800F046
S11313C039FE0121D94800F035FE0121D84800F04A
S11313D031FE0121D74800F02DFE0121D64800F04E
S11313E029FE0121D54800F025FE0121D44800F052
S11313F021FE0121D34800F01DFE0121D24800F056
S113140019FE002301220A21022001F06BFD0123B1
S113141004220B21022001F065FD0123042208218E
S1131420022001F05FFD002301220121032001F0CD
S113143059FD012304220021032001F053FD002360
S113144001220121052001F04DFD01230422002188
S1131450052001F047FD012304220521052001F0A8
S113146041FD002301220721042001F03BFD01235B
S113147004220621042001F035FD01230422042165
S1131480042001F02FFD002301220821012001F096
S113149029FD012304220721012001F023FD01235A
S11314A004220421022001F01DFD00230122012158
S11314B0012001F017FD012304220621002001F080
S11314C011FD002301220121042001F00BFD012361
S11314D004220021042001F005FD00230122032140
S11314E0042001F0FFFC012304220221042001F066
S11314F0F9FC012304220421002001F0F3FC04215F
S11315000020FFF7ADFE012304220521002001F095
S1131510E9FC05210020FFF7A3FE01230422022198
S1131520012001F0DFFC02210120FFF799FE0123D5
S113153004220F21002001F0D5FC0F210020FFF729
S11315408FFE012304220A21042001F0CBFC0A218E
S11315500420FFF785FE012304220221032001F069
S1131560C1FC02210320FFF77BFE01230422032197
S1131570032001F0B7FC03210320FFF771FE0123D0
S113158004220421032001F0ADFC04210320FFF711
S113159067FE012304220C21052001F0A3FC0C2189
S11315A00520FFF75DFE012304220121022001F042
S11315B099FC01210220FFF753FE012304220B2191
S11315C0002001F08FFC0B210020FFF749FE0123CE
S11315D004220721022001F085FC07210220FFF7E5
S11315E03FFE012304220921022001F07BFC092192
S11315F00220FFF735FE012304220621012001F019
S113160071FC06210120FFF72BFE012304220A218D
S1131610002001F067FC0A210020FFF721FE0123CE
S113162004220921002001F05DFC09210020FFF7BC
S113163017FE012304220821002001F053FC082195
S11316400020FFF70DFE012304220721002001F0F2
S113165049FC07210020FFF703FE012304220A218D
S1131660012001F03FFC0A210120FFF7F9FD0123CD
S113167004220921012001F035FC09210120FFF792
S1131680EFFD012304220E21002001F02BFC0E218A
S11316900020FFF7E5FD012304220D21012001F0C4
S11316A021FC0D210120FFF7DBFD012304220C2185
S11316B0002001F017FC0C210020FFF7D1FD0123CD
S11316C004220521012001F00DFC05210120FFF772
S11316D0C7FD012304220B21052001F003FC0B218B
S11316E00520FFF7BDFD012304220A21052001F096
S11316F0F9FB0A210520FFF7B3FD0123042202218F
S1131700022001F0EFFB02210220FFF7A9FDFFF701
S113171039FC00F029F8FFF7BFFC00BF08BD00BF8B
S11317204041050000550A0000120900007204003F
S1131730008204000092060000A2040000B204002B
S113174000C20400004E0400005E040000B583B033
S1131750FFF728FE034B019301990020FFF702F9DC
S1131760FAE700BF0010002030B589B03E4B01AC51
S11317701D460FCD0FC495E8070084E8070001ABB0
S113178019463A48FEF7FCFE384B40F202229A67AB
S1131790364B5B6F354A43F00303536701AB19467D
S11317A03348FEF7EDFE324B40F201129A67304B9C
S11317B05B6F2F4A43F00303536701AB19462D486F
S11317C0FEF7DEFE2B4B40F205529A67294B5B6F06
S11317D0284A43F00303536701AB19462648FEF732
S11317E0CFFE254B40F201129A67234B5B6F224ACE
S11317F043F00303536701AB19462048FEF7C0FECC
S11318001E4B00229A671D4B5B6F1C4A43F0030377
S1131810536701AB19461A48FEF7B2FE184B4FF452
S113182081729A67164B5B6F154A43F00303536743
S113183001AB19461348FEF7A3FE124B40F2011206
S11318409A67104B03225A6701AB19460E48FEF7FC
S113185097FE0D4B40F203329A670B4B03225A67F3
S113186000BF09B030BD00BFC83B0000000001400C
S11318700004014000080140000C01400010014038
S113188000140140004001400044014000B583B011
S1131890034600918DF80730009B072B4AD801A21C
S11318A052F823F0C5180000D3180000E118000016
S11318B0EF180000FD1800000B19000019190000B2
S11318C0271900009DF807301946204801F0A0FDB3
S11318D037E09DF8073019461D4801F099FD30E0C6
S11318E09DF8073019461B4801F092FD29E09DF848
S11318F007301946184801F08BFD22E09DF80730A7
S11319001946164801F084FD1BE09DF8073019467E
S1131910134801F07DFD14E09DF807301946114885
S113192001F076FD0DE09DF8073019460E4801F0F0
S11319306FFD06E09DF807301946064801F068FD82
S113194000BF00BF03B05DF804FB00BF000001400E
S11319500004014000080140000C01400010014057
S113196000140140004001400044014000B585B02E
S113197000F0C2F81F4B039319E0002302930EE01A
S1131980039B1A68029B9B001A44039B5968029BA1
S11319909B000B4412681A60029B01330293039B61
S11319A09B68029A9A42EBD3039B0C330393039BE9
S11319B0114A9342E1D3114B019314E000230093A5
S11319C009E0019B1A68009B9B00134400221A60E3
S11319D0009B01330093019B5B68009A9A42F0D309
S11319E0019B08330193019B054A9342E6D3FEF71A
S11319F0FDFB00BF0C3F0000183F0000183F000033
S1131A00183F000082B0314BD3F8943003F0070341
S1131A10023B042B49D801A252F823F0411A0000DA
S1131A20391A0000311A0000A11A0000491A0000F6
S1131A30274B1B6801933CE04FF40043019338E0CB
S1131A40244B1B68019334E0204B9B681B0C03F070
S1131A501F03073B072B1FD801A252F823F000BF36
S1131A60811A0000991A0000991A0000991A0000BE
S1131A70871A0000991A00008D1A0000931A0000BA
S1131A80154B01930BE0154B019308E0144B0193A4
S1131A9005E0144B019302E00023019300BF08E02A
S1131AA0114B1B685B08019303E00F4B1B68019308
S1131AB000BF064BD3F800311B0A03F01F030133A8
S1131AC0019AB2FBF3F3184602B0704700400E408F
S1131AD018100020141000200024F4000048E8012D
S1131AE0006CDC0280F0FA021C100020014B1B6821
S1131AF01846704714100020064B074A9A60054B9D
S1131B00D3F88830034A43F47003C2F8883000BF26
S1131B10704700BF00ED00E000000000014B1B68AF
S1131B20184670471810002000B583B00190019B3F
S1131B301F2B04D940F27711054801F0D9FC01228A
S1131B40019B02FA03F3184603B05DF804FB00BFDF
S1131B50E43B000000B587B0039002910192029B20
S1131B601F2B03D991210A4801F0C2FC039B03F106
S1131B70424303F58013DA00029B13449B00059350
S1131B80059B019A1A6000BF07B05DF804FB00BF13
S1131B90403C000082B0034B1B680193019B184634
S1131BA002B070472010002000B583B0FFF72AFF71
S1131BB00190074BD3F800311B0A03F01F030133D4
S1131BC0019A02FB03F3184603B05DF804FB00BF5F
S1131BD000400E4000B583B0104800F0ABFE034651
S1131BE08DF803309DF80330072B05D0092B07D15E
S1131BF0FFF708FF01900BE0FFF7CCFF019007E02F
S1131C000023019341F2D661054801F071FC00BF45
S1131C10019B184603B05DF804FB00BF06000E00EC
S1131C20F03C000000B585B00190019B002B03D06F
S1131C30019B012B07D00DE0244800F07BFE0346F6
S1131C408DF80B300DE0224800F074FE03468DF849
S1131C500B3006E041F2F6611E4801F049FC002316
S1131C6030E09DF80B30013B072B22D801A252F83B
S1131C7023F000BF951C0000B31C0000B31C00003F
S1131C80A31C0000B31C0000B31C00009B1C00003C
S1131C90AB1C00000023039313E0FFF77BFF0390CA
S1131CA00FE0FFF723FF03900BE0FFF77DFF0390A6
S1131CB007E00023039341F20D71064801F018FC7C
S1131CC000BF039B184605B05DF804FBB800320062
S1131CD0B9003400F03C000000B583B01C4800F0AB
S1131CE029FE03468DF803309DF80330043B062B90
S1131CF020D801A252F823F01D1D0000151D00007C
S1131D00351D0000251D0000351D0000351D000097
S1131D102D1D00000F4B1B68019313E0FFF7E6FE37
S1131D2001900FE0FFF736FF01900BE00A4B1B68B0
S1131D30019307E00023019341F23771074801F052
S1131D40D7FB00BF019B184603B05DF804FB00BF3E
S1131D500A7B36001C10002024100020F03C0000F8
S1131D6000B585B00190019B002B1DD1204800F0E7
S1131D70E1FD03468DF80B3000BF9DF80B30043BAA
S1131D80062B28D801A252F823F000BFBF1D000083
S1131D90B71D0000D71D0000C71D0000D71D00009F
S1131DA0D71D0000CF1D000041F25271114801F00F
S1131DB09FFB002318E0104B1B68039313E0FFF70D
S1131DC095FE03900FE0FFF7E5FE03900BE00B4B4D
S1131DD01B68039307E00023039341F269710548EC
S1131DE001F086FB00BF039B184605B05DF804FBB9
S1131DF00B7C3800F03C00001C1000202410002054
S1131E0000B583B0244800F095FD03468DF80330F7
S1131E109DF80330023B092B30D801A252F823F07D
S1131E206D1E0000751E0000511E0000651E00009E
S1131E307D1E00007D1E00007D1E00007D1E000032
S1131E40491E0000591E0000144B1B6801931DE03D
S1131E50FFF74CFE019019E0FFF748FE03465B00D4
S1131E60019313E00E4B1B6801930FE0FFF756FE3E
S1131E7001900BE001F034FB019007E00023019393
S1131E804FF4BE51074801F033FB00BF019B1846D5
S1131E9003B05DF804FB00BF0C7F3A00241000205F
S1131EA01C100020F03C000010B584B00190002309
S1131EB00293019B4D4A934219D0019B4B4A934292
S1131EC00FD8019B4A4A934211D0019B484A93423E
S1131ED007D8019B474A934209D0019B464A934243
S1131EE005D041F61311454801F002FB00E000BFA4
S1131EF0019800F01FFD03460393019B3B4A934264
S1131F0029D0019B394A93422CD8019B384A9342E9
S1131F101AD0019B364A934224D8019B354A9342F6
S1131F2004D0019B344A934207D01BE0344BD3F8CE
S1131F30803003F0070303931AE0314BD3F8843065
S1131F4003F00703039313E02D4BD3F88C3003F015
S1131F50070303930CE02A4BD3F8883003F00703FC
S1131F60039305E041F64211244801F0C1FA00BF91
S1131F70039B042B2DD801A252F823F0CD1F00009F
S1131F80911F0000991F0000A91F0000A11F00005D
S1131F9001F0A6FA029024E0FFF7C0FD029020E0D1
S1131FA001F0A2FA02901CE0FFF72CFD0446144B4A
S1131FB0D3F800311B0E03F0030301331846FFF777
S1131FC0B3FD0346B4FBF3F302930AE00023029348
S1131FD007E00023029341F69411084801F088FABF
S1131FE000BF029B184604B010BD00BF05002400CA
S1131FF00400220002001E0003002000F03C000048
S113200000400E4082B00190094BD3F8443103F0F4
S11320100103002B08D100BF054BD3F84021019BDD
S11320201340002BF8D100E000BF02B0704700BF9E
S113203000400E4000B587B001900B468DF8033088
S113204000230493019B1B0A03F00F03013B0E2B97
S113205072D801A252F823F095200000A1200000BC
S113206039210000392100009B200000AD20000030
S1132070B7200000C1200000CD2000003321000063
S1132080D92000000321000039210000A72000000E
S11320902D210000364B059354E0364B059351E057
S11320A0354B05934EE0354B05934BE0344B05938C
S11320B00123049346E0334B05931023049341E03A
S11320C0314B05934FF4807304933BE02F4B0593FE
S11320D04FF48033049335E02D4B05939DF8033082
S11320E0002B14BF01230023DBB283F00103DBB216
S11320F08DF803309DF8033003F001038DF80330AD
S113210020E0244B05939DF80330002B14BF0123DA
S11321100023DBB283F00103DBB28DF803309DF8BA
S1132120033003F001038DF803300BE01A4B0593E1
S113213008E01A4B059305E041F6B051184801F048
S1132140D7F911E0019B1B0B03F01F030393049BBE
S1132150002B02D00498FFF755FF9DF803301A4670
S113216003990598FFF7F6FC07B05DF804FB00BF80
S113217000400E40B0400E40C0400E40C4400E40EF
S1132180E0400E40E8400E40EC400E40F0400E406F
S113219060410E4064410E40F0410E4050410E40FB
S11321A0F03C000010B584B00190019B03F4781357
S11321B0B3F5781F00F01082B3F5781F00F2178290
S11321C0B3F5681F00F00482B3F5681F00F20F82B4
S11321D0B3F5601F00F0F781B3F5601F00F20782CA
S11321E0B3F5581F00F0EB81B3F5581F00F2FF81DF
S11321F0B3F5501F00F0D381B3F5501F00F2F781FF
S1132200B3F5481F00F0BC81B3F5481F00F2EF811D
S1132210B3F5401F00F08E81B3F5401F00F2E78153
S1132220B3F5381F00F04D81B3F5381F00F2DF819C
S1132230B3F5281F00F03281B3F5281F00F2D781CF
S1132240B3F5201F00F08A81B3F5201F00F2CF817F
S1132250B3F5101F00F08781B3F5101F00F2C7819A
S1132260B3F5001F00F03C81B3F5001F00F2BF81FD
S1132270B3F5F01F00F0CB80B3F5F01F00F2B78187
S1132280B3F5E01F00F04381B3F5E01F00F2AF8126
S1132290B3F5D01F00F02981B3F5D01F00F2A78158
S11322A0B3F5C01F00F0E780B3F5C01F00F29F81B3
S11322B0B3F5B01F00F0CD80B3F5B01F00F29781E5
S11322C0B3F5A01F00F0B780B3F5A01F00F28F8113
S11322D0B3F5901F00F0A080B3F5901F00F2878142
S11322E0B3F5801F00F04881B3F5801F00F27F81B1
S11322F0B3F5602F00F03C81B3F5602F00F27781D5
S1132300B3F5402F74D0B3F5402F00F27081B3F5CC
S1132310202F4FD0B3F5202F00F26981B3F5002FA1
S113232039D0B3F5002F00F26281B3F5C02F23D06A
S1132330B3F5C02F00F25B81B3F5802F0DD0B3F558
S1132340802F00F25481002B03D0B3F5003F40D01E
S11323504DE1FFF757FB039051E1FFF753FB039067
S1132360A94BD3F80C311B0AC3F308030133039AB6
S1132370B2FBF3F3039342E1FFF744FB0390A24B58
S1132380D3F818311B0AC3F308030133039AB2FBD1
S1132390F3F3039333E1FFF735FB03909A4BD3F840
S11323A01C311B0AC3F308030133039AB2FBF3F392
S11323B0039324E1FFF726FB0390934BD3F80431F6
S11323C01B0AC3F308030133039AB2FBF3F3039329
S11323D015E1FFF717FB03908B4BD3F808311B0A69
S11323E0C3F308030133039AB2FBF3F3039306E147
S11323F0FFF708FB0390844BD3F814311B0A03F056
S11324001F030133039AB2FBF3F30393F7E07F480E
S1132410FFF74AFD0390F2E07C48FFF745FD039087
S1132420794BD3F820311B0C03F00F03039A22FAE3
S113243003F30393E3E07648FFF736FD0390724B12
S1132440D3F8303103F00303039A22FA03F303931E
S1132450D5E06E48FFF728FD03906B4BD3F820318D
S113246003F00F031846FFF75FFB0246039BB3FB21
S1132470F2F30393C3E06548FFF716FD0390624B44
S1132480D3F820311B0903F00F031846FFF74CFB68
S11324900246039BB3FBF2F30393B0E05B48FFF700
S11324A003FD0390584BD3F820311B0B03F00703B3
S11324B01846FFF739FB0246039BB3FBF2F3039381
S11324C09DE05248FFF7F0FC03904F4BD3F82031C6
S11324D01B0A03F00303039A22FA03F303938EE027
S11324E04C48FFF7E1FC039089E04A48FFF7DCFC25
S11324F00390454BD3F8283103F003031846FFF744
S113250013FB0246039BB3FBF2F3039377E04148CA
S1132510FFF7CAFC03903C4BD3F828311B0903F0A6
S113252003031846FFF700FB0246039BB3FBF2F3D9
S1132530039364E03748FFF7B7FC0390324BD3F8BA
S113254028311B0B03F0030304331846FFF7ECFA9E
S11325500246039BB3FBF2F3039350E02E48FFF7CC
S1132560A3FC03904BE02A48FFF79EFC039046E04F
S1132570FFF730FB039042E0FFF70CFB03903EE0D3
S11325800020FFF74FFB03901F4BD3F85C3103F09F
S113259003030133039AB2FBF3F303932FE0012007
S11325A0FFF740FB0390184BD3F85C311B0C03F08E
S11325B003030133039AB2FBF3F303931FE0FFF722
S11325C08BFB03901BE00020FFF7CAFB039016E08F
S11325D0FFF716FC039012E0FFF714FA0446019883
S11325E000F08FFF0346B4FBF3F3039307E00023EB
S11325F003934FF4F751094800F07AFF00BF039B9F
S1132600184604B010BD00BF00400E4002001E007A
S1132610050024000300200004002200F03C000018
S113262000B585B00190019B1B0903F00F030293D1
S1132630029B013B0B2B00F2538101A252F823F0C1
S1132640712600008126000091260000B1260000BA
S1132650C1260000D1260000E1260000F12600007A
S1132660DD270000672800008F280000D128000023
S1132670A24BD3F800311B0A03F01F03039337E185
S11326809E4BD3F814311B0A03F01F0303932FE16D
S11326909A4BD3F800311B0E03F003030393039BFF
S11326A001331846FFF740FA0346013B03931FE149
S11326B0924BD3F80C311B0AC3F30803039317E1BD
S11326C08E4BD3F818311B0AC3F3080303930FE1AD
S11326D08A4BD3F81C311B0AC3F30803039307E1A5
S11326E0864BD3F808311B0AC3F308030393FFE0B6
S11326F0019B834A934230D0019B814A934264D820
S1132700019B804A934244D0019B7E4A93425CD809
S1132710019B7D4A93423CD0019B7B4A934254D80F
S1132720019B7A4A934226D0019B784A93424CD823
S1132730019B774A93423AD0019B764A934244D113
S11327406E4BD3F8203103F00F0303930398FFF784
S1132750EBF90346013B03933FE0684BD3F8203188
S11327601B0A03F0030303930398FFF7DDF9034601
S1132770013B039331E0614BD3F820311B0903F093
S11327800F0303930398FFF7CFF90346013B039329
S113279023E05A4BD3F820311B0B03F007030393B8
S11327A00398FFF7C1F90346013B039315E0534B2C
S11327B0D3F820311B0C03F00F0303930398FFF7A6
S11327C0B3F90346013B039307E00023039341F667
S11327D05471514800F08CFE00BF89E0019B4F4AC0
S11327E0934227D0019B4D4A934233D8019B4C4AD4
S11327F0934204D0019B4B4A93420DD02AE03F4BB5
S1132800D3F8283103F0030303930398FFF78CF9FB
S11328100346013B039325E0384BD3F828311B09C9
S113282003F0030303930398FFF77EF90346013B88
S1132830039317E0314BD3F828311B0B03F0030348
S11328400393039B04331846FFF76EF90346013BD9
S1132850039307E00023039341F678712E4800F0B8
S113286047FE00BF44E0019B2F4A934206D1234B0D
S1132870D3F8303103F00303039307E000230393F9
S113288041F68771244800F033FE00BF30E0019B1D
S1132890264A934204D0019B254A934207D00EE076
S11328A0164BD3F85C3103F0030303930FE0134B8F
S11328B0D3F85C311B0C03F00303039307E00023FC
S11328C0039341F69F71144800F012FE00BF0FE01D
S11328D00A4BD3F804311B0AC3F30803039307E03C
S11328E00023039341F6AC710B4800F001FE00BFD6
S11328F0039B184605B05DF804FB00BF00400E4082
S113290080262E0000362C0080002A008016180035
S11329108046120080061600F03C0000903730001C
S113292090071A0090171C00A0091400B800320088
S1132930B900340000B585B0019001238DF80F3043
S1132940019B03F00F030293029B013B0B2B00F24C
S1132950B68101A252F823F089290000F32900006E
S1132960312A0000C12A0000832A0000FF2A000047
S1132970BF2C0000292B0000772B0000CB2B00007C
S1132980132C0000612C0000B44BD3F8943003F0F6
S11329900703023B052B27D801A252F823F000BFFE
S11329A0C9290000C1290000B9290000D12900006B
S11329B0E1290000D929000002238DF80F3017E027
S11329C003238DF80F3013E004238DF80F300FE04C
S11329D00D238DF80F300BE00E238DF80F3007E038
S11329E00A238DF80F3003E005238DF80F3000BF64
S11329F075E19A4BD3F8803003F00703042B0ED013
S1132A00042B10D8012B02D0022B04D00BE003239B
S1132A108DF80F300BE002238DF80F3007E00C2304
S1132A208DF80F3003E001238DF80F3000BF56E11D
S1132A308A4BD3F8843003F00703013B032B1BD8E4
S1132A4001A252F823F000BF592A0000612A0000B5
S1132A50712A0000692A000003238DF80F300FE06B
S1132A6002238DF80F300BE00C238DF80F3007E0B4
S1132A7006238DF80F3003E001238DF80F3000BFDB
S1132A802DE1764BD3F8883003F00703042B0ED0E6
S1132A90042B10D8012B02D0022B04D00BE003230B
S1132AA08DF80F300BE002238DF80F3007E00C2374
S1132AB08DF80F3003E001238DF80F3000BF0EE1D5
S1132AC0664BD3F88C3003F00703042B0ED0042B91
S1132AD010D8012B02D0022B04D00BE003238DF875
S1132AE00F300BE002238DF80F3007E00C238DF834
S1132AF00F3003E001238DF80F3000BFEFE0574B98
S1132B001B6F03F00303002B05D0012B07D109230E
S1132B108DF80F3007E007238DF80F3003E0012311
S1132B208DF80F3000BFDAE04C4BD3F85C3103F082
S1132B303003302B16D0302B18D8202B0ED0202B5E
S1132B4014D8002B02D0102B04D00FE001238DF8F1
S1132B500F300FE007238DF80F300BE004238DF8BE
S1132B600F3007E008238DF80F3003E001238DF8C0
S1132B700F3000BFB3E0394BD3F85C3103F440139A
S1132B80B3F5401F1CD0B3F5401F00F2A180B3F58C
S1132B90001F11D0B3F5001F00F29A80002B03D060
S1132BA0B3F5801F04D093E001238DF80F300BE0C0
S1132BB007238DF80F3007E004238DF80F3003E06E
S1132BC008238DF80F3000BF82E0244BD3F8603126
S1132BD003F00303032B7DD801A252F823F000BFB6
S1132BE0F12B0000F92B0000012C0000092C00003F
S1132BF005238DF80F300BE004238DF80F3007E028
S1132C0007238DF80F3003E00A238DF80F3000BF3F
S1132C1060E0124BD3F8643103F00303032B5BD859
S1132C2001A252F823F000BF392C0000412C00000F
S1132C30492C0000512C000005238DF80F300BE0C7
S1132C4004238DF80F3007E007238DF80F3003E0DD
S1132C500A238DF80F3000BF3EE000BF00400E4055
S1132C60224BD3F8F03103F00703052B36D801A229
S1132C7052F823F08D2C0000952C00009D2C0000B0
S1132C80A52C0000AD2C0000B52C00000A238DF803
S1132C900F3013E004238DF80F300FE00B238DF871
S1132CA00F300BE005238DF80F3007E002238DF879
S1132CB00F3003E003238DF80F3000BF0EE0002334
S1132CC08DF80F3042F20131094800F011FC06E0A2
S1132CD000BF04E000BF02E000BF00E000BF9DF8B9
S1132CE00F30184605B05DF804FB00BF00400E40ED
S1132CF0F03C000000B587B003900291019200F00F
S1132D000CFC0590039B002B04D14FF49C710A48E2
S1132D1000F0EEFB039B1A68029BDB431A40019907
S1132D20029B0B401A43039B1A60059800F001FCB8
S1132D3000BF07B05DF804FB483D000000B583B058
S1132D40034600918DF807309DF80730002B39D0E9
S1132D509DF80730012B32D09DF80730022B2BD081
S1132D609DF80730032B24D09DF80730042B1DD089
S1132D709DF80730052B16D09DF80730062B0FD091
S1132D809DF80730072B08D09DF80730082B02D197
S1132D904FF6FF7318E0002316E04FF6FF7313E0BD
S1132DA04FF6FF7310E04FF6FF730DE04FF6FF731D
S1132DB00AE04FF6FF7307E04FF6FF7304E04FF6A7
S1132DC0FF7301E04FF6FF73009AD34003F0010351
S1132DD0002B04D140F201410C4800F089FB9DF81E
S1132DE0072013465B0013441B010C3303F180439B
S1132DF003F508230121009A01FA02F2114618464C
S1132E0000F0AEFB00BF03B05DF804FBA03D000082
S1132E1000B583B0034600918DF807309DF8073064
S1132E20002B39D09DF80730012B32D09DF80730A4
S1132E30022B2BD09DF80730032B24D09DF80730AC
S1132E40042B1DD09DF80730052B16D09DF80730B4
S1132E50062B0FD09DF80730072B08D09DF80730BC
S1132E60082B02D14FF6FF7318E0002316E04FF64B
S1132E70FF7313E04FF6FF7310E04FF6FF730DE09E
S1132E804FF6FF730AE04FF6FF7307E04FF6FF7348
S1132E9004E04FF6FF7301E04FF6FF73009AD3404E
S1132EA003F00103002B04D14FF486610C4800F0B9
S1132EB01FFB9DF8072013465B0013441B010C33D2
S1132EC003F1804303F508230121009A01FA02F279
S1132ED01146184600F037FB00BF03B05DF804FB51
S1132EE0A03D000000B585B0029101920093034615
S1132EF08DF80F309DF80F30002B39D09DF80F302E
S1132F00012B32D09DF80F30022B2BD09DF80F30BF
S1132F10032B24D09DF80F30042B1DD09DF80F30C7
S1132F20052B16D09DF80F30062B0FD09DF80F30CF
S1132F30072B08D09DF80F30082B02D14FF6FF73F2
S1132F4018E0002316E04FF6FF7313E04FF6FF730B
S1132F5010E04FF6FF730DE04FF6FF730AE04FF6F3
S1132F60FF7307E04FF6FF7304E04FF6FF7301E0D1
S1132F704FF6FF73029AD34003F00103002B04D1F0
S1132F804FF4B071324800F0B3FA019B002B0FD01C
S1132F90009B002B06D09DF80F3002991846FFF7CE
S1132FA037FF05E09DF80F3002991846FFF7C6FE7B
S1132FB0029B072B19D89DF80F2013465B0013447E
S1132FC01B01043303F1804303F50823029A9200A2
S1132FD00F2101FA02F0029A9200019901FA02F219
S1132FE001461846FFF786FE1AE09DF80F201346A7
S1132FF05B0013441B01083303F1804303F50823EA
S1133000029A083A92000F2101FA02F0029A083A51
S11330109200019901FA02F201461846FFF76AFE8E
S1133020019B002B0FD1009B002B06D09DF80F3085
S113303002991846FFF7ECFE05E09DF80F3002995F
S11330401846FFF77BFE00BF05B05DF804FB00BF28
S1133050F83D000000B587B0039002910192029BF5
S11330601F2B03D991210A4800F042FA039B03F174
S1133070424303F58013DA00029B13449B0005933B
S1133080059B019A1A6000BF07B05DF804FB00BFFE
S1133090503E000000B587B003900291019200F009
S11330A03CFA0590039B002B04D14FF49C710A4811
S11330B000F01EFA039B1A68029BDB431A40019935
S11330C0029B0B401A43039B1A60059800F031FAE7
S11330D000BF07B05DF804FB503E000000B589B0A6
S11330E00390029101928DF80330019B002B04D1CF
S11330F040F215115F4800F0FBF9019B002B00F032
S1133100B4809DF8033003F003038DF80330039B70
S11331101B6823F44072039B1A6003989DF80330E4
S11331201B021A464FF44071FFF7B4FF029B002BB9
S11331301FD1039B504A934204D15048FFF732F801
S1133140029016E0039B4E4A934204D14D48FFF788
S113315029F802900DE0039B4B4A934204D14B485B
S1133160FFF720F8029004E040F22F11414800F0EC
S1133170BFF94FF0FF330793039B1B6803F002036F
S1133180002B13D09DF80330022B0CD0022B21DC32
S1133190002B02D0012B03D01CE03D4B07931CE015
S11331A03C4B079319E03C4B079316E09DF8033022
S11331B0022B0CD0022B0FDC002B02D0012B03D0EE
S11331C00AE0334B079308E0344B079305E0344B94
S11331D0079302E000BF00E000BF029A079B9A42F7
S11331E004D84FF4B271234800F082F99DF80330FB
S11331F02C4AD35C0593059B019A02FB03F30493C9
S1133200049B002B05D140F275111A4800F070F9A7
S11332102CE0019BDB00029AD21A049B13445A1E31
S1133220049BB2FBF3F3013B0693069B002B04DAE9
S113323040F27B110F4800F05BF9069BB3F5007F69
S113324004D34FF4BE710B4800F052F9039B1B6882
S113325003F00203002B04D0069B002B01D10123B1
S11332600693069A039B1A6100E000BF09B05DF85B
S113327004FB00BFA83E00000090084000120900B3
S11332800094084000220900009808400032090018
S113329080841E00404B4C00809FD5004054890020
S11332A0002D3101003F000000B583B001900B46B2
S11332B08DF80330019B0D4A93420CD0019B0C4ABC
S11332C0934208D0019B0B4A934204D040F29511DB
S11332D0094800F00DF9019B9DF8032000211846D0
S11332E0FFF7B8FE00BF03B05DF804FB0090084090
S11332F00094084000980840A83E000000B583B040
S113330001900091019B1A4A93420CD0019B194AE7
S1133310934208D0019B184A934204D04FF4D571CC
S1133320164800F0E5F8019B00221A64144901983C
S113333000F023F90198009B5B7883F00103DBB272
S11333401A460121FFF786FE009B5968009B9A6884
S1133350009B1B7B0198FFF7C1FE009B1B7819465D
S11333600198FFF7A1FF00BF03B05DF804FB00BFA5
S1133370009008400094084000980840A83E0000CF
S1133380FFFF070008B5064B044613B10021AFF355
S11333900080044B1B6803B19847204600F0ADF849
S11333A0000000004810002070B50D4D0D4C641B4A
S11333B0A4100026A64209D10B4D0C4C00F0F0F8E5
S11333C0641BA4100026A64205D170BD55F8043B29
S11333D098470136EEE755F8043B98470136F2E783
S11333E02810002028100020281000202C10002075
S11333F082B001900B468DF803309DF8033063F0E2
S11334007F03DBB21A46019B9A6500BF02B0704786
S113341082B001900B468DF8033000BF019B1B69FD
S113342003F04003002BF9D09DF80320019B5A635D
S113343000BF02B0704784B001900091019B03F17A
S1133440C0630393039B009A1A6000BF04B07047E3
S113345084B001900091019B03F180630393039B6B
S1133460009A1A6000BF04B0704782B001900091C6
S1133470019B009A5A6100BF02B0704782B001906C
S11334800091019B9A69009B1A43019B9A6100BFBA
S113349002B0704784B001900091019B03F18063F6
S11334A00393039B009A1A6000BF04B0704700B5F1
S11334B083B00190009108E0019B1B7800991846A5
S11334C0FEF7E4F9019B01330193019B1B78002B68
S11334D0F2D100BF00BF03B05DF804FB00BFFDE7FD
S11334E04FF40043184670474FF47A7318467047F8
S11334F082B00190009100BFFDE782B0019000BF4F
S1133500FDE700B583B001900198FFF789F8034601
S11335100133184603B05DF804FB82B0EFF3108367
S11335200093009B019372B600BF019B184602B042
S1133530704782B00190019B002B01D162B600BF9D
S113354000BF02B0704784B001900091019B03F169
S1133550C0630393039B009A1A6000BF04B07047D2
S113356084B001900091019B03F180630393039B5A
S1133570009A1A6000BF04B0704782B001900091B5
S1133580019B009ADA6300BF02B07047024403460D
S1133590934200D1704703F8011BF9E700000000D3
S11335A0F8B500BFF8BC08BC9E467047F8B500BF2C
S11335B0F8BC08BC9E4670470000000000000000F4
S11335C000000000000000000000000000000000F7
S11335D000000000000000000000000000000000E7
S11335E0433A5C55736572735C4A6F6E61746861CB
S11335F06E53746F7265795C53696D706C6963693D
S1133600747953747564696F5C76355F776F726B28
S113361073706163655C4E4156434F4D5F46756EF2
S11336206374696F6E616C6974795F5465737469EE
S11336306E672F656D5F74696D65722E680000009A
S1133640433A2F55736572732F4A6F6E61746861C4
S11336506E53746F7265792F53696D706C69636909
S1133660747953747564696F2F53444B732F676572
S1133670636B6F5F73646B5F322F706C6174666F22
S1133680726D2F656D6C69622F7372632F656D5F48
S113369074696D65722E6300433A2F5573657273B6
S11336A02F4A6F6E617468616E53746F7265792FFF
S11336B053696D706C696369747953747564696F67
S11336C02F53444B732F6765636B6F5F73646B5F3A
S11336D0322F706C6174666F726D2F656D6C6962E8
S11336E02F7372632F656D5F75736172742E63003F
S11336F0633A5C75736572735C6A6F6E617468615A
S11337006E73746F7265795C73696D706C696369EB
S1133710747973747564696F5C73646B735C6765E7
S1133720636B6F5F73646B5F325C706C6174666F44
S1133730726D5C656D6C69625C696E635C656D5F1E
S11337406770696F2E680000457870616E646572F9
S1133750204120456E61626C65640A0D0000000022
S1133760457870616E646572204120536875746495
S11337706F776E0A0D000000457870616E646572A3
S1133780204220456E61626C65640A0D00000000F1
S1133790457870616E646572204220536875746464
S11337A06F776E0A0D000000457870616E64657273
S11337B0204320456E61626C65640A0D00000000C0
S11337C0457870616E646572204320536875746433
S11337D06F776E0A0D000000456E6574205377699B
S11337E074636820456E61626C6564200A0D000094
S11337F0456E6574207377697463682053687574C3
S1133800646F776E200A0D00525332333220412008
S1133810456E61626C65640A0D00000052533233D8
S1133820322044697361626C65640A0D0000000013
S11338305253323332204220456E61626C65640A11
S11338400D00000052533233322042204469736128
S1133850626C65640A0D00004643505520456E6154
S1133860626C6564200A0D00464350552053687508
S113387074646F776E200A0D0000000046435055B3
S11338802053687574646F776E202D2062757420E0
S1133890736F6D657468696E672077656E742077E1
S11338A0726F6E670A0D0000332E3356205265671F
S11338B020456E61626C65640A0D0000332E335638
S11338C0205265672053687574646F776E0A0D0023
S11338D045746865726E6574205265736574206101
S11338E06374697665200A0D0000000045746865FC
S11338F0726E6574207265736574202064656163FB
S11339007469766561746564200A0D0053444153FB
S113391020526573657420616374697665200A0DAD
S11339200000000053444153206465616374697668
S11339306561746564200A0D000000005044454D23
S113394020526573657420616374697665200A0D7D
S1133950000000005044454D20646561637469763D
S11339606561746564200A0D0000000046435055EB
S1133970207265736574206465616374697665613A
S1133980746564200A0D0000494D55205265736525
S11339907420616374697665200A0D00494D5520D1
S11339A072657365742064656163746976656174B6
S11339B06564200A0D000000416E74656E6E61201E
S11339C0526573657420616374697665200A0D001D
S11339D0416E74656E6E61207265736574206465F2
S11339E061637469766561746564200A0D00000082
S11339F00D0A3520566F6C74206973203A2009092A
S1133A00000000000D0A3320566F6C742069732087
S1133A103A200909000000000D0A525332333220C3
S1133A2041206973203A2009090000000D0A52530D
S1133A303233322042206973203A20090900000001
S1133A400D0A45746865726E6574206973203A20A6
S1133A50090900000D0A457870616E64657273206F
S1133A6041206973203A2009000000000D0A4578BE
S1133A7070616E646572732042206973203A200974
S1133A80000000000D0A457870616E646572732051
S1133A9043206973203A2009000000001B5B324A6E
S1133AA00000000030313233343536373839414282
S1133AB0434445460000000068656C6C6F206672E4
S1133AC06F6D204E6F6465200A0D000068656C6C94
S1133AD06F2066726F6D20494D55200A0D0000005D
S1133AE068656C6C6F2066726F6D205044454D2084
S1133AF00A0D000068656C6C6F2066726F6D205350
S1133B00444153200A0D000068656C6C6F20667296
S1133B106F6D205468727573746572200A0D00000D
S1133B2068656C6C6F2066726F6D2046435055203B
S1133B300A0D000068656C6C6F2066726F6D20550D
S1133B4053424C200A0D00002E2E2F656D5F7469C0
S1133B506D65722E68000000010100000000000085
S1133B6060670100000000004E414B0A0D00000098
S1133B70633A5C75736572735C6A6F6E61746861D5
S1133B806E73746F7265795C73696D706C69636967
S1133B90747973747564696F5C73646B735C676563
S1133BA0636B6F5F73646B5F325C706C6174666FC0
S1133BB0726D5C656D6C69625C696E635C656D5F9A
S1133BC06770696F2E6800000500000000000000A7
S1133BD000C2010000050000001000000000000009
S1133BE000000000633A5C75736572735C6A6F6E03
S1133BF0617468616E73746F7265795C73696D70FA
S1133C006C696369747973747564696F5C73646BEC
S1133C10735C6765636B6F5F73646B5F325C706C5E
S1133C206174666F726D5C636F6D6D6F6E5C696EEF
S1133C30635C736C5F636F6D6D6F6E2E6800000064
S1133C40633A5C75736572735C6A6F6E6174686104
S1133C506E73746F7265795C73696D706C69636996
S1133C60747973747564696F5C73646B735C676592
S1133C70636B6F5F73646B5F325C706C6174666FEF
S1133C80726D5C656D6C69625C696E635C656D5FC9
S1133C906275732E68000000633A5C757365727315
S1133CA05C6A6F6E617468616E73746F7265795C5F
S1133CB073696D706C696369747973747564696F21
S1133CC05C73646B735C6765636B6F5F73646B5F7A
S1133CD0325C706C6174666F726D5C656D6C696288
S1133CE05C696E635C656D5F636D752E68000000D2
S1133CF0433A2F55736572732F4A6F6E617468610E
S1133D006E53746F7265792F53696D706C69636952
S1133D10747953747564696F2F53444B732F6765BB
S1133D20636B6F5F73646B5F322F706C6174666F6B
S1133D30726D2F656D6C69622F7372632F656D5F91
S1133D40636D752E63000000633A5C75736572736E
S1133D505C6A6F6E617468616E73746F7265795CAE
S1133D6073696D706C696369747973747564696F70
S1133D705C73646B735C6765636B6F5F73646B5FC9
S1133D80325C706C6174666F726D5C656D6C6962D7
S1133D905C696E635C656D5F6275732E680000001C
S1133DA0633A5C75736572735C6A6F6E61746861A3
S1133DB06E73746F7265795C73696D706C69636935
S1133DC0747973747564696F5C73646B735C676531
S1133DD0636B6F5F73646B5F325C706C6174666F8E
S1133DE0726D5C656D6C69625C696E635C656D5F68
S1133DF06770696F2E680000433A2F5573657273BC
S1133E002F4A6F6E617468616E53746F7265792F97
S1133E1053696D706C696369747953747564696FFF
S1133E202F53444B732F6765636B6F5F73646B5FD2
S1133E30322F706C6174666F726D2F656D6C696280
S1133E402F7372632F656D5F6770696F2E63000057
S1133E50633A5C75736572735C6A6F6E61746861F2
S1133E606E73746F7265795C73696D706C69636984
S1133E70747973747564696F5C73646B735C676580
S1133E80636B6F5F73646B5F325C706C6174666FDD
S1133E90726D5C656D6C69625C696E635C656D5FB7
S1133EA06275732E68000000433A2F557365727370
S1133EB02F4A6F6E617468616E53746F7265792FE7
S1133EC053696D706C696369747953747564696F4F
S1133ED02F53444B732F6765636B6F5F73646B5F22
S1133EE0322F706C6174666F726D2F656D6C6962D0
S1133EF02F7372632F656D5F6932632E6300000058
S1073F00080911088F
S10B3F04E0C2FF7F0100000090
S10F3F0C183F0000001000200C00000012
S1133F183000000030303030303030303030303025
S1133F283030300080F0FA0200800000C0EA21013D
S1133F38C0EA2101006CDC02C10100009901000003
S903196D76
