S02300004E4156434F4D5F46756E6374696F6E616C6974795F54657374696E672E73333708
S113000000100020D51600005D2F00005D2F0000B9
S11300105D2F00005D2F00005D2F00005D2F0000AC
S11300205D2F00005D2F00005D2F00005D2F00009C
S11300305D2F00005D2F00005D2F00005D2F00008C
S11300405D2F00005D2F00005D2F00005D2F00007C
S11300505D2F0000D90800005D2F00005D2F000017
S11300605D2F00005D2F00005D2F000011090000CE
S11300705D2F00005D2F0000F50800005D2F0000DB
S11300805D2F00005D2F00005D2F00005D2F00003C
S11300905D2F00005D2F00005D2F00005D2F00002C
S11300A05D2F00005D2F00005D2F00005D2F00001C
S11300B05D2F00005D2F00005D2F00005D2F00000C
S11300C05D2F00005D2F00005D2F00005D2F0000FC
S11300D05D2F00005D2F00005D2F00005D2F0000EC
S11300E05D2F00005D2F00005D2F00005D2F0000DC
S11300F05D2F00005D2F00005D2F00005D2F0000CC
S11301005D2F00005D2F00005D2F00005D2F0000BB
S11301105D2F00005D2F00005D2F00005D2F0000AB
S11301205D2F00005D2F00005D2F00005D2F00009B
S11301305D2F00005D2F00005D2F00005D2F00008B
S11301405D2F00005D2F00005D2F00005D2F00007B
S113015000000000000000000348044B834202D06A
S1130160034B03B1184770472C1000202C100020BB
S1130170000000000548064B1B1AD90F01EBA30130
S1130180491002D0034B03B1184770472C100020CC
S11301902C1000200000000010B5064C237843B951
S11301A0FFF7DAFF044B13B10448AFF300800123D7
S11301B0237010BD5410002000000000F43800002B
S11301C008B5054B1BB105490548AFF30080BDE8F0
S11301D00840FFF7CFBF00BF000000002C10002034
S11301E0F4380000A3F5803A704700BF174B002B8A
S11301F008BF134B9D46FFF7F5FF00218B460F46C2
S11302001348144A121A02F0F8FE0E4B002B00D0C9
S113021098470D4B002B00D0984700200021040084
S11302200D000D48002802D00C48AFF3008002F006
S1130230D7FD2000290000F0FBFD02F0BFFD00BF48
S11302400000080000000000000000000010002072
S11302502C1000205C1000200000000000000000B2
S113026082B00190019B1A4A934227D0019B194AFC
S1130270934223D0019B184A93421FD0019B174AF3
S113028093421BD0019B164A934217D0019B154AF7
S1130290934213D0019B144A93420FD0019B134AFB
S11302A093420BD0019B124A934207D0019B114AFF
S11302B0934203D0019B104A934201D1012300E0F1
S11302C0002303F00103DBB2184602B0704700BFFD
S11302D0008001400084014000880140008C0140FE
S11302E000900140009401400098014000A00140AA
S11302F000A4014000A8014000AC014000B585B055
S1130300019000910198FFF7ABFF0346002B03D146
S1130310B421404802F02CFE00230393009B1B7879
S113032083F00103DBB2002B02D0019B02225A604E
S1130330019B00225A62009B9B781A06009BDB7883
S11303401B041A43009BDB799B021A43009B1B7A14
S11303501B021343009A527A1343009A5278002ADC
S113036001D0402200E000221343009A927A002A2E
S113037001D0802200E000221343009AD27A002A9E
S113038001D0202200E000221343009A127B002AAD
S113039001D0102200E000221343009A927B002A2D
S11303A002D04FF4804200E000221343009A527BB3
S11303B0002A01D0082200E0002213430393009B8B
S11303C01B79002B02D04FF4005200E00022009B66
S11303D05B79002B02D04FF0805300E000231343DD
S11303E0009A9279002A02D04FF0005200E00022D5
S11303F01343039A13430393019B039A1A60009BCC
S11304001B78002B02D0019B01225A6000BF05B06B
S11304105DF804FBC030000000B587B00390029182
S113042001928DF8033000230593019B002B04D126
S113043040F255114C4802F09BFD029B002B0CD15D
S1130440039B4A4A934204D1494801F05FFD02905C
S113045003E0484801F05AFD02909DF80330602BF8
S113046034D0602B3FDC402B20D0402B3BDC002BD6
S113047002D0202B0DD036E0029B1B09019A9A4230
S113048004D940F28711384802F072FD1023059315
S11304902FE0029BDB08019A9A4204D94FF4C671FB
S11304A0314802F065FD0823059322E0029B324A9D
S11304B0A2FB03239B08019A9A4204D940F29111AA
S11304C0294802F055FD0623059312E0029B9B0880
S11304D0019A9A4204D94FF4CB71234802F048FDA3
S11304E00423059305E04FF4CE711F4802F040FD4C
S11304F000BF059B002B33D0029B5A01059B019939
S113050001FB03F35B0813440493059B019A02FB6C
S113051003F3049AB2FBF3F30493049B203B049388
S1130520049BDB000493049B144A934204D940F2D5
S1130530B3110D4802F01CFD049A104B13400493B0
S1130540039B1B6823F06002039B1A60039B1A68D9
S11305509DF803301A43039B1A60039B049A5A6163
S113056000BF07B05DF804FB18310000000801402B
S11305705041070040410500ABAAAAAAF8FF7F003A
S113058000B583B001900091019B434A934220D06F
S1130590019B424A93421CD0019B414A934218D08A
S11305A0019B404A934214D0019B3F4A934210D08E
S11305B0019B3E4A93420CD0019B3D4A934208D092
S11305C0019B3C4A934204D040F215313A4802F070
S11305D0CFFC019800F072F8009B9B7C002B05D0A7
S11305E0019B1B6843F08042019B1A60009BDB7CEB
S11305F0002B05D0009B1B7D1946019802F014FCCA
S1130600009B5B7B1A46009B1B8A1343009AD2898A
S11306101A43019B5A60009B5968009B9A68009B8F
S11306201B7B0198FFF7F8FE009B5B7D002B05D038
S1130630019B1B6843F48032019B1A60009B9B7DE5
S1130640002B05D0019B1B6843F40042019B1A60F8
S1130650009BDB7D1B0703F0E042009B1B7E1B0518
S113066003F4E0031A43019B1A66019B5B6F23F0BA
S11306703002019B5A67019B5B6F009A527E1A43BA
S1130680019B5A67009B1B781A46019BDA6000BFE6
S113069003B05DF804FB00BF00000140000401400A
S11306A000080140000C014000100140001401400A
S11306B000400140004401401831000000B583B0FF
S11306C00190019B334A934220D0019B324A9342CA
S11306D01CD0019B314A934218D0019B304A93426B
S11306E014D0019B2F4A934210D0019B2E4A93426F
S11306F00CD0019B2D4A934208D0019B2C4A934273
S113070004D040F25E412B4802F032FC019B40F6DB
S1130710AA62DA60019B00221A60019B41F2050281
S11307205A60019B00229A60019B00225A61019B3E
S11307300022DA64019B204A9A64019B00221A6613
S1130740019B00225A67019B00229A67019B0022A9
S1130750DA67019B0F4A934203D0019B0F4A9342ED
S113076002D1019B00221A65019B00229A65019B1C
S1130770094A934207D0019B094A934203D0019B43
S1130780084A934202D1019B0022DA6500BF03B0FC
S11307905DF804FB00000140000401400008014032
S11307A0000C0140001001400014014000400140D1
S11307B00044014018310000F9FF010082B00346F3
S11307C08DF807309DF90730002B0CDB9DF80730BE
S11307D003F01F0205499DF907305B09012000FA67
S11307E002F241F8232000BF02B0704700E100E0AC
S11307F082B00190019B0B4A93420BD0019B0A4AA1
S1130800934207D0019B094A934203D0019B084AB3
S1130810934202D14FF0FF3301E04FF6FF731846C5
S113082002B0704700A0014000A4014000A80140AC
S113083000AC014000B583B0019000910198FFF72E
S1130840D7FF0246009B934204D940F2BC410548BD
S113085002F08EFB019B009ADA6100BF03B05DF8E1
S113086004FB00BF7031000000B587B001AB00226B
S11308701A605A609A60C3F80B2001238DF8043083
S113088000238DF804300A238DF8063001AB194695
S11308900E48FFF733FD0E4801F038FB03469DF880
S11308A00620D3400B4AA2FB03235B0B0593059957
S11308B00648FFF7BFFF0121044802F0F0FA0520C3
S11308C0FFF77CFF00BF07B05DF804FB0080014028
S11308D0000206005917B7D108B50121034802F0F8
S11308E0D5FA034B01221A7000BF08BD00800140F5
S11308F05510002008B50121034802F0C7FA034B44
S113090001221A7000BF08BD008401405610002067
S113091000B583B01D4B5B6B0193019B03F0040393
S1130920002B0CD01A4B01221A70184BDB69194B9F
S113093000221A700421154802F0BDFA12E0019B4E
S113094003F02003002B0DD0104BD969114B1B78F9
S11309501A46C9B2104B99540E4B1B780133DAB2C4
S11309600C4B1A70019B03F48033002B0AD04FF414
S11309708031064802F09FFA054B00221A70054B9D
S113098000221A7000BF03B05DF804FB0090084019
S113099058100020571000204410002000B583B0E8
S11309A0034600918DF807309DF80730002B39D0AD
S11309B09DF80730012B32D09DF80730022B2BD045
S11309C09DF80730032B24D09DF80730042B1DD04D
S11309D09DF80730052B16D09DF80730062B0FD055
S11309E09DF80730072B08D09DF80730082B02D15B
S11309F04FF6FF7318E0002316E04FF6FF7313E081
S1130A004FF6FF7310E04FF6FF730DE04FF6FF73E0
S1130A100AE04FF6FF7307E04FF6FF7304E04FF66A
S1130A20FF7301E04FF6FF73009AD34003F0010314
S1130A30002B04D140F201410C4802F099FA9DF8D0
S1130A40072013465B0013441B010C3303F180435E
S1130A5003F508230121009A01FA02F2114618460F
S1130A6002F03FFA00BF03B05DF804FB80310000E0
S1130A7000B583B0034600918DF807309DF8073028
S1130A80002B39D09DF80730012B32D09DF8073068
S1130A90022B2BD09DF80730032B24D09DF8073070
S1130AA0042B1DD09DF80730052B16D09DF8073078
S1130AB0062B0FD09DF80730072B08D09DF8073080
S1130AC0082B02D14FF6FF7318E0002316E04FF60F
S1130AD0FF7313E04FF6FF7310E04FF6FF730DE062
S1130AE04FF6FF730AE04FF6FF7307E04FF6FF730C
S1130AF004E04FF6FF7301E04FF6FF73009AD34012
S1130B0003F00103002B04D14FF486610C4802F07A
S1130B102FFA9DF8072013465B0013441B010C3386
S1130B2003F1804303F508230121009A01FA02F23C
S1130B301146184602F0C8F900BF03B05DF804FB83
S1130B40803100004FF0804301225A64164BD3F8E1
S1130B50B030154A43F00103C2F8B030124BD3F859
S1130B60E030114A43F00803C2F8E0300F4B1B6831
S1130B700E4A43F4805313600B4BD3F8E0300A4A17
S1130B8023F00803C2F8E030074BD3F8B030064A2C
S1130B9023F00103C2F8B030054B1B68044A43F448
S1130BA0F843136000BF704700400E4034400540D6
S1130BB0A4310E4008B5FFF7C5FF0121914801F0AB
S1130BC0EDF80121904801F0E9F801218F4801F086
S1130BD0E5F801218E4801F0E1F801218D4801F08A
S1130BE0DDF801218C4801F0D9F801218B4801F08E
S1130BF0D5F801218A4801F0D1F80121894801F092
S1130C00CDF80121884801F0C9F80121874801F095
S1130C10C5F8002301220A21022002F017F801235B
S1130C2004220B21022002F011F8012304220821DE
S1130C30022002F00BF8002301220121032002F01C
S1130C4005F8012304220021032001F0FFFF002303
S1130C5001220121052001F0F9FF012304220021D2
S1130C60052001F0F3FF012304220521052001F0F2
S1130C70EDFF002301220721042001F0E7FF0123F7
S1130C8004220621042001F0E1FF012304220421AF
S1130C90042001F0DBFF002301220821012001F0E0
S1130CA0D5FF012304220721012001F0CFFF0123F6
S1130CB004220421022001F0C9FF002301220121A2
S1130CC0012001F0C3FF012304220621002001F0CA
S1130CD0BDFF002301220121042001F0B7FF0123FD
S1130CE004220021042001F0B1FF0023012203218A
S1130CF0042001F0ABFF012304220221042001F0AF
S1130D00A5FF012304220421002001F09FFF0421F8
S1130D100020FFF743FE012304220521002001F0F7
S1130D2095FF05210020FFF739FE0123042202214B
S1130D30022001F08BFF02210220FFF72FFE012386
S1130D4004220221012001F081FF02210120FFF78A
S1130D5025FE012304220F21002001F077FF0F213B
S1130D600020FFF71BFE012304220A21042001F0C6
S1130D706DFF0A210420FFF711FE01230422022142
S1130D80032001F063FF02210320FFF707FE012384
S1130D9004220321032001F059FF03210320FFF75C
S1130DA0FDFD012304220421032001F04FFF04214F
S1130DB00320FFF7F3FD0F210020FFF759FE022166
S1130DC00120FFF755FE04210020FFF751FE052105
S1130DD00020FFF74DFE02210320FFF7DFFD032172
S1130DE00320FFF7DBFD04210320FFF7D7FD0A21D1
S1130DF00420FFF7D3FDFFF737FD00F069FB00BFC8
S1130E0008BD00BF4041050000550A00001209005A
S1130E1000720400008204000092060000A2040094
S1130E2000B2040000C20400004E0400005E04008E
S1130E3000B583B000238DF80730FFF7BBFE022115
S1130E40974802F05BF80221964802F057F8022115
S1130E50954802F053F80221944802F04FF8022119
S1130E60934802F04BF80221924802F047F802211D
S1130E70914802F043F802218D4802F03FF8022124
S1130E808E4802F03BF802218D4802F037F8022127
S1130E90874802F033F802218A4802F02FF8022131
S1130EA0894802F02BF80221814802F027F8022138
S1130EB0864802F023F80221854802F01FF8022137
S1130EC07B4802F01BF80221824802F017F8022145
S1130ED0814802F013F80221754802F00FF802214C
S1130EE07E4802F00BF802217D4802F007F8022147
S1130EF06F4802F003F802217A4801F0FFFF022153
S1130F00794801F0FBFF0221694801F0F7FF7748B7
S1130F1002F00BF803468DF807309DF80730313B9B
S1130F20362B00F2B18001A252F823F00910000020
S1130F3011100000191000002110000029100000F9
S1130F403110000039100000411000004910000069
S1130F508910000089100000891000008910000029
S1130F608910000089100000891000008910000019
S1130F708910000089100000891000008910000009
S1130F8089100000891000008910000089100000F9
S1130F9089100000891000008910000089100000E9
S1130FA089100000891000008910000089100000D9
S1130FB089100000891000008910000089100000C9
S1130FC089100000891000008910000089100000B9
S1130FD089100000891000008910000089100000A9
S1130FE089100000891000008910000051100000D1
S1130FF05910000061100000691000007110000019
S11310007910000081100000002000F087F93FE013
S1131010012000F083F93BE0002000F0BBF937E049
S1131020012000F0B7F933E0002000F01BF92FE0B5
S1131030012000F017F92BE0002000F041F927E02F
S1131040012000F03DF923E0002000F0DDF81FE06E
S1131050012000F0D9F81BE0002000F04BF817E065
S1131060012000F047F813E0002000F071F80FE0D1
S1131070012000F06DF80BE0002000F097F807E085
S1131080012000F093F803E00221194801F036FF33
S113109000238DF8073000F011FA00F0A9F9CEE62C
S11310A0D8310000F431000014320000283200006E
S11310B03832000054320000643200007432000000
S11310C0883200009C320000B0320000C4320000BC
S11310D0E0320000FC320000143300002C33000026
S11310E0443300005C330000743300000008014006
S11310F08C33000000B583B003468DF807309DF8AB
S11311000730002B02D0012B0CD017E00221032062
S1131110FFF7AEFC02210B4801F0F0FE0A4B31222E
S1131120DA720BE002210320FFF738FC02210748A2
S113113001F0E4FE044B3022DA7200BF00BF03B0BA
S11311405DF804FBA033000000100020B833000059
S113115000B583B003468DF807309DF80730002BA7
S113116002D0012B0CD017E003210320FFF780FCF1
S113117002210B4801F0C2FE0A4B31221A730BE024
S113118003210320FFF70AFC0221074801F0B6FE01
S1131190044B30221A7300BF00BF03B05DF804FB98
S11311A0D033000000100020E833000000B583B005
S11311B003468DF807309DF80730002B02D0012B31
S11311C00CD017E004210320FFF752FC02210B4846
S11311D001F094FE0A4B31225A730BE004210320E0
S11311E0FFF7DCFB0221074801F088FE044B3022A4
S11311F05A7300BF00BF03B05DF804FB0034000065
S1131200001000201834000000B583B003468DF8A8
S113121007309DF80730002B02D0012B0CD017E0CB
S11312200A210420FFF724FC02210B4801F066FE8A
S11312300A4B31221A710BE00A210420FFF7AEFB9E
S11312400221074801F05AFE044B30221A7100BFF4
S113125000BF03B05DF804FB303400000010002030
S11312604834000000B583B003468DF807309DF87C
S11312700730002B02D0012B0CD017E004210020F2
S1131280FFF7F6FB02210B4801F038FE0A4B31222E
S11312905A720BE004210020FFF780FB022107486B
S11312A001F02CFE044B30225A7200BF00BF03B081
S11312B05DF804FB6034000000100020743400006A
S11312C000B583B003468DF807309DF80730002B36
S11312D002D0012B0CD017E005210020FFF7C8FB3A
S11312E002210B4801F00AFE0A4B31229A720BE0EC
S11312F005210020FFF752FB0221074801F0FEFD03
S1131300044B30229A7200BF00BF03B05DF804FBA7
S113131088340000001000209C34000000B583B025
S113132003468DF807309DF80730002B02D0012BBF
S11313300CD017E00F210020FFF79AFB022111487F
S113134001F0DCFD104B31225A7117E00F2100200F
S1131350FFF724FB02210D4801F0D0FD0A4B302297
S11313605A710BE00F210020FFF718FB02210848F7
S113137001F0C4FD044B30225A7100BF00BF03B01A
S11313805DF804FBB034000000100020C0340000FD
S1131390D434000000B583B003468DF807309DF8BF
S11313A00730002B02D0012B0CD017E002210120C2
S11313B0FFF75EFB02210B4801F0A0FD0A4B31222E
S11313C09A710BE002210120FFF7E8FA0221074895
S11313D001F094FD044B30229A7100BF00BF03B0AA
S11313E05DF804FB003500000010002014350000F7
S11313F008B50221284801F081FD284B5B790221C0
S1131400184600F0F7F80221254801F077FD234B38
S11314109B790221184600F0EDF80221214801F0E1
S11314206DFD1E4B5B7A0221184600F0E3F80221A1
S11314301D4801F063FD194B9B7A0221184600F008
S1131440D9F80221194801F059FD144B1B790221E6
S1131450184600F0CFF80221154801F04FFD0F4B5C
S1131460DB7A0221184600F0C5F80221114801F088
S113147045FD0A4B1B7B0221184600F0BBF80221F4
S11314800D4801F03BFD054B5B7B0221184600F043
S1131490B1F800BF08BD00BF2835000000100020CF
S11314A03C350000503500006435000078350000FC
S11314B08C350000A4350000BC35000008B50221BD
S11314C0024801F01BFD00BF08BD00BFD435000079
S11314D030B589B03E4B01AC1D460FCD0FC495E825
S11314E0070084E8070001AB19463A48FFF748F8BB
S11314F0384B40F202229A67364B5B6F354A43F011
S11315000303536701AB19463348FFF739F8324BED
S113151040F201129A67304B5B6F2F4A43F003038A
S1131520536701AB19462D48FFF72AF82B4B40F2BD
S113153005529A67294B5B6F284A43F003035367AC
S113154001AB19462648FFF71BF8254B40F2011260
S11315509A67234B5B6F224A43F00303536701AB43
S113156019462048FFF70CF81E4B00229A671D4BC2
S11315705B6F1C4A43F00303536701AB19461A48D7
S1131580FEF7FEFF184B4FF481729A67164B5B6FA0
S1131590154A43F00303536701AB19461348FEF79A
S11315A0EFFF124B40F201129A67104B03225A6765
S11315B001AB19460E48FEF7E3FF0D4B40F2033230
S11315C09A670B4B03225A6700BF09B030BD00BFB6
S11315D06C36000000000140000401400008014096
S11315E0000C014000100140001401400040014083
S11315F00044014000B583B0034600918DF80730E4
S1131600009B072B4AD801A252F823F02D160000A4
S11316103B1600004916000057160000651600002E
S113162073160000811600008F1600009DF8073025
S11316301946204801F017FC37E09DF80730194699
S11316401D4801F010FC30E09DF8073019461B4896
S113165001F009FC29E09DF807301946184801F00B
S113166002FC22E09DF807301946164801F0FBFB06
S11316701BE09DF807301946134801F0F4FB14E011
S11316809DF807301946114801F0EDFB0DE09DF877
S1131690073019460E4801F0E6FB06E09DF80730D6
S11316A01946064801F0DFFB00BF00BF03B05DF838
S11316B004FB00BF00000140000401400008014099
S11316C0000C0140001001400014014000400140A2
S11316D00044014000B585B000F0C2F81F4B0393ED
S11316E019E0002302930EE0039B1A68029B9B00FF
S11316F01A44039B5968029B9B000B4412681A60AE
S1131700029B01330293039B9B68029A9A42EBD398
S1131710039B0C330393039B114A9342E1D3114B74
S1131720019314E00023009309E0019B1A68009BD5
S11317309B00134400221A60009B01330093019B19
S11317405B68009A9A42F0D3019B08330193019B92
S1131750054A9342E6D3FEF749FD00BFFC3800007A
S113176008390000083900000839000082B0314B04
S1131770D3F8943003F00703023B042B49D801A2A9
S113178052F823F0A9170000A117000099170000D0
S113179009180000B1170000274B1B6801933CE0B7
S11317A04FF40043019338E0244B1B68019334E069
S11317B0204B9B681B0C03F01F03073B072B1FD810
S11317C001A252F823F000BFE9170000011800003D
S11317D00118000001180000EF17000001180000B4
S11317E0F5170000FB170000154B01930BE0154B98
S11317F0019308E0144B019305E0144B019302E0BC
S11318000023019300BF08E0114B1B685B080193A0
S113181003E00F4B1B68019300BF064BD3F8003164
S11318201B0A03F01F030133019AB2FBF3F31846BA
S113183002B0704700400E40141000201010002029
S11318400024F4000048E801006CDC0280F0FA0295
S113185018100020014B1B68184670471010002018
S1131860064B074A9A60054BD3F88830034A43F481
S11318707003C2F8883000BF704700BF00ED00E07D
S113188000000000014B1B6818467047141000202C
S113189000B583B00190019B1F2B04D940F277114E
S11318A0054801F065FB0122019B02FA03F3184687
S11318B003B05DF804FB00BF8836000000B587B0B4
S11318C0039002910192029B1F2B03D991210A4894
S11318D001F04EFB039B03F1424303F58013DA004E
S11318E0029B13449B000593059B019A1A6000BF59
S11318F007B05DF804FB00BFE436000082B0034B80
S11319001B680193019B184602B070471C1000200D
S113191000B583B0FFF72AFF0190074BD3F80031DD
S11319201B0A03F01F030133019A02FB03F3184659
S113193003B05DF804FB00BF00400E4000B583B067
S1131940104800F0ABFE03468DF803309DF80330D9
S1131950072B05D0092B07D1FFF708FF01900BE0F7
S1131960FFF7CCFF019007E00023019341F2D66119
S1131970054801F0FDFA00BF019B184603B05DF86D
S113198004FB00BF06000E009437000000B585B0CC
S11319900190019B002B03D0019B012B07D00DE08C
S11319A0244800F07BFE03468DF80B300DE02248FE
S11319B000F074FE03468DF80B3006E041F2F66148
S11319C01E4801F0D5FA002330E09DF80B30013BAE
S11319D0072B22D801A252F823F000BFFD19000002
S11319E01B1A00001B1A00000B1A00001B1A00002F
S11319F01B1A0000031A0000131A000000230393AB
S1131A0013E0FFF77BFF03900FE0FFF723FF039042
S1131A100BE0FFF77DFF039007E00023039341F2FF
S1131A200D71064801F0A4FA00BF039B184605B0E7
S1131A305DF804FBB8003200B900340094370000AC
S1131A4000B583B01C4800F029FE03468DF803302E
S1131A509DF80330043B062B20D801A252F823F052
S1131A60851A00007D1A00009D1A00008D1A0000DE
S1131A709D1A00009D1A0000951A00000F4B1B6868
S1131A80019313E0FFF7E6FE01900FE0FFF736FF46
S1131A9001900BE00A4B1B68019307E000230193BC
S1131AA041F23771074801F063FA00BF019B184601
S1131AB003B05DF804FB00BF0A7B36001810002059
S1131AC0201000209437000000B585B00190019BE0
S1131AD0002B1DD1204800F0E1FD03468DF80B30AA
S1131AE000BF9DF80B30043B062B28D801A252F806
S1131AF023F000BF271B00001F1B00003F1B00003A
S1131B002F1B00003F1B00003F1B0000371B000081
S1131B1041F25271114801F02BFA002318E0104BE6
S1131B201B68039313E0FFF795FE03900FE0FFF7A4
S1131B30E5FE03900BE00B4B1B68039307E00023C7
S1131B40039341F26971054801F012FA00BF039B47
S1131B50184605B05DF804FB0B7C38009437000090
S1131B60181000202010002000B583B0244800F095
S1131B7095FD03468DF803309DF80330023B092B95
S1131B8030D801A252F823F0D51B0000DD1B000061
S1131B90B91B0000CD1B0000E51B0000E51B000085
S1131BA0E51B0000E51B0000B11B0000C11B000089
S1131BB0144B1B6801931DE0FFF74CFE019019E0E4
S1131BC0FFF748FE03465B00019313E00E4B1B68CE
S1131BD001930FE0FFF756FE01900BE001F0C0F90E
S1131BE0019007E0002301934FF4BE51074801F030
S1131BF0BFF900BF019B184603B05DF804FB00BFAA
S1131C000C7F3A00201000201810002094370000A8
S1131C1010B584B0019000230293019B4D4A934276
S1131C2019D0019B4B4A93420FD8019B4A4A9342D5
S1131C3011D0019B484A934207D8019B474A9342DB
S1131C4009D0019B464A934205D041F613114548F9
S1131C5001F08EF900E000BF019800F01FFD03467B
S1131C600393019B3B4A934229D0019B394A9342F7
S1131C702CD8019B384A93421AD0019B364A93428E
S1131C8024D8019B354A934204D0019B344A9342A1
S1131C9007D01BE0344BD3F8803003F007030393E1
S1131CA01AE0314BD3F8843003F00703039313E0B5
S1131CB02D4BD3F88C3003F0070303930CE02A4B2D
S1131CC0D3F8883003F00703039305E041F642118B
S1131CD0244801F04DF900BF039B042B2DD801A229
S1131CE052F823F0351D0000F91C0000011D00000E
S1131CF0111D0000091D000001F032F9029024E0DA
S1131D00FFF7C0FD029020E001F02EF902901CE0E4
S1131D10FFF72CFD0446144BD3F800311B0E03F0DF
S1131D20030301331846FFF7B3FD0346B4FBF3F393
S1131D3002930AE00023029307E00023029341F692
S1131D409411084801F014F900BF029B184604B02E
S1131D5010BD00BF050024000400220002001E0084
S1131D60030020009437000000400E4082B0019030
S1131D70094BD3F8443103F00103002B08D100BF11
S1131D80054BD3F84021019B1340002BF8D100E010
S1131D9000BF02B0704700BF00400E4000B587B0DE
S1131DA001900B468DF8033000230493019B1B0A1A
S1131DB003F00F03013B0E2B72D801A252F823F05B
S1131DC0FD1D0000091E0000A11E0000A11E000050
S1131DD0031E0000151E00001F1E0000291E000027
S1131DE0351E00009B1E0000411E00006B1E0000FB
S1131DF0A11E00000F1E0000951E0000364B059327
S1131E0054E0364B059351E0354B05934EE0354B8A
S1131E1005934BE0344B05930123049346E0334B85
S1131E2005931023049341E0314B05934FF48073E1
S1131E3004933BE02F4B05934FF48033049335E038
S1131E402D4B05939DF80330002B14BF0123002371
S1131E50DBB283F00103DBB28DF803309DF803306D
S1131E6003F001038DF8033020E0244B05939DF823
S1131E700330002B14BF01230023DBB283F00103E2
S1131E80DBB28DF803309DF8033003F001038DF8C5
S1131E9003300BE01A4B059308E01A4B059305E059
S1131EA041F6B051184801F063F811E0019B1B0B97
S1131EB003F01F030393049B002B02D00498FFF745
S1131EC055FF9DF803301A4603990598FFF7F6FC71
S1131ED007B05DF804FB00BF00400E40B0400E4068
S1131EE0C0400E40C4400E40E0400E40E8400E406A
S1131EF0EC400E40F0400E4060410E4064410E4004
S1131F00F0410E4050410E409437000010B584B0AB
S1131F100190019B03F47813B3F5781F00F010824D
S1131F20B3F5781F00F21782B3F5681F00F004823E
S1131F30B3F5681F00F20F82B3F5601F00F0F7815C
S1131F40B3F5601F00F20782B3F5581F00F0EB8170
S1131F50B3F5581F00F2FF81B3F5501F00F0D38191
S1131F60B3F5501F00F2F781B3F5481F00F0BC81B0
S1131F70B3F5481F00F2EF81B3F5401F00F08E81E6
S1131F80B3F5401F00F2E781B3F5381F00F04D812F
S1131F90B3F5381F00F2DF81B3F5281F00F032815A
S1131FA0B3F5281F00F2D781B3F5201F00F08A8112
S1131FB0B3F5201F00F2CF81B3F5101F00F0878125
S1131FC0B3F5101F00F2C781B3F5001F00F03C8188
S1131FD0B3F5001F00F2BF81B3F5F01F00F0CB8012
S1131FE0B3F5F01F00F2B781B3F5E01F00F04381B1
S1131FF0B3F5E01F00F2AF81B3F5D01F00F02981E3
S1132000B3F5D01F00F2A781B3F5C01F00F0E7803D
S1132010B3F5C01F00F29F81B3F5B01F00F0CD806F
S1132020B3F5B01F00F29781B3F5A01F00F0B7809D
S1132030B3F5A01F00F28F81B3F5901F00F0A080CC
S1132040B3F5901F00F28781B3F5801F00F048813B
S1132050B3F5801F00F27F81B3F5602F00F03C815F
S1132060B3F5602F00F27781B3F5402F74D0B3F548
S1132070402F00F27081B3F5202F4FD0B3F5202FFD
S113208000F26981B3F5002F39D0B3F5002F00F2C7
S11320906281B3F5C02F23D0B3F5C02F00F25B816A
S11320A0B3F5802F0DD0B3F5802F00F25481002BAF
S11320B003D0B3F5003F40D04DE1FFF757FB039049
S11320C051E1FFF753FB0390A94BD3F80C311B0AE2
S11320D0C3F308030133039AB2FBF3F3039342E11E
S11320E0FFF744FB0390A24BD3F818311B0AC3F348
S11320F008030133039AB2FBF3F3039333E1FFF7CD
S113210035FB03909A4BD3F81C311B0AC3F3080325
S11321100133039AB2FBF3F3039324E1FFF726FBA5
S11321200390934BD3F804311B0AC3F30803013320
S1132130039AB2FBF3F3039315E1FFF717FB039044
S11321408B4BD3F808311B0AC3F308030133039AFA
S1132150B2FBF3F3039306E1FFF708FB0390844B10
S1132160D3F814311B0A03F01F030133039AB2FBA3
S1132170F3F30393F7E07F48FFF74AFD0390F2E09F
S11321807C48FFF745FD0390794BD3F820311B0CB5
S113219003F00F03039A22FA03F30393E3E0764870
S11321A0FFF736FD0390724BD3F8303103F003038D
S11321B0039A22FA03F30393D5E06E48FFF728FD50
S11321C003906B4BD3F8203103F00F031846FFF74D
S11321D05FFB0246039BB3FBF2F30393C3E0654842
S11321E0FFF716FD0390624BD3F820311B0903F06F
S11321F00F031846FFF74CFB0246039BB3FBF2F3B5
S11322000393B0E05B48FFF703FD0390584BD3F80A
S113221020311B0B03F007031846FFF739FB024676
S1132220039BB3FBF2F303939DE05248FFF7F0FCEA
S113223003904F4BD3F820311B0A03F00303039A96
S113224022FA03F303938EE04C48FFF7E1FC03907A
S113225089E04A48FFF7DCFC0390454BD3F828316A
S113226003F003031846FFF713FB0246039BB3FB7B
S1132270F2F3039377E04148FFF7CAFC03903C4B29
S1132280D3F828311B0903F003031846FFF700FBBA
S11322900246039BB3FBF2F3039364E03748FFF772
S11322A0B7FC0390324BD3F828311B0B03F0030324
S11322B004331846FFF7ECFA0246039BB3FBF2F330
S11322C0039350E02E48FFF7A3FC03904BE02A4809
S11322D0FFF79EFC039046E0FFF730FB039042E0DB
S11322E0FFF70CFB03903EE00020FFF74FFB039049
S11322F01F4BD3F85C3103F003030133039AB2FBA1
S1132300F3F303932FE00120FFF740FB0390184BF6
S1132310D3F85C311B0C03F003030133039AB2FBC3
S1132320F3F303931FE0FFF78BFB03901BE0002004
S1132330FFF7CAFB039016E0FFF716FC039012E0C8
S1132340FFF714FA0446019800F01BFE0346B4FBA1
S1132350F3F3039307E0002303934FF4F751094881
S113236000F006FE00BF039B184604B010BD00BF7A
S113237000400E4002001E0005002400030020005F
S1132380040022009437000000B585B00190019B41
S11323901B0903F00F030293029B013B0B2B00F27A
S11323A0538101A252F823F0D9230000E92300004D
S11323B0F923000019240000292400003924000016
S11323C0492400005924000045250000CF250000C1
S11323D0F725000039260000A24BD3F800311B0A70
S11323E003F01F03039337E19E4BD3F814311B0A08
S11323F003F01F0303932FE19A4BD3F800311B0E14
S113240003F003030393039B01331846FFF740FAD9
S11324100346013B03931FE1924BD3F80C311B0A93
S1132420C3F30803039317E18E4BD3F818311B0A47
S1132430C3F3080303930FE18A4BD3F81C311B0A3F
S1132440C3F30803039307E1864BD3F808311B0A4F
S1132450C3F308030393FFE0019B834A934230D004
S1132460019B814A934264D8019B804A934244D0A1
S1132470019B7E4A93425CD8019B7D4A93423CD0A7
S1132480019B7B4A934254D8019B7A4A934226D0BB
S1132490019B784A93424CD8019B774A93423AD0A5
S11324A0019B764A934244D16E4BD3F8203103F01A
S11324B00F0303930398FFF7EBF90346013B0393E0
S11324C03FE0684BD3F820311B0A03F00303039366
S11324D00398FFF7DDF90346013B039331E0614BB9
S11324E0D3F820311B0903F00F0303930398FFF77C
S11324F0CFF90346013B039323E05A4BD3F8203131
S11325001B0B03F0070303930398FFF7C1F903467A
S1132510013B039315E0534BD3F820311B0C03F01C
S11325200F0303930398FFF7B3F90346013B0393A7
S113253007E00023039341F65471514800F018FD5D
S113254000BF89E0019B4F4A934227D0019B4D4A2B
S1132550934233D8019B4C4A934204D0019B4B4A8B
S113256093420DD02AE03F4BD3F8283103F0030304
S113257003930398FFF78CF90346013B039325E08B
S1132580384BD3F828311B0903F003030393039852
S1132590FFF77EF90346013B039317E0314BD3F871
S11325A028311B0B03F003030393039B04331846E6
S11325B0FFF76EF90346013B039307E000230393FF
S11325C041F678712E4800F0D3FC00BF44E0019B33
S11325D02F4A934206D1234BD3F8303103F003033F
S11325E0039307E00023039341F68771244800F026
S11325F0BFFC00BF30E0019B264A934204D0019BFC
S1132600254A934207D00EE0164BD3F85C3103F011
S1132610030303930FE0134BD3F85C311B0C03F05B
S11326200303039307E00023039341F69F711448C7
S113263000F09EFC00BF0FE00A4BD3F804311B0AE4
S1132640C3F30803039307E00023039341F6AC713B
S11326500B4800F08DFC00BF039B184605B05DF8E5
S113266004FB00BF00400E4080262E0000362C00E4
S113267080002A008016180080461200800616008A
S1132680943700009037300090071A0090171C0010
S1132690A0091400B8003200B900340000B585B0B8
S11326A0019001238DF80F30019B03F00F03029377
S11326B0029B013B0B2B00F2B68101A252F823F0DE
S11326C0F12600005B27000099270000292800005C
S11326D0EB27000067280000272A0000912800004B
S11326E0DF280000332900007B290000C9290000ED
S11326F0B44BD3F8943003F00703023B052B27D8DF
S113270001A252F823F000BF31270000292700005E
S11327102127000039270000492700004127000035
S113272002238DF80F3017E003238DF80F3013E0E8
S113273004238DF80F300FE00D238DF80F300BE0DC
S11327400E238DF80F3007E00A238DF80F3003E0D5
S113275005238DF80F3000BF75E19A4BD3F8803014
S113276003F00703042B0ED0042B10D8012B02D046
S1132770022B04D00BE003238DF80F300BE002236F
S11327808DF80F3007E00C238DF80F3003E00123A0
S11327908DF80F3000BF56E18A4BD3F8843003F034
S11327A00703013B032B1BD801A252F823F000BFFF
S11327B0C1270000C9270000D9270000D127000045
S11327C003238DF80F300FE002238DF80F300BE058
S11327D00C238DF80F3007E006238DF80F3003E04B
S11327E001238DF80F3000BF2DE1764BD3F88830EC
S11327F003F00703042B0ED0042B10D8012B02D0B6
S1132800022B04D00BE003238DF80F300BE00223DE
S11328108DF80F3007E00C238DF80F3003E001230F
S11328208DF80F3000BF0EE1664BD3F88C3003F007
S11328300703042B0ED0042B10D8012B02D0022B3B
S113284004D00BE003238DF80F300BE002238DF846
S11328500F3007E00C238DF80F3003E001238DF8CF
S11328600F3000BFEFE0574B1B6F03F00303002B47
S113287005D0012B07D109238DF80F3007E007237A
S11328808DF80F3003E001238DF80F3000BFDAE03C
S11328904C4BD3F85C3103F03003302B16D0302B83
S11328A018D8202B0ED0202B14D8002B02D0102B9C
S11328B004D00FE001238DF80F300FE007238DF8CB
S11328C00F300BE004238DF80F3007E008238DF858
S11328D00F3003E001238DF80F3000BFB3E0394B14
S11328E0D3F85C3103F44013B3F5401F1CD0B3F5A7
S11328F0401F00F2A180B3F5001F11D0B3F5001FF3
S113290000F29A80002B03D0B3F5801F04D093E02B
S113291001238DF80F300BE007238DF80F3007E00B
S113292004238DF80F3003E008238DF80F3000BF27
S113293082E0244BD3F8603103F00303032B7DD8EA
S113294001A252F823F000BF5929000061290000B8
S1132950692900007129000005238DF80F300BE070
S113296004238DF80F3007E007238DF80F3003E0C0
S11329700A238DF80F3000BF60E0124BD3F86431A6
S113298003F00303032B5BD801A252F823F000BF2A
S1132990A1290000A9290000B1290000B9290000DB
S11329A005238DF80F300BE004238DF80F3007E07A
S11329B007238DF80F3003E00A238DF80F3000BF92
S11329C03EE000BF00400E40224BD3F8F03103F04C
S11329D00703052B36D801A252F823F0F52900008D
S11329E0FD290000052A00000D2A0000152A000018
S11329F01D2A00000A238DF80F3013E004238DF8FC
S1132A000F300FE00B238DF80F300BE005238DF80A
S1132A100F3007E002238DF80F3003E003238DF815
S1132A200F3000BF0EE000238DF80F3042F2013169
S1132A30094800F09DFA06E000BF04E000BF02E090
S1132A4000BF00E000BF9DF80F30184605B05DF8E8
S1132A5004FB00BF00400E409437000000B587B06F
S1132A6003900291019200F098FA0590039B002BC9
S1132A7004D14FF49C710A4800F07AFA039B1A6857
S1132A80029BDB431A400199029B0B401A43039BB0
S1132A901A60059800F08DFA00BF07B05DF804FBDA
S1132AA0EC37000000B583B0034600918DF8073081
S1132AB09DF80730002B39D09DF80730012B32D018
S1132AC09DF80730022B2BD09DF80730032B24D020
S1132AD09DF80730042B1DD09DF80730052B16D028
S1132AE09DF80730062B0FD09DF80730072B08D030
S1132AF09DF80730082B02D14FF6FF7318E000232E
S1132B0016E04FF6FF7313E04FF6FF7310E04FF635
S1132B10FF730DE04FF6FF730AE04FF6FF7307E013
S1132B204FF6FF7304E04FF6FF7301E04FF6FF73B7
S1132B30009AD34003F00103002B04D140F2014179
S1132B400C4800F015FA9DF8072013465B00134467
S1132B501B010C3303F1804303F508230121009A80
S1132B6001FA02F21146184600F03AFA00BF03B027
S1132B705DF804FB4438000000B583B003460091BF
S1132B808DF807309DF80730002B39D09DF80730B9
S1132B90012B32D09DF80730022B2BD09DF8073043
S1132BA0032B24D09DF80730042B1DD09DF807304B
S1132BB0052B16D09DF80730062B0FD09DF8073053
S1132BC0072B08D09DF80730082B02D14FF6FF736E
S1132BD018E0002316E04FF6FF7313E04FF6FF737F
S1132BE010E04FF6FF730DE04FF6FF730AE04FF667
S1132BF0FF7307E04FF6FF7304E04FF6FF7301E045
S1132C004FF6FF73009AD34003F00103002B04D165
S1132C104FF486610C4800F0ABF99DF80720134689
S1132C205B0013441B010C3303F1804303F50823B9
S1132C300121009A01FA02F21146184600F0C3F984
S1132C4000BF03B05DF804FB4438000000B585B054
S1132C5002910192009303468DF80F309DF80F30D6
S1132C60002B39D09DF80F30012B32D09DF80F3056
S1132C70022B2BD09DF80F30032B24D09DF80F305E
S1132C80042B1DD09DF80F30052B16D09DF80F3066
S1132C90062B0FD09DF80F30072B08D09DF80F306E
S1132CA0082B02D14FF6FF7318E0002316E04FF60D
S1132CB0FF7313E04FF6FF7310E04FF6FF730DE060
S1132CC04FF6FF730AE04FF6FF7307E04FF6FF730A
S1132CD004E04FF6FF7301E04FF6FF73029AD3400E
S1132CE003F00103002B04D14FF4B071324800F01B
S1132CF03FF9019B002B0FD0009B002B06D09DF8C1
S1132D000F3002991846FFF737FF05E09DF80F30A2
S1132D1002991846FFF7C6FE029B072B19D89DF8A7
S1132D200F2013465B0013441B01043303F180435B
S1132D3003F50823029A92000F2101FA02F0029A85
S1132D409200019901FA02F201461846FFF786FE45
S1132D501AE09DF80F2013465B0013441B0108334F
S1132D6003F1804303F50823029A083A92000F21E5
S1132D7001FA02F0029A083A9200019901FA02F269
S1132D8001461846FFF76AFE019B002B0FD1009BFA
S1132D90002B06D09DF80F3002991846FFF7ECFE81
S1132DA005E09DF80F3002991846FFF77BFE00BF3F
S1132DB005B05DF804FB00BF9C38000008B5064B65
S1132DC0044613B10021AFF30080044B1B6803B128
S1132DD09847204600F0D1F8000000005010002071
S1132DE070B50D4D0D4C641BA4100026A64209D1EC
S1132DF00B4D0C4C00F014F9641BA4100026A642E1
S1132E0005D170BD55F8043B98470136EEE755F8F7
S1132E10043B98470136F2E72410002024100020D8
S1132E20241000202810002082B001900B468DF859
S1132E3003309DF8033063F07F03DBB21A46019B35
S1132E409A6500BF02B0704782B0019000BF019B39
S1132E501B6903F08003002BF9D0019BDB69DBB213
S1132E60184602B0704782B001900B468DF80330CB
S1132E7000BF019B1B6903F04003002BF9D09DF8B0
S1132E800320019B5A6300BF02B0704782B00190D7
S1132E900091019B009A5A6100BF02B0704782B052
S1132EA001900091019B9A69009B1A43019B9A61CE
S1132EB000BF02B0704782B001900091019B009A5C
S1132EC0DA6300BF02B0704784B001900091019BA7
S1132ED003F1C0630393039B009A1A6000BF04B01C
S1132EE0704784B001900091019B03F180630393C8
S1132EF0039B009A1A6000BF04B0704700B583B00A
S1132F000190009108E0019B1B7800991846FEF798
S1132F1071FB019B01330193019B1B78002BF2D1C0
S1132F2000BF00BF03B05DF804FB00B585B001909D
S1132F3000238DF80F3000BF019B1B6903F0800351
S1132F40002BF9D00198FFF77FFF03468DF80F306F
S1132F509DF80F30184605B05DF804FB00BFFDE78F
S1132F604FF40043184670474FF47A73184670477D
S1132F7082B00190009100BFFDE782B0019000BFD4
S1132F80FDE700B583B001900198FFF7FDF9034612
S1132F900133184603B05DF804FB82B0EFF31083ED
S1132FA00093009B019372B600BF019B184602B0C8
S1132FB0704782B00190019B002B01D162B600BF23
S1132FC000BF02B0704784B001900091019B03F1EF
S1132FD0C0630393039B009A1A6000BF04B0704758
S1132FE084B001900091019B03F180630393039BE0
S1132FF0009A1A6000BF04B070470244034693422B
S113300000D1704703F8011BF9E70000000000003D
S113301000000000000000000000000000000000AC
S1133020F8B500BFF8BC08BC9E467047F8B500BFB1
S1133030F8BC08BC9E467047000000000000000079
S1133040000000000000000000000000000000007C
S1133050000000000000000000000000000000006C
S1133060433A5C55736572735C4A6F6E6174686150
S11330706E53746F7265795C53696D706C696369C2
S1133080747953747564696F5C76355F776F726BAE
S113309073706163655C4E4156434F4D5F46756E78
S11330A06374696F6E616C6974795F546573746974
S11330B06E672F656D5F74696D65722E6800000020
S11330C0433A2F55736572732F4A6F6E617468614A
S11330D06E53746F7265792F53696D706C6963698F
S11330E0747953747564696F2F53444B732F6765F8
S11330F0636B6F5F73646B5F322F706C6174666FA8
S1133100726D2F656D6C69622F7372632F656D5FCD
S113311074696D65722E6300433A2F55736572733B
S11331202F4A6F6E617468616E53746F7265792F84
S113313053696D706C696369747953747564696FEC
S11331402F53444B732F6765636B6F5F73646B5FBF
S1133150322F706C6174666F726D2F656D6C69626D
S11331602F7372632F656D5F75736172742E6300C4
S11331702E2E2F656D5F74696D65722E68000000D8
S1133180633A5C75736572735C6A6F6E61746861CF
S11331906E73746F7265795C73696D706C69636961
S11331A0747973747564696F5C73646B735C67655D
S11331B0636B6F5F73646B5F325C706C6174666FBA
S11331C0726D5C656D6C69625C696E635C656D5F94
S11331D06770696F2E6800000D0A57656C636F6D28
S11331E06520746F204E4156434F4D200A0D0A0D41
S11331F0200000002D2D2D2D2D2D2D2D2D2D2D2D8F
S11332002D2D2D2D2D2D2D2D2D2D2D2D2D20200A27
S11332100D0000003120456E61626C65203556203A
S113322020200A0D00000000322044697361626CA2
S113323065203556200A0D002D2D2D2D2D2D2D2DDB
S11332402D2D2D2D2D2D2D2D2D2D2D2D2D2D0A0DED
S1133250000000003320456E61626C652033562007
S11332600A0D0000342044697361626C6520335692
S11332700A0D00003520456E61626C6520525332A0
S1133280333220410A0D0000362044697361626CB8
S11332906520525332333220410A0D003720456EE7
S11332A061626C6520525332333220420A0D0000B1
S11332B0382044697361626C652052533233322082
S11332C0420A0D003920456E61626C6520457468C0
S11332D065726E6574207377697463680A0D000003
S11332E0612044697361626C652045746865726E1F
S11332F06574207377697463680A0D006220456EF3
S113330061626C6520657870616E64657220410A43
S11333100D000000632044697361626C6520657868
S113332070616E64657220410A0D00006420456E70
S113333061626C6520657870616E64657220420A12
S11333400D000000652044697361626C6520657836
S113335070616E64657220420A0D00006620456E3D
S113336061626C6520657870616E64657220430AE1
S11333700D000000672044697361626C6520657804
S113338070616E64657220430A0D0000736F6D6591
S11333907468696E672077726F6E67200A0D00008B
S11333A0457870616E646572204120456E61626C7F
S11333B065640A0D00000000457870616E646572F2
S11333C020412053687574646F776E0A0D00000005
S11333D0457870616E646572204220456E61626C4E
S11333E065640A0D00000000457870616E646572C2
S11333F020422053687574646F776E0A0D000000D4
S1133400457870616E646572204320456E61626C1C
S113341065640A0D00000000457870616E64657291
S113342020432053687574646F776E0A0D000000A2
S1133430456E65742053776974636820456E6162D4
S11334406C6564200A0D0000456E6574207377690D
S11334507463682053687574646F776E200A0D0076
S11334605253323332204120456E61626C65640AE6
S11334700D00000052533233322044697361626C90
S113348065640A0D0000000052533233322042209A
S1133490456E61626C65640A0D000000525332335C
S11334A03220422044697361626C65640A0D000035
S11334B04643505520456E61626C6564200A0D00D8
S11334C0464350552053687574646F776E200A0D17
S11334D000000000464350552053687574646F77AC
S11334E06E202D2062757420736F6D656869746E2B
S11334F0672077656E742077726F6E670A0D00001F
S1133500332E33562052656720456E61626C6564C4
S11335100A0D0000332E3356205265672053687518
S113352074646F776E0A0D000D0A3520566F6C7443
S1133530206973203A200909000000000D0A332095
S1133540566F6C74206973203A200909000000004A
S11335500D0A52533233322041206973203A200934
S1133560090000000D0A525332333220422069739D
S1133570203A2009090000000D0A45746865726E3E
S11335806574206973203A20090900000D0A457802
S113359070616E646572732041206973203A20095A
S11335A0000000000D0A457870616E646572732036
S11335B042206973203A2009000000000D0A457872
S11335C070616E646572732043206973203A200928
S11335D0000000001B5B324A0000000068656C6C50
S11335E06F2066726F6D204E6F6465200A0D0000B7
S11335F068656C6C6F2066726F6D20494D55200AAA
S11336000D00000068656C6C6F2066726F6D205051
S113361044454D200A0D000068656C6C6F2066728D
S11336206F6D2053444153200A0D000068656C6C93
S11336306F2066726F6D20546872757374657220A2
S11336400A0D000068656C6C6F2066726F6D204611
S1133650435055200A0D000068656C6C6F2066723B
S11336606F6D205553424C200A0D000005000000E8
S11336700000000000C2010000050000001000006E
S11336800000000000000000633A5C75736572730B
S11336905C6A6F6E617468616E73746F7265795C75
S11336A073696D706C696369747973747564696F37
S11336B05C73646B735C6765636B6F5F73646B5F90
S11336C0325C706C6174666F726D5C636F6D6D6F8C
S11336D06E5C696E635C736C5F636F6D6D6F6E2E91
S11336E068000000633A5C75736572735C6A6F6EA0
S11336F0617468616E73746F7265795C73696D70FF
S11337006C696369747973747564696F5C73646BF1
S1133710735C6765636B6F5F73646B5F325C706C63
S11337206174666F726D5C656D6C69625C696E6311
S11337305C656D5F6275732E68000000633A5C75AA
S1133740736572735C6A6F6E617468616E73746FB3
S11337507265795C73696D706C696369747973748B
S11337607564696F5C73646B735C6765636B6F5FCF
S113377073646B5F325C706C6174666F726D5C65F0
S11337806D6C69625C696E635C656D5F636D752EFB
S113379068000000433A2F55736572732F4A6F6EA9
S11337A0617468616E53746F7265792F53696D70BB
S11337B06C696369747953747564696F2F53444BEE
S11337C0732F6765636B6F5F73646B5F322F706C0D
S11337D06174666F726D2F656D6C69622F737263AD
S11337E02F656D5F636D752E63000000633A5C7531
S11337F0736572735C6A6F6E617468616E73746F03
S11338007265795C73696D706C69636974797374DA
S11338107564696F5C73646B735C6765636B6F5F1E
S113382073646B5F325C706C6174666F726D5C653F
S11338306D6C69625C696E635C656D5F6275732E45
S113384068000000633A5C75736572735C6A6F6E3E
S1133850617468616E73746F7265795C73696D709D
S11338606C696369747973747564696F5C73646B90
S1133870735C6765636B6F5F73646B5F325C706C02
S11338806174666F726D5C656D6C69625C696E63B0
S11338905C656D5F6770696F2E680000433A2F5551
S11338A0736572732F4A6F6E617468616E53746FBF
S11338B07265792F53696D706C6963697479537497
S11338C07564696F2F53444B732F6765636B6F5F28
S11338D073646B5F322F706C6174666F726D2F65E9
S11338E06D6C69622F7372632F656D5F6770696FAA
S10738F02E6300003F
S10B38F4F0C8FF7F0100000091
S10F38FC08390000001000200B00000040
S1133908300000003030303030303030303000009B
S113391880F0FA0200800000C0EA2101C0EA210117
S10F3928006CDC02C101000099010000E9
S90316D511
