S02300004E4156434F4D5F46756E6374696F6E616C6974795F54657374696E672E73333708
S1130000001000200518000075330000753300004F
S1130010753300007533000075330000753300003C
S1130020753300007533000075330000753300002C
S1130030753300007533000075330000753300001C
S1130040753300007533000075330000753300000C
S113005075330000F50F00007533000075330000A0
S1130060753300007533000075330000391100004A
S11300707533000075330000111000007533000063
S113008075330000753300007533000075330000CC
S113009075330000753300007533000075330000BC
S11300A075330000753300007533000075330000AC
S11300B0753300007533000075330000753300009C
S11300C0753300007533000075330000753300008C
S11300D0753300007533000075330000753300007C
S11300E0753300007533000075330000753300006C
S11300F0753300007533000075330000753300005C
S1130100753300007533000075330000753300004B
S1130110753300007533000075330000753300003B
S1130120753300007533000075330000753300002B
S1130130753300007533000075330000753300001B
S1130140753300007533000075330000753300000B
S113015000000000000000000348044B834202D06A
S1130160034B03B1184770472C1000202C100020BB
S1130170000000000548064B1B1AD90F01EBA30130
S1130180491002D0034B03B1184770472C100020CC
S11301902C1000200000000010B5064C237843B951
S11301A0FFF7DAFF044B13B10448AFF300800123D7
S11301B0237010BD4810002000000000843C0000A3
S11301C008B5054B1BB105490548AFF30080BDE8F0
S11301D00840FFF7CFBF00BF000000002C10002034
S11301E0843C0000A3F5803A704700BF174B002BF6
S11301F008BF134B9D46FFF7F5FF00218B460F46C2
S11302001348144A121A03F00DF90E4B002B00D0B8
S113021098470D4B002B00D0984700200021040084
S11302200D000D48002802D00C48AFF3008003F005
S113023007F82000290001F0D5F902F0EFFF00BF14
S11302400000080000000000000000000010002072
S11302502C100020501000200000000000000000BE
S113026082B00190019B1A4A934227D0019B194AFC
S1130270934223D0019B184A93421FD0019B174AF3
S113028093421BD0019B164A934217D0019B154AF7
S1130290934213D0019B144A93420FD0019B134AFB
S11302A093420BD0019B124A934207D0019B114AFF
S11302B0934203D0019B104A934201D1012300E0F1
S11302C0002303F00103DBB2184602B0704700BFFD
S11302D0008001400084014000880140008C0140FE
S11302E000900140009401400098014000A00140AA
S11302F000A4014000A8014000AC014000B585B055
S1130300019000910198FFF7ABFF0346002B03D146
S1130310B421404803F038F800230393009B1B7872
S113032083F00103DBB2002B02D0019B02225A604E
S1130330019B00225A62009B9B781A06009BDB7883
S11303401B041A43009BDB799B021A43009B1B7A14
S11303501B021343009A527A1343009A5278002ADC
S113036001D0402200E000221343009A927A002A2E
S113037001D0802200E000221343009AD27A002A9E
S113038001D0202200E000221343009A127B002AAD
S113039001D0102200E000221343009A927B002A2D
S11303A002D04FF4804200E000221343009A527BB3
S11303B0002A01D0082200E0002213430393009B8B
S11303C01B79002B02D04FF4005200E00022009B66
S11303D05B79002B02D04FF0805300E000231343DD
S11303E0009A9279002A02D04FF0005200E00022D5
S11303F01343039A13430393019B039A1A60009BCC
S11304001B78002B02D0019B01225A6000BF05B06B
S11304105DF804FBE034000000B587B0039002915E
S113042001928DF8033000230593019B002B04D126
S113043040F255114C4802F0A7FF029B002B0CD14F
S1130440039B4A4A934204D1494801F0F7FD0290C4
S113045003E0484801F0F2FD02909DF80330602B60
S113046034D0602B3FDC402B20D0402B3BDC002BD6
S113047002D0202B0DD036E0029B1B09019A9A4230
S113048004D940F28711384802F07EFF1023059307
S11304902FE0029BDB08019A9A4204D94FF4C671FB
S11304A0314802F071FF0823059322E0029B324A8F
S11304B0A2FB03239B08019A9A4204D940F29111AA
S11304C0294802F061FF0623059312E0029B9B0872
S11304D0019A9A4204D94FF4CB71234802F054FF95
S11304E00423059305E04FF4CE711F4802F04CFF3E
S11304F000BF059B002B33D0029B5A01059B019939
S113050001FB03F35B0813440493059B019A02FB6C
S113051003F3049AB2FBF3F30493049B203B049388
S1130520049BDB000493049B144A934204D940F2D5
S1130530B3110D4802F028FF049A104B13400493A2
S1130540039B1B6823F06002039B1A60039B1A68D9
S11305509DF803301A43039B1A60039B049A5A6163
S113056000BF07B05DF804FB383500000008014007
S11305705041070040410500ABAAAAAAF8FF7F003A
S113058000B583B001900091019B434A934220D06F
S1130590019B424A93421CD0019B414A934218D08A
S11305A0019B404A934214D0019B3F4A934210D08E
S11305B0019B3E4A93420CD0019B3D4A934208D092
S11305C0019B3C4A934204D040F215313A4802F070
S11305D0DBFE019800F072F8009B9B7C002B05D099
S11305E0019B1B6843F08042019B1A60009BDB7CEB
S11305F0002B05D0009B1B7D1946019802F044FE98
S1130600009B5B7B1A46009B1B8A1343009AD2898A
S11306101A43019B5A60009B5968009B9A68009B8F
S11306201B7B0198FFF7F8FE009B5B7D002B05D038
S1130630019B1B6843F48032019B1A60009B9B7DE5
S1130640002B05D0019B1B6843F40042019B1A60F8
S1130650009BDB7D1B0703F0E042009B1B7E1B0518
S113066003F4E0031A43019B1A66019B5B6F23F0BA
S11306703002019B5A67019B5B6F009A527E1A43BA
S1130680019B5A67009B1B781A46019BDA6000BFE6
S113069003B05DF804FB00BF00000140000401400A
S11306A000080140000C014000100140001401400A
S11306B000400140004401403835000000B583B0DB
S11306C00190019B334A934220D0019B324A9342CA
S11306D01CD0019B314A934218D0019B304A93426B
S11306E014D0019B2F4A934210D0019B2E4A93426F
S11306F00CD0019B2D4A934208D0019B2C4A934273
S113070004D040F25E412B4802F03EFE019B40F6CD
S1130710AA62DA60019B00221A60019B41F2050281
S11307205A60019B00229A60019B00225A61019B3E
S11307300022DA64019B204A9A64019B00221A6613
S1130740019B00225A67019B00229A67019B0022A9
S1130750DA67019B0F4A934203D0019B0F4A9342ED
S113076002D1019B00221A65019B00229A65019B1C
S1130770094A934207D0019B094A934203D0019B43
S1130780084A934202D1019B0022DA6500BF03B0FC
S11307905DF804FB00000140000401400008014032
S11307A0000C0140001001400014014000400140D1
S11307B00044014038350000F9FF010000B583B062
S11307C0034600918DF807309DF80730002B39D08F
S11307D09DF80730012B32D09DF80730022B2BD027
S11307E09DF80730032B24D09DF80730042B1DD02F
S11307F09DF80730052B16D09DF80730062B0FD037
S11308009DF80730072B08D09DF80730082B02D13C
S11308104FF6FF7318E0002316E04FF6FF7313E062
S11308204FF6FF7310E04FF6FF730DE04FF6FF73C2
S11308300AE04FF6FF7307E04FF6FF7304E04FF64C
S1130840FF7301E04FF6FF73009AD34003F00103F6
S1130850002B04D140F201410C4802F095FD9DF8B3
S1130860072013465B0013441B010C3303F1804340
S113087003F508230121009A01FA02F211461846F1
S113088002F032FD00BF03B05DF804FB90350000B8
S113089000B583B0034600918DF807309DF807300A
S11308A0002B39D09DF80730012B32D09DF807304A
S11308B0022B2BD09DF80730032B24D09DF8073052
S11308C0042B1DD09DF80730052B16D09DF807305A
S11308D0062B0FD09DF80730072B08D09DF8073062
S11308E0082B02D14FF6FF7318E0002316E04FF6F1
S11308F0FF7313E04FF6FF7310E04FF6FF730DE044
S11309004FF6FF730AE04FF6FF7307E04FF6FF73ED
S113091004E04FF6FF7301E04FF6FF73009AD340F3
S113092003F00103002B04D14FF486610C4802F05C
S11309302BFD9DF8072013465B0013441B010C3369
S113094003F1804303F508230121009A01FA02F21E
S11309501146184602F0BBFC00BF03B05DF804FB6F
S11309609035000000B583B0034600918DF8073040
S11309709DF80730062B00F2998001A252F823F06B
S11309809D090000AD0A0000AD0A0000AD0A000098
S1130990E1090000250A0000690A0000009B00220A
S11309A01A60009B00221A71009B00225A71009B5E
S11309B000229A71009B0022DA71009B00221A72B5
S11309C0009B00225A72009B00229A72009B002214
S11309D0DA72009B00221A73009B00225A7386E08D
S11309E0009B04221A60009B01221A71009B0122C1
S11309F05A71009B01229A71009B0022DA71009BBC
S1130A0000221A72009B00225A72009B00229A72E2
S1130A10009B0022DA72009B00221A73009B0022C2
S1130A205A7364E0009B05221A60009B00221A712D
S1130A30009B01225A71009B01229A71009B0022A3
S1130A40DA71009B00221A72009B01225A72009BE9
S1130A5001229A72009B0022DA72009B00221A7310
S1130A60009B00225A7342E0009B06221A60009BFE
S1130A7000221A71009B01225A71009B01229A7173
S1130A80009B0022DA71009B00221A72009B002254
S1130A905A72009B00229A72009B0122DA72009B18
S1130AA001221A73009B01225A7320E0009B00224A
S1130AB01A60009B00221A71009B00225A71009B4D
S1130AC000229A71009B0022DA71009B00221A72A4
S1130AD0009B00225A72009B00229A72009B002203
S1130AE0DA72009B00221A73009B00225A73009B47
S1130AF01B79002B04D00099012000F003F903E0D6
S1130B000099002000F0FEF8009B5B79002B04D0D4
S1130B100099012000F07AF903E00099002000F028
S1130B2075F9009B9B79002B04D00099012000F0FB
S1130B30A7F903E00099002000F0A2F9009BDB79FB
S1130B40002B04D00099012000F09AF903E00099E9
S1130B50002000F095F9009B1B7A002B04D000992B
S1130B60012000F08DF903E00099002000F088F9DD
S1130B70009B5B7A002B04D00099012000F0EEF872
S1130B8003E00099002000F0E9F8009B9B7A002B19
S1130B9004D00099012000F00DF903E00099002031
S1130BA000F008F9009BDB7A002B04D000990120A7
S1130BB000F024F803E00099002000F01FF8009BE7
S1130BC01B7B002B04D00099012000F043F803E0C4
S1130BD00099002000F03EF8009B5B7B002B04D0C2
S1130BE00099012000F062F803E00099002000F071
S1130BF05DF800BF03B05DF804FB00BF00B583B02F
S1130C00034600918DF807309DF80730002B0DD076
S1130C10012B17D102210320FFF73AFE02210B48D2
S1130C2002F091FB009B3122DA720BE002210320D7
S1130C30FFF7C4FD0221064802F085FB009B302229
S1130C40DA7200BF00BF03B05DF804FBE8350000B2
S1130C500036000000B583B0034600918DF80730DC
S1130C609DF80730002B0DD0012B17D10321032051
S1130C70FFF70EFE02210B4802F065FB009B3122B8
S1130C801A730BE003210320FFF798FD02210648A5
S1130C9002F059FB009B30221A7300BF00BF03B05F
S1130CA05DF804FB183600003036000000B583B050
S1130CB0034600918DF807309DF80730002B0DD0C6
S1130CC0012B17D104210320FFF7E2FD02210B4879
S1130CD002F039FB009B31225A730BE004210320FC
S1130CE0FFF76CFD0221064802F02DFB009B302229
S1130CF05A7300BF00BF03B05DF804FB4836000020
S1130D006036000000B583B0034600918DF80730CB
S1130D109DF80730002B0DD0012B17D10A21042098
S1130D20FFF7B6FD02210B4802F00DFB009B3122B8
S1130D301A710BE00A210420FFF740FD0221064846
S1130D4002F001FB009B30221A7100BF00BF03B008
S1130D505DF804FB783600009036000000B583B0DF
S1130D60034600918DF807309DF80730002B0DD015
S1130D70012B17D104210020FFF78AFD02210B4823
S1130D8002F0E1FA009B31225A720BE004210020A8
S1130D90FFF714FD0221064802F0D5FA009B302229
S1130DA05A7200BF00BF03B05DF804FBA836000010
S1130DB0BC36000000B583B0034600918DF80730BF
S1130DC09DF80730002B0DD0012B17D105210020F1
S1130DD0FFF75EFD02210B4802F0B5FA009B3122B9
S1130DE09A720BE005210020FFF7E8FC0221064877
S1130DF002F0A9FA009B30229A7200BF00BF03B030
S1130E005DF804FBD0360000E436000000B583B082
S1130E10034600918DF807309DF80730002B0DD064
S1130E20012B17D10F210020FFF732FD02211148B9
S1130E3002F089FA009B31225A7117E00F21002039
S1130E40FFF7BCFC02210C4802F07DFA009B302223
S1130E505A710BE00F210020FFF7B0FC0221074874
S1130E6002F071FA009B30225A7100BF00BF03B038
S1130E705DF804FBF8360000083700001C3700005A
S1130E8000B583B0034600918DF807309DF8073014
S1130E90002B0DD0012B17D102210120FFF7F8FC04
S1130EA002210B4802F04FFA009B31229A710BE0A9
S1130EB002210120FFF782FC0221064802F043FAD6
S1130EC0009B30229A7100BF00BF03B05DF804FBA1
S1130ED0483700005C37000082B003468DF80730C5
S1130EE09DF90730002B0CDB9DF8073003F01F023F
S1130EF005499DF907305B09012000FA02F241F827
S1130F00232000BF02B0704700E100E082B00190EE
S1130F10019B0B4A93420BD0019B0A4A934207D090
S1130F20019B094A934203D0019B084A934202D190
S1130F304FF0FF3301E04FF6FF73184602B07047DD
S1130F4000A0014000A4014000A8014000AC014001
S1130F5000B583B0019000910198FFF7D7FF0246D6
S1130F60009B934204D940F2BC41054802F00CFABC
S1130F70019B009ADA6100BF03B05DF804FB00BF77
S1130F80C838000000B587B001AB00221A605A606F
S1130F909A60C3F80B2001238DF8043000238DF8E8
S1130FA004300A238DF8063001AB19460E48FFF7CA
S1130FB0A5F90E4801F042F803469DF80620D340F7
S1130FC00B4AA2FB03235B0B059305990648FFF725
S1130FD0BFFF0121044802F09DF90520FFF77CFFC3
S1130FE000BF07B05DF804FB00800140000206006A
S1130FF05917B7D108B50121034802F082F9034B10
S113100001221A7000BF08BD008001404910002071
S113101008B50121034802F074F9034B01221A7048
S113102000BF08BD008401404A10002082B003467E
S11310308DF807309DF90730002B0CDB9DF8073045
S113104003F01F0205499DF907305B09012000FAEE
S113105002F241F8232000BF02B0704700E100E033
S113106082B003468DF807309DF90730002B0DDB65
S11310709DF8073003F01F0206499DF907305B090C
S1131080012000FA02F2603341F8232000BF02B0CD
S1131090704700BF00E100E010B584B00121214891
S11310A000F014FF0121204800F010FF01230B225F
S11310B00721032001F062FE01230B2206210320F5
S11310C001F05CFE194B40F201129A64174B0322A3
S11310D05A64174B6C460FCB84E80F0000238DF83D
S11310E000306B461946114802F054F800BF0F4B0C
S11310F0DB6803F00103002BF9D101210B4802F056
S11311001FF80A4B0B4ADA63084B4FF4F0721A6467
S11311100B20FFF7A5FF0B20FFF788FF00BF04B0EB
S113112010BD00BF00550A000012090000900840DD
S1131130D8380000CFFF070000B583B0434B5B6B8A
S11311400193019B03F08003002B10D0022140483F
S113115002F0F9F83F4B06221A703C4B02225A6007
S11311603A4B8022DA633C4B01221A706AE0394B15
S11311701B78DBB2013B062B59D801A252F823F0AD
S11311809D110000C31100002F120000E7110000A0
S11311902F1200002F1200000F1200000221312034
S11311A000F0C0FA019B03F04003002B43D0274B0F
S11311B00022DA62274B02221A70244B4022DA639F
S11311C039E0019B03F01003002B36D01F4B0122A2
S11311D05A601E4B3322DA621E4B04221A701B4BD8
S11311E01022DA6329E0019B03F02003002B26D0B0
S11311F0164BDB69DAB2194B1A70144B0A225A6087
S1131200144B07221A70114B2022DA6317E0019B5A
S113121003F48073002B14D00F4B01221A700D4B72
S113122000221A70094B4FF48072DA6309E0074A0E
S1131230019BD36306E000BF04E000BF02E000BFEF
S113124000E000BF03B05DF804FB00BF009008405D
S1131250E83800004B1000204C1000204D100020F6
S113126000B583B0034600918DF807309DF8073030
S1131270002B39D09DF80730012B32D09DF8073070
S1131280022B2BD09DF80730032B24D09DF8073078
S1131290042B1DD09DF80730052B16D09DF8073080
S11312A0062B0FD09DF80730072B08D09DF8073088
S11312B0082B02D14FF6FF7318E0002316E04FF617
S11312C0FF7313E04FF6FF7310E04FF6FF730DE06A
S11312D04FF6FF730AE04FF6FF7307E04FF6FF7314
S11312E004E04FF6FF7301E04FF6FF73009AD3401A
S11312F003F00103002B04D140F201410C4802F039
S113130043F89DF8072013465B0013441B010C337C
S113131003F1804303F508230121009A01FA02F244
S11313201146184602F002F800BF03B05DF804FB52
S1131330F03800004FF0804301225A64164BD3F872
S1131340B030154A43F00103C2F8B030124BD3F861
S1131350E030114A43F00803C2F8E0300F4B1B6839
S11313600E4A43F4805313600B4BD3F8E0300A4A1F
S113137023F00803C2F8E030074BD3F8B030064A34
S113138023F00103C2F8B030054B1B68044A43F450
S1131390F843136000BF704700400E4034400540DE
S11313A0A4310E4008B5FFF7C5FF0121824800F0C3
S11313B08DFD0121814800F089FD0121804800F064
S11313C085FD01217F4800F081FD01217E4800F068
S11313D07DFD01217D4800F079FD01217C4800F06C
S11313E075FD01217B4800F071FD01217A4800F070
S11313F06DFD0121794800F069FD0121784800F074
S113140065FD002301220A21022001F0B7FC01231B
S113141004220B21022001F0B1FC01230422082143
S1131420022001F0ABFC002301220121032001F082
S1131430A5FC012304220021032001F09FFC0023CA
S113144001220121052001F099FC0123042200213D
S1131450052001F093FC012304220521052001F05D
S11314608DFC002301220721042001F087FC0123C5
S113147004220621042001F081FC0123042204211A
S1131480042001F07BFC002301220821012001F04B
S113149075FC012304220721012001F06FFC0123C4
S11314A004220421022001F069FC0023012201210D
S11314B0012001F063FC012304220621002001F035
S11314C05DFC002301220121042001F057FC0123CB
S11314D004220021042001F051FC002301220321F5
S11314E0042001F04BFC012304220221042001F01A
S11314F045FC012304220421002001F03FFC0421C7
S11315000020FFF7ADFE012304220521002001F095
S113151035FC05210020FFF7A3FE0123042202214C
S1131520012001F02BFC02210120FFF799FE012389
S113153004220F21002001F021FC0F210020FFF7DD
S11315408FFE012304220A21042001F017FC0A2142
S11315500420FFF785FE012304220221032001F069
S11315600DFC02210320FFF77BFE0123042203214B
S1131570032001F003FC03210320FFF771FE012384
S113158004220421032001F0F9FB04210320FFF7C6
S113159067FE012304220221022001F0EFFB022155
S11315A00220FFF75DFEFFF7EDFC00F029F8FFF7DE
S11315B073FD00BF08BD00BF4041050000550A008F
S11315C00012090000720400008204000092060068
S11315D000A2040000B2040000C20400004E040093
S11315E0005E040000B583B0FFF7DCFE034B0193FB
S11315F001990020FFF7B6F9FAE700BF00100020B8
S113160030B589B03E4B01AC1D460FCD0FC495E8F3
S1131610070084E8070001AB19463A48FEF7B0FF1B
S1131620384B40F202229A67364B5B6F354A43F0DF
S11316300303536701AB19463348FEF7A1FF324B4E
S113164040F201129A67304B5B6F2F4A43F0030359
S1131650536701AB19462D48FEF792FF2B4B40F21E
S113166005529A67294B5B6F284A43F0030353677B
S113167001AB19462648FEF783FF254B40F20112C1
S11316809A67234B5B6F224A43F00303536701AB12
S113169019462048FEF774FF1E4B00229A671D4B23
S11316A05B6F1C4A43F00303536701AB19461A48A6
S11316B0FEF766FF184B4FF481729A67164B5B6F07
S11316C0154A43F00303536701AB19461348FEF769
S11316D057FF124B40F201129A67104B03225A67CC
S11316E001AB19460E48FEF74BFF0D4B40F2033297
S11316F09A670B4B03225A6700BF09B030BD00BF85
S11317004839000000000140000401400008014085
S1131710000C014000100140001401400040014051
S11317200044014000B583B0034600918DF80730B2
S1131730009B072B4AD801A252F823F05D17000042
S11317406B17000079170000871700009517000039
S1131750A3170000B1170000BF1700009DF8073061
S11317601946204801F0A0FD37E09DF807301946DE
S11317701D4801F099FD30E09DF8073019461B48DB
S113178001F092FD29E09DF807301946184801F050
S11317908BFD22E09DF807301946164801F084FDC0
S11317A01BE09DF807301946134801F07DFD14E055
S11317B09DF807301946114801F076FD0DE09DF8BB
S11317C0073019460E4801F06FFD06E09DF807301A
S11317D01946064801F068FD00BF00BF03B05DF87C
S11317E004FB00BF00000140000401400008014068
S11317F0000C014000100140001401400040014071
S11318000044014000B585B000F0C2F81F4B0393BB
S113181019E0002302930EE0039B1A68029B9B00CD
S11318201A44039B5968029B9B000B4412681A607C
S1131830029B01330293039B9B68029A9A42EBD367
S1131840039B0C330393039B114A9342E1D3114B43
S1131850019314E00023009309E0019B1A68009BA4
S11318609B00134400221A60009B01330093019BE8
S11318705B68009A9A42F0D3019B08330193019B61
S1131880054A9342E6D3FEF7B1FC00BF8C3C00004E
S1131890983C0000983C0000983C000082B0314B1A
S11318A0D3F8943003F00703023B042B49D801A278
S11318B052F823F0D9180000D1180000C91800000C
S11318C039190000E1180000274B1B6801933CE024
S11318D04FF40043019338E0244B1B68019334E038
S11318E0204B9B681B0C03F01F03073B072B1FD8DF
S11318F001A252F823F000BF1919000031190000A9
S113190031190000311900001F19000031190000BD
S1131910251900002B190000154B01930BE0154B02
S1131920019308E0144B019305E0144B019302E08A
S11319300023019300BF08E0114B1B685B0801936F
S113194003E00F4B1B68019300BF064BD3F8003133
S11319501B0A03F01F030133019AB2FBF3F3184689
S113196002B0704700400E401410002010100020F8
S11319700024F4000048E801006CDC0280F0FA0264
S113198018100020014B1B681846704710100020E7
S1131990064B074A9A60054BD3F88830034A43F450
S11319A07003C2F8883000BF704700BF00ED00E04C
S11319B000000000014B1B681846704714100020FB
S11319C000B583B00190019B1F2B04D940F277111D
S11319D0054801F0D9FC0122019B02FA03F31846E1
S11319E003B05DF804FB00BF6439000000B587B0A4
S11319F0039002910192029B1F2B03D991210A4863
S1131A0001F0C2FC039B03F1424303F58013DA00A7
S1131A10029B13449B000593059B019A1A6000BF27
S1131A2007B05DF804FB00BFC039000082B0034B6F
S1131A301B680193019B184602B070471C100020DC
S1131A4000B583B0FFF72AFF0190074BD3F80031AC
S1131A501B0A03F01F030133019A02FB03F3184628
S1131A6003B05DF804FB00BF00400E4000B583B036
S1131A70104800F0ABFE03468DF803309DF80330A8
S1131A80072B05D0092B07D1FFF708FF01900BE0C6
S1131A90FFF7CCFF019007E00023019341F2D661E8
S1131AA0054801F071FC00BF019B184603B05DF8C6
S1131AB004FB00BF06000E00703A000000B585B0BC
S1131AC00190019B002B03D0019B012B07D00DE05B
S1131AD0244800F07BFE03468DF80B300DE02248CD
S1131AE000F074FE03468DF80B3006E041F2F66117
S1131AF01E4801F049FC002330E09DF80B30013B07
S1131B00072B22D801A252F823F000BF2D1B00009E
S1131B104B1B00004B1B00003B1B00004B1B000039
S1131B204B1B0000331B0000431B000000230393E6
S1131B3013E0FFF77BFF03900FE0FFF723FF039011
S1131B400BE0FFF77DFF039007E00023039341F2CE
S1131B500D71064801F018FC00BF039B184605B040
S1131B605DF804FBB8003200B9003400703A00009C
S1131B7000B583B01C4800F029FE03468DF80330FD
S1131B809DF80330043B062B20D801A252F823F021
S1131B90B51B0000AD1B0000CD1B0000BD1B0000E9
S1131BA0CD1B0000CD1B0000C51B00000F4B1B68A4
S1131BB0019313E0FFF7E6FE01900FE0FFF736FF15
S1131BC001900BE00A4B1B68019307E0002301938B
S1131BD041F23771074801F0D7FB00BF019B18465B
S1131BE003B05DF804FB00BF0A7B36001810002028
S1131BF020100020703A000000B585B00190019BD0
S1131C00002B1DD1204800F0E1FD03468DF80B3078
S1131C1000BF9DF80B30043B062B28D801A252F8D4
S1131C2023F000BF571C00004F1C00006F1C000075
S1131C305F1C00006F1C00006F1C0000671C00008C
S1131C4041F25271114801F09FFB002318E0104B40
S1131C501B68039313E0FFF795FE03900FE0FFF773
S1131C60E5FE03900BE00B4B1B68039307E0002396
S1131C70039341F26971054801F086FB00BF039BA1
S1131C80184605B05DF804FB0B7C3800703A000080
S1131C90181000202010002000B583B0244800F064
S1131CA095FD03468DF803309DF80330023B092B64
S1131CB030D801A252F823F0051D00000D1D0000CC
S1131CC0E91C0000FD1C0000151D0000151D00008E
S1131CD0151D0000151D0000E11C0000F11C000092
S1131CE0144B1B6801931DE0FFF74CFE019019E0B3
S1131CF0FFF748FE03465B00019313E00E4B1B689D
S1131D0001930FE0FFF756FE01900BE001F034FB66
S1131D10019007E0002301934FF4BE51074801F0FE
S1131D2033FB00BF019B184603B05DF804FB00BF02
S1131D300C7F3A002010002018100020703A000098
S1131D4010B584B0019000230293019B4D4A934245
S1131D5019D0019B4B4A93420FD8019B4A4A9342A4
S1131D6011D0019B484A934207D8019B474A9342AA
S1131D7009D0019B464A934205D041F613114548C8
S1131D8001F002FB00E000BF019800F01FFD0346D4
S1131D900393019B3B4A934229D0019B394A9342C6
S1131DA02CD8019B384A93421AD0019B364A93425D
S1131DB024D8019B354A934204D0019B344A934270
S1131DC007D01BE0344BD3F8803003F007030393B0
S1131DD01AE0314BD3F8843003F00703039313E084
S1131DE02D4BD3F88C3003F0070303930CE02A4BFC
S1131DF0D3F8883003F00703039305E041F642115A
S1131E00244801F0C1FA00BF039B042B2DD801A282
S1131E1052F823F0651E0000291E0000311E000048
S1131E20411E0000391E000001F0A6FA029024E0D1
S1131E30FFF7C0FD029020E001F0A2FA02901CE03E
S1131E40FFF72CFD0446144BD3F800311B0E03F0AE
S1131E50030301331846FFF7B3FD0346B4FBF3F362
S1131E6002930AE00023029307E00023029341F661
S1131E709411084801F088FA00BF029B184604B088
S1131E8010BD00BF050024000400220002001E0053
S1131E9003002000703A000000400E4082B0019020
S1131EA0094BD3F8443103F00103002B08D100BFE0
S1131EB0054BD3F84021019B1340002BF8D100E0DF
S1131EC000BF02B0704700BF00400E4000B587B0AD
S1131ED001900B468DF8033000230493019B1B0AE9
S1131EE003F00F03013B0E2B72D801A252F823F02A
S1131EF02D1F0000391F0000D11F0000D11F00005A
S1131F00331F0000451F00004F1F0000591F000031
S1131F10651F0000CB1F0000711F00009B1F000005
S1131F20D11F00003F1F0000C51F0000364B059362
S1131F3054E0364B059351E0354B05934EE0354B59
S1131F4005934BE0344B05930123049346E0334B54
S1131F5005931023049341E0314B05934FF48073B0
S1131F6004933BE02F4B05934FF48033049335E007
S1131F702D4B05939DF80330002B14BF0123002340
S1131F80DBB283F00103DBB28DF803309DF803303C
S1131F9003F001038DF8033020E0244B05939DF8F2
S1131FA00330002B14BF01230023DBB283F00103B1
S1131FB0DBB28DF803309DF8033003F001038DF894
S1131FC003300BE01A4B059308E01A4B059305E028
S1131FD041F6B051184801F0D7F911E0019B1B0BF1
S1131FE003F01F030393049B002B02D00498FFF714
S1131FF055FF9DF803301A4603990598FFF7F6FC40
S113200007B05DF804FB00BF00400E40B0400E4036
S1132010C0400E40C4400E40E0400E40E8400E4038
S1132020EC400E40F0400E4060410E4064410E40D2
S1132030F0410E4050410E40703A000010B584B09B
S11320400190019B03F47813B3F5781F00F010821C
S1132050B3F5781F00F21782B3F5681F00F004820D
S1132060B3F5681F00F20F82B3F5601F00F0F7812B
S1132070B3F5601F00F20782B3F5581F00F0EB813F
S1132080B3F5581F00F2FF81B3F5501F00F0D38160
S1132090B3F5501F00F2F781B3F5481F00F0BC817F
S11320A0B3F5481F00F2EF81B3F5401F00F08E81B5
S11320B0B3F5401F00F2E781B3F5381F00F04D81FE
S11320C0B3F5381F00F2DF81B3F5281F00F0328129
S11320D0B3F5281F00F2D781B3F5201F00F08A81E1
S11320E0B3F5201F00F2CF81B3F5101F00F08781F4
S11320F0B3F5101F00F2C781B3F5001F00F03C8157
S1132100B3F5001F00F2BF81B3F5F01F00F0CB80E0
S1132110B3F5F01F00F2B781B3F5E01F00F043817F
S1132120B3F5E01F00F2AF81B3F5D01F00F02981B1
S1132130B3F5D01F00F2A781B3F5C01F00F0E7800C
S1132140B3F5C01F00F29F81B3F5B01F00F0CD803E
S1132150B3F5B01F00F29781B3F5A01F00F0B7806C
S1132160B3F5A01F00F28F81B3F5901F00F0A0809B
S1132170B3F5901F00F28781B3F5801F00F048810A
S1132180B3F5801F00F27F81B3F5602F00F03C812E
S1132190B3F5602F00F27781B3F5402F74D0B3F517
S11321A0402F00F27081B3F5202F4FD0B3F5202FCC
S11321B000F26981B3F5002F39D0B3F5002F00F296
S11321C06281B3F5C02F23D0B3F5C02F00F25B8139
S11321D0B3F5802F0DD0B3F5802F00F25481002B7E
S11321E003D0B3F5003F40D04DE1FFF757FB039018
S11321F051E1FFF753FB0390A94BD3F80C311B0AB1
S1132200C3F308030133039AB2FBF3F3039342E1EC
S1132210FFF744FB0390A24BD3F818311B0AC3F316
S113222008030133039AB2FBF3F3039333E1FFF79B
S113223035FB03909A4BD3F81C311B0AC3F30803F4
S11322400133039AB2FBF3F3039324E1FFF726FB74
S11322500390934BD3F804311B0AC3F308030133EF
S1132260039AB2FBF3F3039315E1FFF717FB039013
S11322708B4BD3F808311B0AC3F308030133039AC9
S1132280B2FBF3F3039306E1FFF708FB0390844BDF
S1132290D3F814311B0A03F01F030133039AB2FB72
S11322A0F3F30393F7E07F48FFF74AFD0390F2E06E
S11322B07C48FFF745FD0390794BD3F820311B0C84
S11322C003F00F03039A22FA03F30393E3E076483F
S11322D0FFF736FD0390724BD3F8303103F003035C
S11322E0039A22FA03F30393D5E06E48FFF728FD1F
S11322F003906B4BD3F8203103F00F031846FFF71C
S11323005FFB0246039BB3FBF2F30393C3E0654810
S1132310FFF716FD0390624BD3F820311B0903F03D
S11323200F031846FFF74CFB0246039BB3FBF2F383
S11323300393B0E05B48FFF703FD0390584BD3F8D9
S113234020311B0B03F007031846FFF739FB024645
S1132350039BB3FBF2F303939DE05248FFF7F0FCB9
S113236003904F4BD3F820311B0A03F00303039A65
S113237022FA03F303938EE04C48FFF7E1FC039049
S113238089E04A48FFF7DCFC0390454BD3F8283139
S113239003F003031846FFF713FB0246039BB3FB4A
S11323A0F2F3039377E04148FFF7CAFC03903C4BF8
S11323B0D3F828311B0903F003031846FFF700FB89
S11323C00246039BB3FBF2F3039364E03748FFF741
S11323D0B7FC0390324BD3F828311B0B03F00303F3
S11323E004331846FFF7ECFA0246039BB3FBF2F3FF
S11323F0039350E02E48FFF7A3FC03904BE02A48D8
S1132400FFF79EFC039046E0FFF730FB039042E0A9
S1132410FFF70CFB03903EE00020FFF74FFB039017
S11324201F4BD3F85C3103F003030133039AB2FB6F
S1132430F3F303932FE00120FFF740FB0390184BC5
S1132440D3F85C311B0C03F003030133039AB2FB92
S1132450F3F303931FE0FFF78BFB03901BE00020D3
S1132460FFF7CAFB039016E0FFF716FC039012E097
S1132470FFF714FA0446019800F08FFF0346B4FBFB
S1132480F3F3039307E0002303934FF4F751094850
S113249000F07AFF00BF039B184604B010BD00BFD4
S11324A000400E4002001E0005002400030020002E
S11324B004002200703A000000B585B00190019B31
S11324C01B0903F00F030293029B013B0B2B00F249
S11324D0538101A252F823F00925000019250000B8
S11324E02925000049250000592500006925000020
S11324F0792500008925000075260000FF260000CC
S11325002727000069270000A24BD3F800311B0ADB
S113251003F01F03039337E19E4BD3F814311B0AD6
S113252003F01F0303932FE19A4BD3F800311B0EE2
S113253003F003030393039B01331846FFF740FAA8
S11325400346013B03931FE1924BD3F80C311B0A62
S1132550C3F30803039317E18E4BD3F818311B0A16
S1132560C3F3080303930FE18A4BD3F81C311B0A0E
S1132570C3F30803039307E1864BD3F808311B0A1E
S1132580C3F308030393FFE0019B834A934230D0D3
S1132590019B814A934264D8019B804A934244D070
S11325A0019B7E4A93425CD8019B7D4A93423CD076
S11325B0019B7B4A934254D8019B7A4A934226D08A
S11325C0019B784A93424CD8019B774A93423AD074
S11325D0019B764A934244D16E4BD3F8203103F0E9
S11325E00F0303930398FFF7EBF90346013B0393AF
S11325F03FE0684BD3F820311B0A03F00303039335
S11326000398FFF7DDF90346013B039331E0614B87
S1132610D3F820311B0903F00F0303930398FFF74A
S1132620CFF90346013B039323E05A4BD3F82031FF
S11326301B0B03F0070303930398FFF7C1F9034649
S1132640013B039315E0534BD3F820311B0C03F0EB
S11326500F0303930398FFF7B3F90346013B039376
S113266007E00023039341F65471514800F08CFEB7
S113267000BF89E0019B4F4A934227D0019B4D4AFA
S1132680934233D8019B4C4A934204D0019B4B4A5A
S113269093420DD02AE03F4BD3F8283103F00303D3
S11326A003930398FFF78CF90346013B039325E05A
S11326B0384BD3F828311B0903F003030393039821
S11326C0FFF77EF90346013B039317E0314BD3F840
S11326D028311B0B03F003030393039B04331846B5
S11326E0FFF76EF90346013B039307E000230393CE
S11326F041F678712E4800F047FE00BF44E0019B8C
S11327002F4A934206D1234BD3F8303103F003030D
S1132710039307E00023039341F68771244800F0F4
S113272033FE00BF30E0019B264A934204D0019B54
S1132730254A934207D00EE0164BD3F85C3103F0E0
S1132740030303930FE0134BD3F85C311B0C03F02A
S11327500303039307E00023039341F69F71144896
S113276000F012FE00BF0FE00A4BD3F804311B0A3D
S1132770C3F30803039307E00023039341F6AC710A
S11327800B4800F001FE00BF039B184605B05DF83E
S113279004FB00BF00400E4080262E0000362C00B3
S11327A080002A0080161800804612008006160059
S11327B0703A00009037300090071A0090171C0000
S11327C0A0091400B8003200B900340000B585B087
S11327D0019001238DF80F30019B03F00F03029346
S11327E0029B013B0B2B00F2B68101A252F823F0AD
S11327F0212800008B280000C92800005929000066
S11328001B29000097290000572B0000C129000054
S11328100F2A0000632A0000AB2A0000F92A0000F6
S1132820B44BD3F8943003F00703023B052B27D8AD
S113283001A252F823F000BF6128000059280000CB
S11328405128000069280000792800007128000040
S113285002238DF80F3017E003238DF80F3013E0B7
S113286004238DF80F300FE00D238DF80F300BE0AB
S11328700E238DF80F3007E00A238DF80F3003E0A4
S113288005238DF80F3000BF75E19A4BD3F88030E3
S113289003F00703042B0ED0042B10D8012B02D015
S11328A0022B04D00BE003238DF80F300BE002233E
S11328B08DF80F3007E00C238DF80F3003E001236F
S11328C08DF80F3000BF56E18A4BD3F8843003F003
S11328D00703013B032B1BD801A252F823F000BFCE
S11328E0F1280000F928000009290000012900004E
S11328F003238DF80F300FE002238DF80F300BE027
S11329000C238DF80F3007E006238DF80F3003E019
S113291001238DF80F3000BF2DE1764BD3F88830BA
S113292003F00703042B0ED0042B10D8012B02D084
S1132930022B04D00BE003238DF80F300BE00223AD
S11329408DF80F3007E00C238DF80F3003E00123DE
S11329508DF80F3000BF0EE1664BD3F88C3003F0D6
S11329600703042B0ED0042B10D8012B02D0022B0A
S113297004D00BE003238DF80F300BE002238DF815
S11329800F3007E00C238DF80F3003E001238DF89E
S11329900F3000BFEFE0574B1B6F03F00303002B16
S11329A005D0012B07D109238DF80F3007E0072349
S11329B08DF80F3003E001238DF80F3000BFDAE00B
S11329C04C4BD3F85C3103F03003302B16D0302B52
S11329D018D8202B0ED0202B14D8002B02D0102B6B
S11329E004D00FE001238DF80F300FE007238DF89A
S11329F00F300BE004238DF80F3007E008238DF827
S1132A000F3003E001238DF80F3000BFB3E0394BE2
S1132A10D3F85C3103F44013B3F5401F1CD0B3F575
S1132A20401F00F2A180B3F5001F11D0B3F5001FC1
S1132A3000F29A80002B03D0B3F5801F04D093E0FA
S1132A4001238DF80F300BE007238DF80F3007E0DA
S1132A5004238DF80F3003E008238DF80F3000BFF6
S1132A6082E0244BD3F8603103F00303032B7DD8B9
S1132A7001A252F823F000BF892A0000912A000025
S1132A80992A0000A12A000005238DF80F300BE0DD
S1132A9004238DF80F3007E007238DF80F3003E08F
S1132AA00A238DF80F3000BF60E0124BD3F8643175
S1132AB003F00303032B5BD801A252F823F000BFF9
S1132AC0D12A0000D92A0000E12A0000E92A0000E6
S1132AD005238DF80F300BE004238DF80F3007E049
S1132AE007238DF80F3003E00A238DF80F3000BF61
S1132AF03EE000BF00400E40224BD3F8F03103F01B
S1132B000703052B36D801A252F823F0252B000029
S1132B102D2B0000352B00003D2B0000452B000021
S1132B204D2B00000A238DF80F3013E004238DF899
S1132B300F300FE00B238DF80F300BE005238DF8D9
S1132B400F3007E002238DF80F3003E003238DF8E4
S1132B500F3000BF0EE000238DF80F3042F2013138
S1132B60094800F011FC06E000BF04E000BF02E0E9
S1132B7000BF00E000BF9DF80F30184605B05DF8B7
S1132B8004FB00BF00400E40703A000000B587B05F
S1132B9003900291019200F00CFC0590039B002B22
S1132BA004D14FF49C710A4800F0EEFB039B1A68B1
S1132BB0029BDB431A400199029B0B401A43039B7F
S1132BC01A60059800F001FC00BF07B05DF804FB33
S1132BD0C83A000000B583B0034600918DF8073071
S1132BE09DF80730002B39D09DF80730012B32D0E7
S1132BF09DF80730022B2BD09DF80730032B24D0EF
S1132C009DF80730042B1DD09DF80730052B16D0F6
S1132C109DF80730062B0FD09DF80730072B08D0FE
S1132C209DF80730082B02D14FF6FF7318E00023FC
S1132C3016E04FF6FF7313E04FF6FF7310E04FF604
S1132C40FF730DE04FF6FF730AE04FF6FF7307E0E2
S1132C504FF6FF7304E04FF6FF7301E04FF6FF7386
S1132C60009AD34003F00103002B04D140F2014148
S1132C700C4800F089FB9DF8072013465B001344C1
S1132C801B010C3303F1804303F508230121009A4F
S1132C9001FA02F21146184600F0AEFB00BF03B081
S1132CA05DF804FB203B000000B583B003460091AF
S1132CB08DF807309DF80730002B39D09DF8073088
S1132CC0012B32D09DF80730022B2BD09DF8073012
S1132CD0032B24D09DF80730042B1DD09DF807301A
S1132CE0052B16D09DF80730062B0FD09DF8073022
S1132CF0072B08D09DF80730082B02D14FF6FF733D
S1132D0018E0002316E04FF6FF7313E04FF6FF734D
S1132D1010E04FF6FF730DE04FF6FF730AE04FF635
S1132D20FF7307E04FF6FF7304E04FF6FF7301E013
S1132D304FF6FF73009AD34003F00103002B04D134
S1132D404FF486610C4800F01FFB9DF807201346E2
S1132D505B0013441B010C3303F1804303F5082388
S1132D600121009A01FA02F21146184600F037FBDD
S1132D7000BF03B05DF804FB203B000000B585B044
S1132D8002910192009303468DF80F309DF80F30A5
S1132D90002B39D09DF80F30012B32D09DF80F3025
S1132DA0022B2BD09DF80F30032B24D09DF80F302D
S1132DB0042B1DD09DF80F30052B16D09DF80F3035
S1132DC0062B0FD09DF80F30072B08D09DF80F303D
S1132DD0082B02D14FF6FF7318E0002316E04FF6DC
S1132DE0FF7313E04FF6FF7310E04FF6FF730DE02F
S1132DF04FF6FF730AE04FF6FF7307E04FF6FF73D9
S1132E0004E04FF6FF7301E04FF6FF73029AD340DC
S1132E1003F00103002B04D14FF4B071324800F0E9
S1132E20B3FA019B002B0FD0009B002B06D09DF81A
S1132E300F3002991846FFF737FF05E09DF80F3071
S1132E4002991846FFF7C6FE029B072B19D89DF876
S1132E500F2013465B0013441B01043303F180432A
S1132E6003F50823029A92000F2101FA02F0029A54
S1132E709200019901FA02F201461846FFF786FE14
S1132E801AE09DF80F2013465B0013441B0108331E
S1132E9003F1804303F50823029A083A92000F21B4
S1132EA001FA02F0029A083A9200019901FA02F238
S1132EB001461846FFF76AFE019B002B0FD1009BC9
S1132EC0002B06D09DF80F3002991846FFF7ECFE50
S1132ED005E09DF80F3002991846FFF77BFE00BF0E
S1132EE005B05DF804FB00BF783B000000B587B077
S1132EF0039002910192029B1F2B03D991210A484E
S1132F0000F042FA039B03F1424303F58013DA0015
S1132F10029B13449B000593059B019A1A6000BF12
S1132F2007B05DF804FB00BFD03B000000B587B0DC
S1132F3003900291019200F03CFA0590039B002B50
S1132F4004D14FF49C710A4800F01EFA039B1A68DE
S1132F50029BDB431A400199029B0B401A43039BDB
S1132F601A60059800F031FA00BF07B05DF804FB61
S1132F70D03B000000B589B00390029101928DF816
S1132F800330019B002B04D140F215115F4800F07F
S1132F90FBF9019B002B00F0B4809DF8033003F093
S1132FA003038DF80330039B1B6823F44072039BD7
S1132FB01A6003989DF803301B021A464FF44071BF
S1132FC0FFF7B4FF029B002B1FD1039B504A93428F
S1132FD004D15048FFF732F8029016E0039B4E4AA2
S1132FE0934204D14D48FFF729F802900DE0039B6A
S1132FF04B4A934204D14B48FFF720F8029004E077
S113300040F22F11414800F0BFF94FF0FF3307930E
S1133010039B1B6803F00203002B13D09DF80330BD
S1133020022B0CD0022B21DC002B02D0012B03D06D
S11330301CE03D4B07931CE03C4B079319E03C4BD1
S1133040079316E09DF80330022B0CD0022B0FDC03
S1133050002B02D0012B03D00AE0334B079308E086
S1133060344B079305E0344B079302E000BF00E0C4
S113307000BF029A079B9A4204D84FF4B2712348C6
S113308000F082F99DF803302C4AD35C0593059B2C
S1133090019A02FB03F30493049B002B05D140F235
S11330A075111A4800F070F92CE0019BDB00029ABC
S11330B0D21A049B13445A1E049BB2FBF3F3013B44
S11330C00693069B002B04DA40F27B110F4800F0B4
S11330D05BF9069BB3F5007F04D34FF4BE710B4834
S11330E000F052F9039B1B6803F00203002B04D089
S11330F0069B002B01D101230693069A039B1A61B8
S113310000E000BF09B05DF804FB00BF283C0000EC
S113311000900840001209000094084000220900B1
S1133120009808400032090080841E00404B4C0087
S1133130809FD50040548900002D3101803C00005F
S113314000B583B001900B468DF80330019B0D4A06
S113315093420CD0019B0C4A934208D0019B0B4A2A
S1133160934204D040F29511094800F00DF9019BF7
S11331709DF8032000211846FFF7B8FE00BF03B0F6
S11331805DF804FB00900840009408400098084053
S1133190283C000000B583B001900091019B1A4ABD
S11331A093420CD0019B194A934208D0019B184AC0
S11331B0934204D04FF4D571164800F0E5F8019B12
S11331C000221A641449019800F023F90198009B25
S11331D05B7883F00103DBB21A460121FFF786FE18
S11331E0009B5968009B9A68009B1B7B0198FFF722
S11331F0C1FE009B1B7819460198FFF7A1FF00BF91
S113320003B05DF804FB00BF009008400094084040
S113321000980840283C0000FFFF070008B5064B53
S1133220044613B10021AFF30080044B1B6803B1C3
S11332309847204600F0ADF800000000441000203C
S113324070B50D4D0D4C641BA4100026A64209D187
S11332500B4D0C4C00F0F4F8641BA4100026A6429D
S113326005D170BD55F8043B98470136EEE755F893
S1133270043B98470136F2E7241000202410002074
S1133280241000202810002082B001900B468DF8F5
S113329003309DF8033063F07F03DBB21A46019BD1
S11332A09A6500BF02B0704782B001900B468DF85A
S11332B0033000BF019B1B6903F04003002BF9D0CE
S11332C09DF80320019B5A6300BF02B0704784B08D
S11332D001900091019B03F1C0630393039B009A47
S11332E01A6000BF04B0704784B001900091019B44
S11332F003F180630393039B009A1A6000BF04B038
S1133300704782B001900091019B009A5A6100BFFE
S113331002B0704782B001900091019B9A69009BB2
S11333201A43019B9A6100BF02B0704784B00190B8
S11333300091019B03F180630393039B009A1A603D
S113334000BF04B0704700B583B00190009108E05D
S1133350019B1B7800991846FEF7E4F9019B0133A1
S11333600193019B1B78002BF2D100BF00BF03B077
S11333705DF804FB00BFFDE74FF4004318467047B7
S11333804FF47A731846704782B00190009100BFE1
S1133390FDE782B0019000BFFDE700B583B0019066
S11333A00198FFF789F803460133184603B05DF826
S11333B004FB82B0EFF310830093009B019372B679
S11333C000BF019B184602B0704782B00190019B78
S11333D0002B01D162B600BF00BF02B0704784B0B9
S11333E001900091019B03F1C0630393039B009A36
S11333F01A6000BF04B0704784B001900091019B33
S113340003F180630393039B009A1A6000BF04B026
S1133410704782B001900091019B009ADA6300BF6B
S113342002B0704702440346934200D1704703F848
S1133430011BF9E70000000000000000000000008C
S1133440F8B500BFF8BC08BC9E467047F8B500BF8D
S1133450F8BC08BC9E467047000000000000000055
S11334600000000000000000000000000000000058
S11334700000000000000000000000000000000048
S1133480433A5C55736572735C4A6F6E617468612C
S11334906E53746F7265795C53696D706C6963699E
S11334A0747953747564696F5C76355F776F726B8A
S11334B073706163655C4E4156434F4D5F46756E54
S11334C06374696F6E616C6974795F546573746950
S11334D06E672F656D5F74696D65722E68000000FC
S11334E0433A2F55736572732F4A6F6E6174686126
S11334F06E53746F7265792F53696D706C6963696B
S1133500747953747564696F2F53444B732F6765D3
S1133510636B6F5F73646B5F322F706C6174666F83
S1133520726D2F656D6C69622F7372632F656D5FA9
S113353074696D65722E6300433A2F557365727317
S11335402F4A6F6E617468616E53746F7265792F60
S113355053696D706C696369747953747564696FC8
S11335602F53444B732F6765636B6F5F73646B5F9B
S1133570322F706C6174666F726D2F656D6C696249
S11335802F7372632F656D5F75736172742E6300A0
S1133590633A5C75736572735C6A6F6E61746861BB
S11335A06E73746F7265795C73696D706C6963694D
S11335B0747973747564696F5C73646B735C676549
S11335C0636B6F5F73646B5F325C706C6174666FA6
S11335D0726D5C656D6C69625C696E635C656D5F80
S11335E06770696F2E680000457870616E6465725B
S11335F0204120456E61626C65640A0D0000000084
S1133600457870616E6465722041205368757464F6
S11336106F776E0A0D000000457870616E64657204
S1133620204220456E61626C65640A0D0000000052
S1133630457870616E6465722042205368757464C5
S11336406F776E0A0D000000457870616E646572D4
S1133650204320456E61626C65640A0D0000000021
S1133660457870616E646572204320536875746494
S11336706F776E0A0D000000456E657420537769FC
S113368074636820456E61626C6564200A0D0000F5
S1133690456E657420737769746368205368757424
S11336A0646F776E200A0D0052533233322041206A
S11336B0456E61626C65640A0D000000525332333A
S11336C0322044697361626C65640A0D0000000075
S11336D05253323332204220456E61626C65640A73
S11336E00D0000005253323332204220446973618A
S11336F0626C65640A0D00004643505520456E61B6
S1133700626C6564200A0D00464350552053687569
S113371074646F776E200A0D000000004643505514
S11337202053687574646F776E202D206275742041
S1133730736F6D657468696E672077656E74207742
S1133740726F6E670A0D0000332E33562052656780
S113375020456E61626C65640A0D0000332E335699
S1133760205265672053687574646F776E0A0D0084
S11337700D0A3520566F6C74206973203A200909AC
S1133780000000000D0A3320566F6C74206973200A
S11337903A200909000000000D0A52533233322046
S11337A041206973203A2009090000000D0A525390
S11337B03233322042206973203A20090900000084
S11337C00D0A45746865726E6574206973203A2029
S11337D0090900000D0A457870616E6465727320F2
S11337E041206973203A2009000000000D0A457841
S11337F070616E646572732042206973203A2009F7
S1133800000000000D0A457870616E6465727320D3
S113381043206973203A2009000000001B5B324AF0
S11338200000000030313233343536373839414204
S1133830434445460000000068656C6C6F20667266
S11338406F6D204E6F6465200A0D000068656C6C16
S11338506F2066726F6D20494D55200A0D000000DF
S113386068656C6C6F2066726F6D205044454D2006
S11338700A0D000068656C6C6F2066726F6D2053D2
S1133880444153200A0D000068656C6C6F20667219
S11338906F6D205468727573746572200A0D000090
S11338A068656C6C6F2066726F6D204643505520BE
S11338B00A0D000068656C6C6F2066726F6D205590
S11338C053424C200A0D00002E2E2F656D5F746943
S11338D06D65722E68000000010100000000000008
S11338E060670100000000004E414B0A0D0000001B
S11338F0633A5C75736572735C6A6F6E6174686158
S11339006E73746F7265795C73696D706C696369E9
S1133910747973747564696F5C73646B735C6765E5
S1133920636B6F5F73646B5F325C706C6174666F42
S1133930726D5C656D6C69625C696E635C656D5F1C
S11339406770696F2E680000050000000000000029
S113395000C201000005000000100000000000008B
S113396000000000633A5C75736572735C6A6F6E85
S1133970617468616E73746F7265795C73696D707C
S11339806C696369747973747564696F5C73646B6F
S1133990735C6765636B6F5F73646B5F325C706CE1
S11339A06174666F726D5C636F6D6D6F6E5C696E72
S11339B0635C736C5F636F6D6D6F6E2E68000000E7
S11339C0633A5C75736572735C6A6F6E6174686187
S11339D06E73746F7265795C73696D706C69636919
S11339E0747973747564696F5C73646B735C676515
S11339F0636B6F5F73646B5F325C706C6174666F72
S1133A00726D5C656D6C69625C696E635C656D5F4B
S1133A106275732E68000000633A5C757365727397
S1133A205C6A6F6E617468616E73746F7265795CE1
S1133A3073696D706C696369747973747564696FA3
S1133A405C73646B735C6765636B6F5F73646B5FFC
S1133A50325C706C6174666F726D5C656D6C69620A
S1133A605C696E635C656D5F636D752E6800000054
S1133A70433A2F55736572732F4A6F6E6174686190
S1133A806E53746F7265792F53696D706C696369D5
S1133A90747953747564696F2F53444B732F67653E
S1133AA0636B6F5F73646B5F322F706C6174666FEE
S1133AB0726D2F656D6C69622F7372632F656D5F14
S1133AC0636D752E63000000633A5C7573657273F1
S1133AD05C6A6F6E617468616E73746F7265795C31
S1133AE073696D706C696369747973747564696FF3
S1133AF05C73646B735C6765636B6F5F73646B5F4C
S1133B00325C706C6174666F726D5C656D6C696259
S1133B105C696E635C656D5F6275732E680000009E
S1133B20633A5C75736572735C6A6F6E6174686125
S1133B306E73746F7265795C73696D706C696369B7
S1133B40747973747564696F5C73646B735C6765B3
S1133B50636B6F5F73646B5F325C706C6174666F10
S1133B60726D5C656D6C69625C696E635C656D5FEA
S1133B706770696F2E680000433A2F55736572733E
S1133B802F4A6F6E617468616E53746F7265792F1A
S1133B9053696D706C696369747953747564696F82
S1133BA02F53444B732F6765636B6F5F73646B5F55
S1133BB0322F706C6174666F726D2F656D6C696203
S1133BC02F7372632F656D5F6770696F2E630000DA
S1133BD0633A5C75736572735C6A6F6E6174686175
S1133BE06E73746F7265795C73696D706C69636907
S1133BF0747973747564696F5C73646B735C676503
S1133C00636B6F5F73646B5F325C706C6174666F5F
S1133C10726D5C656D6C69625C696E635C656D5F39
S1133C206275732E68000000433A2F5573657273F2
S1133C302F4A6F6E617468616E53746F7265792F69
S1133C4053696D706C696369747953747564696FD1
S1133C502F53444B732F6765636B6F5F73646B5FA4
S1133C60322F706C6174666F726D2F656D6C696252
S1133C702F7372632F656D5F6932632E63000000DA
S1073C800809110812
S10B3C8460C5FF7F0100000090
S10F3C8C983C0000001000200B00000019
S1133C983000000030303030303030303030000008
S1133CA880F0FA0200800000C0EA2101C0EA210184
S10F3CB8006CDC02C10100009901000056
S9031805DF
