:1000000000100020891E0000CB390000CB39000011
:10001000CB390000CB390000CB390000CB390000D0
:10002000CB390000CB390000CB390000CB390000C0
:10003000CB390000CB390000CB390000CB390000B0
:10004000CB390000CB390000CB390000CB390000A0
:10005000CB390000D9110000CB390000CB390000AA
:10006000CB390000CB390000CB3900001112000061
:10007000CB390000CB390000F5110000CB3900006E
:10008000CB390000CB390000CB390000CB39000060
:10009000CB390000CB390000CB390000CB39000050
:1000A000CB390000CB390000CB390000CB39000040
:1000B000CB390000CB390000CB390000CB39000030
:1000C000CB390000CB390000CB390000CB39000020
:1000D000CB390000CB390000CB390000CB39000010
:1000E000CB390000CB390000CB390000CB39000000
:1000F000CB390000CB390000CB390000CB390000F0
:10010000CB390000CB390000CB390000CB390000DF
:10011000CB390000CB390000CB390000CB390000CF
:10012000CB390000CB390000CB390000CB390000BF
:10013000CB390000CB390000CB390000CB390000AF
:10014000CB390000CB390000CB390000CB3900009F
:1001500000000000000000000348044B834202D06E
:10016000034B03B1184770471C1000201C100020DF
:10017000000000000548064B1B1AD90F01EBA30134
:10018000491002D0034B03B1184770471C100020E0
:100190001C1000200000000010B5064C237843B965
:1001A000FFF7DAFF044B13B10448AFF300800123DB
:1001B000237010BD58100020000000000C47000004
:1001C00008B5054B1BB105490548AFF30080BDE8F4
:1001D0000840FFF7CFBF00BF000000001C10002048
:1001E0000C470000A3F5803A704700BF174B002B67
:1001F00008BF134B9D46FFF7F5FF00218B460F46C6
:100200001348144A121A03F02FFC0E4B002B00D097
:1002100098470D4B002B00D0984700200021040088
:100220000D000D48002802D00C48AFF3008003F009
:10023000FBF92000290001F04DFC03F0E3F900BFB9
:100240000000080000000000000000000010002076
:100250001C100020601000200000000000000000C2
:1002600082B00190019B1A4A934227D0019B194A00
:10027000934223D0019B184A93421FD0019B174AF7
:1002800093421BD0019B164A934217D0019B154AFB
:10029000934213D0019B144A93420FD0019B134AFF
:1002A00093420BD0019B124A934207D0019B114A03
:1002B000934203D0019B104A934201D1012300E0F5
:1002C000002303F00103DBB2184602B0704700BF01
:1002D000008001400084014000880140008C014002
:1002E00000900140009401400098014000A00140AE
:1002F00000A4014000A8014000AC014000B585B059
:10030000019000910198FFF7ABFF0346002B03D14A
:10031000B421404803F063FB00230393009B1B7848
:1003200083F00103DBB2002B02D0019B02225A6052
:10033000019B00225A62009B9B781A06009BDB7887
:100340001B041A43009BDB799B021A43009B1B7A18
:100350001B021343009A527A1343009A5278002AE0
:1003600001D0402200E000221343009A927A002A32
:1003700001D0802200E000221343009AD27A002AA2
:1003800001D0202200E000221343009A127B002AB1
:1003900001D0102200E000221343009A927B002A31
:1003A00002D04FF4804200E000221343009A527BB7
:1003B000002A01D0082200E0002213430393009B8F
:1003C0001B79002B02D04FF4005200E00022009B6A
:1003D0005B79002B02D04FF0805300E000231343E1
:1003E000009A9279002A02D04FF0005200E00022D9
:1003F0001343039A13430393019B039A1A60009BD0
:100400001B78002B02D0019B01225A6000BF05B06F
:100410005DF804FB203B000000B587B0039002911B
:1004200001928DF8033000230593019B002B04D12A
:1004300040F255114C4803F0D2FA029B002B0CD12C
:10044000039B4A4A934204D1494802F039F9029089
:1004500003E0484802F034F902909DF80330602B25
:1004600034D0602B3FDC402B20D0402B3BDC002BDA
:1004700002D0202B0DD036E0029B1B09019A9A4234
:1004800004D940F28711384803F0A9FA10230593E4
:100490002FE0029BDB08019A9A4204D94FF4C671FF
:1004A000314803F09CFA0823059322E0029B324A6C
:1004B000A2FB03239B08019A9A4204D940F29111AE
:1004C000294803F08CFA0623059312E0029B9B084F
:1004D000019A9A4204D94FF4CB71234803F07FFA72
:1004E0000423059305E04FF4CE711F4803F077FA1B
:1004F00000BF059B002B33D0029B5A01059B01993D
:1005000001FB03F35B0813440493059B019A02FB70
:1005100003F3049AB2FBF3F30493049B203B04938C
:10052000049BDB000493049B144A934204D940F2D9
:10053000B3110D4803F053FA049A104B134004937F
:10054000039B1B6823F06002039B1A60039B1A68DD
:100550009DF803301A43039B1A60039B049A5A6167
:1005600000BF07B05DF804FB783B000000080140C5
:100570005041070040410500ABAAAAAAF8FF7F003E
:1005800000B587B0039002910192019B002B04D12A
:1005900040F2A621164803F022FA029B002B0CD150
:1005A000039B144A934204D1134802F089F8029045
:1005B00003E0124802F084F80290029B5A1E019B4D
:1005C0005B00B2FBF3F30593059B1B020593059AB1
:1005D0000B4B1340002B04D040F2CB21044803F016
:1005E000FEF9039B059A5A6100BF07B05DF804FB52
:1005F000783B0000000801405041070040410500E1
:10060000070080FF00B585B001900B468DF80330E0
:10061000019B1C4A934220D0019B1B4A93421CD051
:10062000019B1A4A934218D0019B194A934214D055
:10063000019B184A934210D0019B174A93420CD059
:10064000019B164A934208D0019B154A934204D05D
:100650004FF43971134803F0C2F99DF80330DB43BE
:100660000393039B03F005030393039B5A00019B31
:10067000DA609DF80320019BDA6000BF05B05DF8E9
:1006800004FB00BF000001400004014000080140DD
:10069000000C0140001001400014014000400140E6
:1006A00000440140783B000000B583B00190009108
:1006B000019B434A934220D0019B424A93421CD063
:1006C000019B414A934218D0019B404A934214D067
:1006D000019B3F4A934210D0019B3E4A93420CD06B
:1006E000019B3D4A934208D0019B3C4A934204D06F
:1006F00040F215313A4803F072F9019800F00EF912
:10070000009B9B7C002B05D0019B1B6843F0804223
:10071000019B1A60009BDB7C002B05D0009B1B7D9E
:100720001946019802F0A4FF009B5B7B1A46009BD0
:100730001B8A1343009AD2891A43019B5A60009B7B
:100740005968009B9A68009B1B7B0198FFF764FE29
:10075000009B5B7D002B05D0019B1B6843F480321E
:10076000019B1A60009B9B7D002B05D0019B1B68A1
:1007700043F40042019B1A60009BDB7D1B0703F0E2
:10078000E042009B1B7E1B0503F4E0031A43019B20
:100790001A66019B5B6F23F03002019B5A67019B35
:1007A0005B6F009A527E1A43019B5A67009B1B782D
:1007B0001A46019BDA6000BF03B05DF804FB00BF7E
:1007C000000001400004014000080140000C01400D
:1007D000001001400014014000400140004401406D
:1007E000783B000000B583B001900091019B444A22
:1007F000934218D0019B434A934214D0019B424A32
:10080000934210D0019B414A93420CD0019B404A35
:10081000934208D0019B3F4A934204D040F2813179
:100820003D4803F0DCF8019800F078F8019B1A6865
:10083000009B1B8A43F001039BB21946009B9B7BE4
:10084000002B02D04FF4806300E000230B431A43D7
:10085000019B1A60019B1B68009A127D002A02D03E
:100860004FF0005200E000221A43019B1A60009BE7
:100870009B7C002B05D0009BDB7C1946019802F085
:10088000F7FE009B1B7B43F48052019B5A60009B48
:100890005968009B9B681A460198FFF771FE009B00
:1008A0005B7B002B02D0019B1022DA60009B5B7DFA
:1008B000002B05D0019B1B6843F48032019B1A601A
:1008C000009B9B7D002B05D0019B1B6843F40042DD
:1008D000019B1A60009BDB7D1B0703F0E042009B3D
:1008E0001B7E1B0503F4E0031A43019B1A66009B61
:1008F0001B781A46019BDA6000BF03B05DF804FB69
:10090000000001400004014000080140000C0140CB
:100910000010014000140140783B000000B583B096
:100920000190019B334A934220D0019B324A93426B
:100930001CD0019B314A934218D0019B304A93420C
:1009400014D0019B2F4A934210D0019B2E4A934210
:100950000CD0019B2D4A934208D0019B2C4A934214
:1009600004D040F25E412B4803F039F8019B40F679
:10097000AA62DA60019B00221A60019B41F2050223
:100980005A60019B00229A60019B00225A61019BE0
:100990000022DA64019B204A9A64019B00221A66B5
:1009A000019B00225A67019B00229A67019B00224B
:1009B000DA67019B0F4A934203D0019B0F4A93428F
:1009C00002D1019B00221A65019B00229A65019BBE
:1009D000094A934207D0019B094A934203D0019BE5
:1009E000084A934202D1019B0022DA6500BF03B09E
:1009F0005DF804FB000001400004014000080140D4
:100A0000000C014000100140001401400040014072
:100A100000440140783B0000F9FF010000B583B0BD
:100A2000034600918DF807309DF80730002B39D030
:100A30009DF80730012B32D09DF80730022B2BD0C8
:100A40009DF80730032B24D09DF80730042B1DD0D0
:100A50009DF80730052B16D09DF80730062B0FD0D8
:100A60009DF80730072B08D09DF80730082B02D1DE
:100A70004FF6FF7318E0002316E04FF6FF7313E004
:100A80004FF6FF7310E04FF6FF730DE04FF6FF7364
:100A90000AE04FF6FF7307E04FF6FF7304E04FF6EE
:100AA000FF7301E04FF6FF73009AD34003F0010398
:100AB000002B04D140F201410C4802F090FF9DF858
:100AC000072013465B0013441B010C3303F18043E2
:100AD00003F508230121009A01FA02F21146184693
:100AE00002F013FE00BF03B05DF804FBD03B000032
:100AF00000B583B0034600918DF807309DF80730AC
:100B0000002B39D09DF80730012B32D09DF80730EB
:100B1000022B2BD09DF80730032B24D09DF80730F3
:100B2000042B1DD09DF80730052B16D09DF80730FB
:100B3000062B0FD09DF80730072B08D09DF8073003
:100B4000082B02D14FF6FF7318E0002316E04FF692
:100B5000FF7313E04FF6FF7310E04FF6FF730DE0E5
:100B60004FF6FF730AE04FF6FF7307E04FF6FF738F
:100B700004E04FF6FF7301E04FF6FF73009AD34095
:100B800003F00103002B04D14FF486610C4802F0FE
:100B900026FF9DF8072013465B0013441B010C330E
:100BA00003F1804303F508230121009A01FA02F2C0
:100BB0001146184602F09CFD00BF03B05DF804FB2F
:100BC000D03B000000B583B0034600918DF807309C
:100BD0009DF80730002B0DD0012B17D102210320E7
:100BE000FFF786FF02210B4802F023FE009B012243
:100BF000DA720BE002210320FFF710FF0221064802
:100C000002F017FE009B0022DA7200BF00BF03B0A3
:100C10005DF804FB283C0000403C000000B583B0B8
:100C2000034600918DF807309DF80730002B11D056
:100C3000012B1BD103210320FFF75AFF02210D488E
:100C400002F0F7FD02210C4802F0F3FD009B0022A8
:100C50001A730BE003210320FFF7E0FE022107488F
:100C600002F0E7FD009B01221A7300BF00BF03B032
:100C70005DF804FB583C0000703C0000843C000020
:100C800000B583B0034600918DF807309DF807301A
:100C9000002B0DD0012B17D104210320FFF728FFD3
:100CA00002210B4802F0C5FD009B01225A730BE0A4
:100CB00004210320FFF7B2FE0221064802F0B9FD2D
:100CC000009B00225A7300BF00BF03B05DF804FB15
:100CD0009C3C0000B43C000000B583B0034600918A
:100CE0008DF807309DF80730002B0DD0012B17D160
:100CF00004210020FFF7FCFE02210B4802F099FDC1
:100D0000009B01225A720BE004210020FFF786FEAF
:100D10000221064802F08DFD009B00225A7200BF9E
:100D200000BF03B05DF804FB1C3D0000303D000037
:100D300000B583B0034600918DF807309DF8073069
:100D4000002B0DD0012B17D105210020FFF7D0FE7D
:100D500002210B4802F06DFD009B01229A720BE00C
:100D600005210020FFF75AFE0221064802F061FD2E
:100D7000009B00229A7200BF00BF03B05DF804FB25
:100D8000443D0000583D000000B583B0034600918B
:100D90008DF807309DF80730002B0DD0012B17D1AF
:100DA0000F210020FFF7A4FE0221114802F041FDAF
:100DB000009B01225A7117E00F210020FFF72EFE41
:100DC00002210C4802F035FD009B00225A710BE015
:100DD0000F210020FFF722FE0221074802F029FD23
:100DE000009B00225A7100BF00BF03B05DF804FBF6
:100DF0006C3D00007C3D0000903D000000B583B0DC
:100E0000034600918DF807309DF80730002B0DD078
:100E1000012B17D102210120FFF76AFE02210B48A6
:100E200002F007FD009B01229A710BE002210120D4
:100E3000FFF7F4FD0221064802F0FBFC009B0022B4
:100E40009A7100BF00BF03B05DF804FBBC3D000019
:100E5000D03D000082B003468DF807309DF9073081
:100E6000002B0CDB9DF8073003F01F0205499DF9AC
:100E700007305B09012000FA02F241F8232000BF8D
:100E800002B0704700E100E082B00190019B1A4A75
:100E9000934227D0019B194A934223D0019B184AC1
:100EA00093421FD0019B174A93421BD0019B164AC5
:100EB000934217D0019B154A934213D0019B144AC9
:100EC00093420FD0019B134A93420BD0019B124ACD
:100ED000934207D0019B114A934203D0019B104AD1
:100EE000934201D1012300E0002303F00103DBB2B0
:100EF000184602B0704700BF0080014000840140E6
:100F000000880140008C01400090014000940140A5
:100F10000098014000A0014000A4014000A8014049
:100F200000AC014082B00190019B0B4A93420BD070
:100F3000019B0A4A934207D0019B094A934203D07E
:100F4000019B084A934202D14FF0FF3301E04FF674
:100F5000FF73184602B0704700A0014000A4014092
:100F600000A8014000AC014000B583B001900091A1
:100F70000198FFF7D7FF0246009B934204D94FF434
:100F80005971054802F02BFD019B009A5A6200BF7F
:100F900003B05DF804FB00BF1843000000B583B048
:100FA00001900B468DF803300198FFF76DFF034663
:100FB000002B04D140F28231084802F010FD9DF868
:100FC0000330002B03D0019B01225A6002E0019BF9
:100FD00002225A6000BF03B05DF804FB1843000012
:100FE00000B583B0019000910198FFF79BFF024686
:100FF000009B934204D940F2BC41054802F0EFFC4B
:10100000019B009ADA6100BF03B05DF804FB00BFEA
:101010001843000000B587B00121154801F098FA87
:1010200001AB00221A605A609A60C3F80B200123BA
:101030008DF8043000238DF8043006238DF8063037
:1010400001AB19460B48FFF759F940F20D330593F0
:1010500005990848FFF7C4FF0121064802F0B6FBD6
:101060000520FFF7F7FE00BF07B05DF804FB00BFE7
:10107000000206000080014000B587B0012114483D
:1010800001F066FA01AB00221A605A609A60C3F858
:101090000B2001238DF8043000238DF804300A233F
:1010A0008DF8063001AB19460A48FFF727F93123BE
:1010B000059305990748FFF793FF0121054802F0C2
:1010C00085FB0E20FFF7C6FE00BF07B05DF804FBEE
:1010D000001204000084014000B585B00190019B1E
:1010E000002B31D000211A48FFF73EFF72B600BF37
:1010F000184B00221A7062B600BF01211448FFF796
:101100004DFF0023039316E000BF124B1B78DBB2A8
:1011100083F00103DBB2002BF7D172B600BF0D4B99
:1011200000221A7062B600BF00210948FFF71CFFB9
:10113000039B01330393039B019A9A42E4D8002155
:101140000348FFF72BFF00E000BF05B05DF804FB8C
:10115000008001405910002000B585B00190019B2E
:10116000002B31D000211A48FFF7FEFE72B600BFF7
:10117000184B00221A7062B600BF01211448FFF715
:101180000DFF0023039316E000BF124B1B78DBB268
:1011900083F00103DBB2002BF7D172B600BF0D4B19
:1011A00000221A7062B600BF00210948FFF7DCFE7A
:1011B000039B01330393039B019A9A42E4D80021D5
:1011C0000348FFF7EBFE00E000BF05B05DF804FB4D
:1011D000008401405A10002008B50121034802F0A4
:1011E000ECFA034B01221A7000BF08BD00800140D9
:1011F0005910002008B50121034802F0DEFA034B24
:1012000001221A7000BF08BD008401405A1000205E
:1012100000B583B0434B5B6B0193019B03F08003EC
:10122000002B10D00221404802F003FB3F4B062266
:101230001A703C4B02225A603A4B8022DA633C4BD4
:1012400001221A706AE0394B1B78DBB2013B062B96
:1012500059D801A252F823F0751200009B12000029
:1012600007130000BF12000007130000071300005F
:10127000E71200000221312000F02EFD019B03F057
:101280004003002B43D0274B0022DA62274B022277
:101290001A70244B4022DA6339E0019B03F01003FB
:1012A000002B36D01F4B01225A601E4B3322DA62CC
:1012B0001E4B04221A701B4B1022DA6329E0019B9B
:1012C00003F02003002B26D0164BDB69DAB2194B52
:1012D0001A70144B0A225A60144B07221A70114BD1
:1012E0002022DA6317E0019B03F48073002B14D0F3
:1012F0000F4B01221A700D4B00221A70094B4FF44C
:101300008072DA6309E0074A019BD36306E000BFFD
:1013100004E000BF02E000BF00E000BF03B05DF8E2
:1013200004FB00BF00900840384300005B10002021
:101330005C1000205D10002000B583B003460091D2
:101340008DF807309DF80730002B39D09DF8073015
:10135000012B32D09DF80730022B2BD09DF807309F
:10136000032B24D09DF80730042B1DD09DF80730A7
:10137000052B16D09DF80730062B0FD09DF80730AF
:10138000072B08D09DF80730082B02D14FF6FF73CA
:1013900018E0002316E04FF6FF7313E04FF6FF73DB
:1013A00010E04FF6FF730DE04FF6FF730AE04FF6C3
:1013B000FF7307E04FF6FF7304E04FF6FF7301E0A1
:1013C0004FF6FF73009AD34003F00103002B04D1C2
:1013D00040F201410C4802F002FB9DF80720134641
:1013E0005B0013441B010C3303F1804303F5082316
:1013F0000121009A01FA02F21146184602F0FFF9A3
:1014000000BF03B05DF804FB4043000000B583B0AB
:10141000034600918DF807309DF80730002B39D036
:101420009DF80730012B32D09DF80730022B2BD0CE
:101430009DF80730032B24D09DF80730042B1DD0D6
:101440009DF80730052B16D09DF80730062B0FD0DE
:101450009DF80730072B08D09DF80730082B02D1E4
:101460004FF6FF7318E0002316E04FF6FF7313E00A
:101470004FF6FF7310E04FF6FF730DE04FF6FF736A
:101480000AE04FF6FF7307E04FF6FF7304E04FF6F4
:10149000FF7301E04FF6FF73009AD34003F001039E
:1014A000002B04D14FF486610C4802F098FA9DF8A5
:1014B000072013465B0013441B010C3303F18043E8
:1014C00003F508230121009A01FA02F21146184699
:1014D00002F088F900BF03B05DF804FB4043000050
:1014E0004FF0804301225A64164BD3F8B030154AAE
:1014F00043F00103C2F8B030124BD3F8E030114A88
:1015000043F00803C2F8E0300F4B1B680E4A43F467
:10151000805313600B4BD3F8E0300A4A23F00803E2
:10152000C2F8E030074BD3F8B030064A23F001038D
:10153000C2F8B030054B1B68044A43F4F84313600B
:1015400000BF704700400E4034400540A4310E40BB
:1015500008B5FFF7C5FF0121F84800F0F9FF0121A8
:10156000F74800F0F5FF0121F64800F0F1FF0121F6
:10157000F54800F0EDFF0121F44800F0E9FF0121FA
:10158000F34800F0E5FF0121F24800F0E1FF0121FE
:10159000F14800F0DDFF0121F04800F0D9FF012102
:1015A000EF4800F0D5FF0121EE4800F0D1FF002305
:1015B00001220A21022001F06DFF012304220B21E8
:1015C000022001F067FF012304220821022001F01C
:1015D00061FF002301220121032001F05BFF0123B1
:1015E00004220021032001F055FF002301220121E4
:1015F000052001F04FFF012304220021052001F006
:1016000049FF012304220521052001F043FF0023A7
:1016100001220721042001F03DFF012304220621BD
:10162000042001F037FF012304220421042001F0EB
:1016300031FF01230F220821012001F02BFF01239C
:1016400005220721012001F025FF012305220421A5
:10165000022001F01FFF4FF00111022001F0D0FE27
:101660004FF00111012001F0CBFE012304220A21D9
:10167000002001F00FFF0A210020FFF7C7FE002322
:1016800001220921042001F005FF0023012201218C
:10169000012001F0FFFE012304220621002001F0B9
:1016A000F9FE002301220121042001F0F3FE0123B1
:1016B00004220021042001F0EDFE00230122032179
:1016C000042001F0E7FE012304220221042001F09E
:1016D000E1FE012304220121002001F0DBFE0121B3
:1016E0000020FFF729FE012304220221002001F03F
:1016F000D1FE02210020FFF71FFE01230422032157
:10170000002001F0C7FE03210020FFF715FE012392
:1017100004220F21002001F0BDFE0F210020FFF761
:101720000BFE012304220421002001F0B3FE04215A
:101730000020FFF701FE012304220521002001F013
:10174000A9FE05210020FFF7F7FD01230422022155
:10175000012001F09FFE02210120FFF7EDFD012392
:1017600004220F21002001F095FE0F210020FFF739
:10177000E3FD012304220A21042001F08BFE0A214B
:101780000420FFF7D9FD012304220F21042001F0DA
:1017900081FE0F210420FFF7CFFD012304220E213B
:1017A000042001F077FE0E210420FFF7C5FD012380
:1017B00004220C21052001F06DFE0C210520FFF70D
:1017C000BBFD012304220821042001F063FE08214F
:1017D0000420FFF7B1FD012304220121022001F0C2
:1017E00059FE01210220FFF7A7FD012304220B214E
:1017F000002001F04FFE0B210020FFF79DFD01238B
:1018000004220721022001F045FE07210220FFF7F4
:1018100093FD012304220921022001F03BFE09214E
:101820000220FFF789FD012304220621012001F097
:1018300031FE06210120FFF77FFD01230422022152
:10184000032001F027FE02210320FFF775FD01238D
:1018500004220321032001F01DFE03210320FFF7D2
:101860006BFD012304220421032001F013FE042157
:101870000320FFF761FD4FF00111032001F0C0FDCF
:101880004FF00111002001F0BBFD012304220921CA
:10189000002001F0FFFD09210020FFF7B7FD012323
:1018A00004220821002001F0F5FD08210020FFF7A7
:1018B000ADFD012304220721002001F0EBFD0721EB
:1018C0000020FFF7A3FD012304220A21002001F0DC
:1018D000E1FD0A210020FFF799FD012304220021E8
:1018E000002001F0D7FD00210020FFF78FFD01232C
:1018F00004220A21012001F0CDFD0A210120FFF779
:101900001BFD012304220921012001F0C3FD09214F
:101910000120FFF711FD012304220E21002001F018
:10192000B9FD0E210020FFF707FD012304220D2140
:10193000012001F0AFFD0D21012015E0404105001F
:1019400000550A0000120900007204000082040021
:101950000092060000A2040000B2040000C20400CD
:10196000004E0400005E0400FFF7E6FC01230422A1
:101970000C21002001F08EFD0C210020FFF7DCFC83
:10198000012304220521012001F084FD052101200D
:10199000FFF7D2FC012304220B21052001F07AFD80
:1019A0000B210520FFF7C8FC012304220A21052092
:1019B00001F070FD0A210520FFF7BEFC012304227F
:1019C0000521032001F066FD05210320FFF7B4FC8B
:1019D000012304220221022001F05CFD02210220E9
:1019E000FFF7AAFC002301220521022001F052FD8D
:1019F000FFF710FBFFF740FB00F0CEF800BF08BD7B
:101A000000B583B0034600918DF807309DF807308C
:101A1000002B39D09DF80730012B32D09DF80730CC
:101A2000022B2BD09DF80730032B24D09DF80730D4
:101A3000042B1DD09DF80730052B16D09DF80730DC
:101A4000062B0FD09DF80730072B08D09DF80730E4
:101A5000082B02D14FF6FF7318E0002316E04FF673
:101A6000FF7313E04FF6FF7310E04FF6FF730DE0C6
:101A70004FF6FF730AE04FF6FF7307E04FF6FF7370
:101A800004E04FF6FF7301E04FF6FF73009AD34076
:101A900003F00103002B04D14FF486610C4801F0E0
:101AA0009EFF9DF8072013465B0013441B010C3377
:101AB00003F1804303F508230121009A01FA02F2A1
:101AC0001146184601F0A8FE00BF03B05DF804FB04
:101AD000FC43000000B583B0FFF73AFD2A4B0193A9
:101AE00001990120FFF750F96420FFF735FB0199B8
:101AF0000120FFF783F96420FFF72EFB0221234822
:101B000001F097FE01990120FFF75CF8019901208F
:101B1000FFF784F801990120FFF7B2F8002001F0E7
:101B200001FE002001F017FE002001F02DFE032130
:101B30000320FFF765FF02210320FFF761FF042167
:101B40000320FFF75DFF01990120FFF7C5F8019918
:101B50000120FFF7EDF86420FFF7FEFA012001F005
:101B60007FFE022001F07CFE032001F079FE64205C
:101B7000FFF7F2FA064801F013FF0221054801F0D1
:101B800058FE00BFF3E700BF3410002054440000AB
:101B90005C4400006444000030B58FB0444B07AC97
:101BA0001D460FCD0FC495E8070084E80700414BA0
:101BB0006C461D460FCD0FC495E8070084E807006A
:101BC00007AB19463C48FEF76FFD3B4B40F2022243
:101BD0009A67394B5B6F384A43F00303536707AB8F
:101BE00019463648FEF760FD344B40F201129A6701
:101BF000324B5B6F314A43F00303536707AB19461F
:101C00002F48FEF751FD2E4B40F205529A672C4BA0
:101C10005B6F2B4A43F00303536707AB1946294810
:101C2000FEF742FD274B40F201129A67254B5B6F8E
:101C3000244A43F0030353676B4619462248FEF7D4
:101C4000D1FD214B00229A671F4B5B6F1E4A43F068
:101C50000B03536707AB19461C48FEF725FD1B4BCA
:101C60004FF481729A67194B5B6F184A43F0030374
:101C7000536707AB19461648FEF716FD144B40F2A2
:101C800001129A67124B03225A6707AB1946114893
:101C9000FEF70AFD0F4B40F203329A670D4B032209
:101CA0005A6705210848FEF7ADFC00BF0FB030BDF4
:101CB000684400008444000000000140000401402A
:101CC00000080140000C01400010014000140140D8
:101CD000004001400044014000B583B0034600913C
:101CE0008DF80730009B072B4AD801A252F823F049
:101CF000111D00001F1D00002D1D00003B1D0000D8
:101D0000491D0000571D0000651D0000731D0000E7
:101D10009DF807301946204801F0D7FC37E09DF8C0
:101D2000073019461D4801F0D0FC30E09DF807301F
:101D300019461B4801F0C9FC29E09DF807301946F7
:101D4000184801F0C2FC22E09DF8073019461648F9
:101D500001F0BBFC1BE09DF807301946134801F069
:101D6000B4FC14E09DF807301946114801F0ADFCB1
:101D70000DE09DF8073019460E4801F0A6FC06E07C
:101D80009DF807301946064801F09FFC00BF00BFD0
:101D900003B05DF804FB00BF0000014000040140F7
:101DA00000080140000C01400010014000140140F7
:101DB000004001400044014010B584B0044608468C
:101DC00011461A4623468DF8073003468DF8063033
:101DD0000B468DF8053013468DF804309DF806301B
:101DE0005B015BB203F060035BB263F07F035AB246
:101DF0009DF9053003F01F035BB213435BB28DF80E
:101E00000F309DF80730032B0ED0032B10DC012B75
:101E100002D0022B04D00BE0012001F083FC07E08C
:101E2000012001F098FC03E0012001F0ADFC00BFAF
:101E30000120FFF751F99DF80F301946114801F0C4
:101E400027FC9DF8043019460E4801F021FC9DF84E
:101E50000730032B0ED0032B10DC012B02D0022BFA
:101E600004D00BE0002001F05DFC07E0002001F051
:101E700072FC03E0002001F087FC00BF00BF04B04B
:101E800010BD00BF0010014000B585B000F0C2F8E1
:101E90001F4B039319E0002302930EE0039B1A6883
:101EA000029B9B001A44039B5968029B9B000B44B6
:101EB00012681A60029B01330293039B9B68029A8B
:101EC0009A42EBD3039B0C330393039B114A934237
:101ED000E1D3114B019314E00023009309E0019B2F
:101EE0001A68009B9B00134400221A60009B013378
:101EF0000093019B5B68009A9A42F0D3019B0833E0
:101F00000193019B054A9342E6D3FEF76FF900BFA8
:101F10001447000020470000204700002047000031
:101F200082B0314BD3F8943003F00703023B042B0B
:101F300049D801A252F823F05D1F0000551F000090
:101F40004D1F0000BD1F0000651F0000274B1B68D0
:101F500001933CE04FF40043019338E0244B1B68AD
:101F6000019334E0204B9B681B0C03F01F03073BDD
:101F7000072B1FD801A252F823F000BF9D1F0000BD
:101F8000B51F0000B51F0000B51F0000A31F000013
:101F9000B51F0000A91F0000AF1F0000154B0193E3
:101FA0000BE0154B019308E0144B019305E0144B33
:101FB000019302E00023019300BF08E0114B1B686E
:101FC0005B08019303E00F4B1B68019300BF064BB6
:101FD000D3F800311B0A03F01F030133019AB2FB4F
:101FE000F3F3184602B0704700400E400410002082
:101FF000001000200024F4000048E801006CDC021E
:1020000080F0FA0208100020014B1B681846704748
:1020100000100020064B074A9A60054BD3F8883021
:10202000034A43F47003C2F8883000BF704700BF12
:1020300000ED00E000000000014B1B6818467047EF
:102040000410002000B583B00190019B1F2B04D920
:1020500040F27711054801F0C2FC0122019B02FA0F
:1020600003F3184603B05DF804FB00BFA044000072
:1020700000B587B0039002910192029B1F2B03D9F8
:1020800091210A4801F0ABFC039B03F1424303F5A5
:102090008013DA00029B13449B000593059B019A71
:1020A0001A6000BF07B05DF804FB00BFFC440000ED
:1020B00082B0034B1B680193019B184602B0704726
:1020C0000C10002000B583B0FFF72AFF0190074BEA
:1020D000D3F800311B0A03F01F030133019A02FBFE
:1020E00003F3184603B05DF804FB00BF00400E4048
:1020F00000B583B0104800F0ABFE03468DF8033006
:102100009DF80330072B05D0092B07D1FFF708FFF7
:1021100001900BE0FFF7CCFF019007E00023019353
:1021200041F2D661054801F05AFC00BF019B1846F8
:1021300003B05DF804FB00BF06000E00AC450000D4
:1021400000B585B00190019B002B03D0019B012BB2
:1021500007D00DE0244800F07BFE03468DF80B30DD
:102160000DE0224800F074FE03468DF80B3006E0C7
:1021700041F2F6611E4801F032FC002330E09DF888
:102180000B30013B072B22D801A252F823F000BFED
:10219000B1210000CF210000CF210000BF210000AD
:1021A000CF210000CF210000B7210000C72100008F
:1021B0000023039313E0FFF77BFF03900FE0FFF78B
:1021C00023FF03900BE0FFF77DFF039007E0002360
:1021D000039341F20D71064801F001FC00BF039B1F
:1021E000184605B05DF804FBB8003200B9003400B1
:1021F000AC45000000B583B01C4800F029FE034642
:102200008DF803309DF80330043B062B20D801A243
:1022100052F823F039220000312200005122000040
:1022200041220000512200005122000049220000FA
:102230000F4B1B68019313E0FFF7E6FE01900FE0E0
:10224000FFF736FF01900BE00A4B1B68019307E094
:102250000023019341F23771074801F0C0FB00BF32
:10226000019B184603B05DF804FB00BF0A7B3600F3
:102270000810002010100020AC45000000B585B00B
:102280000190019B002B1DD1204800F0E1FD034689
:102290008DF80B3000BF9DF80B30043B062B28D87F
:1022A00001A252F823F000BFDB220000D32200007D
:1022B000F3220000E3220000F3220000F3220000DA
:1022C000EB22000041F25271114801F088FB00231B
:1022D00018E0104B1B68039313E0FFF795FE039083
:1022E0000FE0FFF7E5FE03900BE00B4B1B68039339
:1022F00007E00023039341F26971054801F06FFB89
:1023000000BF039B184605B05DF804FB0B7C38004A
:10231000AC450000081000201010002000B583B06C
:10232000244800F095FD03468DF803309DF80330F6
:10233000023B092B30D801A252F823F08923000078
:10234000912300006D2300008123000099230000E9
:1023500099230000992300009923000065230000C1
:1023600075230000144B1B6801931DE0FFF74CFE22
:10237000019019E0FFF748FE03465B00019313E06C
:102380000E4B1B6801930FE0FFF756FE01900BE028
:1023900001F01DFB019007E0002301934FF4BE51B3
:1023A000074801F01CFB00BF019B184603B05DF815
:1023B00004FB00BF0C7F3A00101000200810002022
:1023C000AC45000010B584B0019000230293019B3E
:1023D0004D4A934219D0019B4B4A93420FD8019B1F
:1023E0004A4A934211D0019B484A934207D8019B25
:1023F000474A934209D0019B464A934205D041F691
:102400001311454801F0EBFA00E000BF019800F01D
:102410001FFD03460393019B3B4A934229D0019B36
:10242000394A93422CD8019B384A93421AD0019BD7
:10243000364A934224D8019B354A934204D0019BEB
:10244000344A934207D01BE0344BD3F8803003F07A
:10245000070303931AE0314BD3F8843003F00703EA
:10246000039313E02D4BD3F88C3003F00703039351
:102470000CE02A4BD3F8883003F00703039305E000
:1024800041F64211244801F0AAFA00BF039B042B35
:102490002DD801A252F823F0E9240000AD24000059
:1024A000B5240000C5240000BD24000001F08FFA0F
:1024B000029024E0FFF7C0FD029020E001F08BFACB
:1024C00002901CE0FFF72CFD0446144BD3F80031BA
:1024D0001B0E03F0030301331846FFF7B3FD034659
:1024E000B4FBF3F302930AE00023029307E0002316
:1024F000029341F69411084801F071FA00BF029B63
:10250000184604B010BD00BF0500240004002200DE
:1025100002001E0003002000AC45000000400E40F9
:1025200082B00190094BD3F8443103F00103002B32
:1025300008D100BF054BD3F84021019B1340002B6D
:10254000F8D100E000BF02B0704700BF00400E406D
:1025500000B587B001900B468DF80330002304933B
:10256000019B1B0A03F00F03013B0E2B72D801A243
:1025700052F823F0B1250000BD25000055260000CB
:1025800055260000B7250000C9250000D32500000E
:10259000DD250000E92500004F260000F52500009C
:1025A0001F26000055260000C32500004926000014
:1025B000364B059354E0364B059351E0354B05936C
:1025C0004EE0354B05934BE0344B059301230493C8
:1025D00046E0334B05931023049341E0314B0593C0
:1025E0004FF4807304933BE02F4B05934FF48033FB
:1025F000049335E02D4B05939DF80330002B14BF59
:1026000001230023DBB283F00103DBB28DF803303A
:102610009DF8033003F001038DF8033020E0244BD4
:1026200005939DF80330002B14BF01230023DBB278
:1026300083F00103DBB28DF803309DF8033003F023
:1026400001038DF803300BE01A4B059308E01A4B99
:10265000059305E041F6B051184801F0C0F911E0CA
:10266000019B1B0B03F01F030393049B002B02D061
:102670000498FFF755FF9DF803301A460399059813
:10268000FFF7F6FC07B05DF804FB00BF00400E400A
:10269000B0400E40C0400E40C4400E40E0400E40EE
:1026A000E8400E40EC400E40F0400E4060410E40CD
:1026B00064410E40F0410E4050410E40AC450000D8
:1026C00010B584B00190019B03F47813B3F5781F23
:1026D00000F01082B3F5781F00F21782B3F5681F7F
:1026E00000F00482B3F5681F00F20F82B3F5601F9B
:1026F00000F0F781B3F5601F00F20782B3F5581FB1
:1027000000F0EB81B3F5581F00F2FF81B3F5501FC5
:1027100000F0D381B3F5501F00F2F781B3F5481FE5
:1027200000F0BC81B3F5481F00F2EF81B3F5401F04
:1027300000F08E81B3F5401F00F2E781B3F5381F3A
:1027400000F04D81B3F5381F00F2DF81B3F5281F8B
:1027500000F03281B3F5281F00F2D781B3F5201FB6
:1027600000F08A81B3F5201F00F2CF81B3F5101F6E
:1027700000F08781B3F5101F00F2C781B3F5001F89
:1027800000F03C81B3F5001F00F2BF81B3F5F01FEC
:1027900000F0CB80B3F5F01F00F2B781B3F5E01F76
:1027A00000F04381B3F5E01F00F2AF81B3F5D01F15
:1027B00000F02981B3F5D01F00F2A781B3F5C01F47
:1027C00000F0E780B3F5C01F00F29F81B3F5B01FA2
:1027D00000F0CD80B3F5B01F00F29781B3F5A01FD4
:1027E00000F0B780B3F5A01F00F28F81B3F5901F02
:1027F00000F0A080B3F5901F00F28781B3F5801F31
:1028000000F04881B3F5801F00F27F81B3F5602F9F
:1028100000F03C81B3F5602F00F27781B3F5402FD3
:1028200074D0B3F5402F00F27081B3F5202F4FD054
:10283000B3F5202F00F26981B3F5002F39D0B3F53D
:10284000002F00F26281B3F5C02F23D0B3F5C02F63
:1028500000F25B81B3F5802F0DD0B3F5802F00F22D
:102860005481002B03D0B3F5003F40D04DE1FFF77A
:1028700057FB039051E1FFF753FB0390A94BD3F8AB
:102880000C311B0AC3F308030133039AB2FBF3F3C1
:10289000039342E1FFF744FB0390A24BD3F81831B6
:1028A0001B0AC3F308030133039AB2FBF3F3039348
:1028B00033E1FFF735FB03909A4BD3F81C311B0A29
:1028C000C3F308030133039AB2FBF3F3039324E148
:1028D000FFF726FB0390934BD3F804311B0AC3F395
:1028E00008030133039AB2FBF3F3039315E1FFF7F7
:1028F00017FB03908B4BD3F808311B0AC3F3080373
:102900000133039AB2FBF3F3039306E1FFF708FBED
:102910000390844BD3F814311B0A03F01F030133D7
:10292000039AB2FBF3F30393F7E07F48FFF74AFD06
:102930000390F2E07C48FFF745FD0390794BD3F814
:1029400020311B0C03F00F03039A22FA03F30393C5
:10295000E3E07648FFF736FD0390724BD3F8303151
:1029600003F00303039A22FA03F30393D5E06E48BE
:10297000FFF728FD03906B4BD3F8203103F00F03D2
:102980001846FFF75FFB0246039BB3FBF2F303938A
:10299000C3E06548FFF716FD0390624BD3F8203182
:1029A0001B0903F00F031846FFF74CFB0246039B7D
:1029B000B3FBF2F30393B0E05B48FFF703FD039032
:1029C000584BD3F820311B0B03F007031846FFF7D1
:1029D00039FB0246039BB3FBF2F303939DE052489D
:1029E000FFF7F0FC03904F4BD3F820311B0A03F0A4
:1029F0000303039A22FA03F303938EE04C48FFF794
:102A0000E1FC039089E04A48FFF7DCFC0390454B6A
:102A1000D3F8283103F003031846FFF713FB0246EF
:102A2000039BB3FBF2F3039377E04148FFF7CAFC43
:102A300003903C4BD3F828311B0903F003031846DD
:102A4000FFF700FB0246039BB3FBF2F3039364E042
:102A50003748FFF7B7FC0390324BD3F828311B0BF4
:102A600003F0030304331846FFF7ECFA0246039B16
:102A7000B3FBF2F3039350E02E48FFF7A3FC03905F
:102A80004BE02A48FFF79EFC039046E0FFF730FB3F
:102A9000039042E0FFF70CFB03903EE00020FFF7BD
:102AA0004FFB03901F4BD3F85C3103F0030301335A
:102AB000039AB2FBF3F303932FE00120FFF740FBEF
:102AC0000390184BD3F85C311B0C03F00303013364
:102AD000039AB2FBF3F303931FE0FFF78BFB039022
:102AE0001BE00020FFF7CAFB039016E0FFF716FC7F
:102AF000039012E0FFF714FA0446019800F078FF03
:102B00000346B4FBF3F3039307E0002303934FF46E
:102B1000F751094800F063FF00BF039B184604B05B
:102B200010BD00BF00400E4002001E000500240042
:102B30000300200004002200AC45000000B585B071
:102B40000190019B1B0903F00F030293029B013BC1
:102B50000B2B00F2538101A252F823F08D2B0000C1
:102B60009D2B0000AD2B0000CD2B0000DD2B0000C5
:102B7000ED2B0000FD2B00000D2C0000F92C0000B7
:102B8000832D0000AB2D0000ED2D0000A24BD3F8EB
:102B900000311B0A03F01F03039337E19E4BD3F868
:102BA00014311B0A03F01F0303932FE19A4BD3F850
:102BB00000311B0E03F003030393039B01331846FC
:102BC000FFF740FA0346013B03931FE1924BD3F812
:102BD0000C311B0AC3F30803039317E18E4BD3F8A0
:102BE00018311B0AC3F3080303930FE18A4BD3F890
:102BF0001C311B0AC3F30803039307E1864BD3F888
:102C000008311B0AC3F308030393FFE0019B834AC7
:102C1000934230D0019B814A934264D8019B804A01
:102C2000934244D0019B7E4A93425CD8019B7D4AEB
:102C300093423CD0019B7B4A934254D8019B7A4AF1
:102C4000934226D0019B784A93424CD8019B774A05
:102C500093423AD0019B764A934244D16E4BD3F8CB
:102C6000203103F00F0303930398FFF7EBF90346BA
:102C7000013B03933FE0684BD3F820311B0A03F07C
:102C8000030303930398FFF7DDF90346013B039326
:102C900031E0614BD3F820311B0903F00F0303939C
:102CA0000398FFF7CFF90346013B039323E05A4B08
:102CB000D3F820311B0B03F0070303930398FFF7AE
:102CC000C1F90346013B039315E0534BD3F8203180
:102CD0001B0C03F00F0303930398FFF7B3F90346AC
:102CE000013B039307E00023039341F654715148DD
:102CF00000F075FE00BF89E0019B4F4A934227D048
:102D0000019B4D4A934233D8019B4C4A934204D0D5
:102D1000019B4B4A93420DD02AE03F4BD3F8283118
:102D200003F0030303930398FFF78CF90346013B79
:102D3000039325E0384BD3F828311B0903F0030334
:102D400003930398FFF77EF90346013B039317E0D3
:102D5000314BD3F828311B0B03F003030393039B80
:102D600004331846FFF76EF90346013B039307E06F
:102D70000023039341F678712E4800F030FE00BF27
:102D800044E0019B2F4A934206D1234BD3F83031C4
:102D900003F00303039307E00023039341F68771D5
:102DA000244800F01CFE00BF30E0019B264A9342FD
:102DB00004D0019B254A934207D00EE0164BD3F86E
:102DC0005C3103F0030303930FE0134BD3F85C3142
:102DD0001B0C03F00303039307E00023039341F666
:102DE0009F71144800F0FBFD00BF0FE00A4BD3F8C1
:102DF00004311B0AC3F30803039307E00023039382
:102E000041F6AC710B4800F0EAFD00BF039B184689
:102E100005B05DF804FB00BF00400E4080262E0088
:102E200000362C0080002A00801618008046120010
:102E300080061600AC4500009037300090071A005D
:102E400090171C00A0091400B8003200B90034002B
:102E500000B585B0019001238DF80F30019B03F080
:102E60000F030293029B013B0B2B00F2B68101A2E0
:102E700052F823F0A52E00000F2F00004D2F000068
:102E8000DD2F00009F2F00001B300000DB31000011
:102E90004530000093300000E73000002F31000083
:102EA0007D310000B44BD3F8943003F00703023BAC
:102EB000052B27D801A252F823F000BFE52E000011
:102EC000DD2E0000D52E0000ED2E0000FD2E0000AE
:102ED000F52E000002238DF80F3017E003238DF844
:102EE0000F3013E004238DF80F300FE00D238DF821
:102EF0000F300BE00E238DF80F3007E00A238DF81A
:102F00000F3003E005238DF80F3000BF75E19A4BB9
:102F1000D3F8803003F00703042B0ED0042B10D815
:102F2000012B02D0022B04D00BE003238DF80F30CD
:102F30000BE002238DF80F3007E00C238DF80F30E3
:102F400003E001238DF80F3000BF56E18A4BD3F820
:102F5000843003F00703013B032B1BD801A252F876
:102F600023F000BF752F00007D2F00008D2F000083
:102F7000852F000003238DF80F300FE002238DF81A
:102F80000F300BE00C238DF80F3007E006238DF88F
:102F90000F3003E001238DF80F3000BF2DE1764B99
:102FA000D3F8883003F00703042B0ED0042B10D87D
:102FB000012B02D0022B04D00BE003238DF80F303D
:102FC0000BE002238DF80F3007E00C238DF80F3053
:102FD00003E001238DF80F3000BF0EE1664BD3F8FC
:102FE0008C3003F00703042B0ED0042B10D8012BD8
:102FF00002D0022B04D00BE003238DF80F300BE03E
:1030000002238DF80F3007E00C238DF80F3003E01A
:1030100001238DF80F3000BFEFE0574B1B6F03F01B
:103020000303002B05D0012B07D109238DF80F30A6
:1030300007E007238DF80F3003E001238DF80F30F0
:1030400000BFDAE04C4BD3F85C3103F03003302B97
:1030500016D0302B18D8202B0ED0202B14D8002BB4
:1030600002D0102B04D00FE001238DF80F300FE0B9
:1030700007238DF80F300BE004238DF80F3007E0A5
:1030800008238DF80F3003E001238DF80F3000BFC7
:10309000B3E0394BD3F85C3103F44013B3F5401F70
:1030A0001CD0B3F5401F00F2A180B3F5001F11D072
:1030B000B3F5001F00F29A80002B03D0B3F5801FF8
:1030C00004D093E001238DF80F300BE007238DF837
:1030D0000F3007E004238DF80F3003E008238DF84C
:1030E0000F3000BF82E0244BD3F8603103F00303BC
:1030F000032B7DD801A252F823F000BF0D31000050
:10310000153100001D3100002531000005238DF828
:103110000F300BE004238DF80F3007E007238DF804
:103120000F3003E00A238DF80F3000BF60E0124B30
:10313000D3F8643103F00303032B5BD801A252F8E8
:1031400023F000BF553100005D3100006531000003
:103150006D31000005238DF80F300BE004238DF84E
:103160000F3007E007238DF80F3003E00A238DF8B6
:103170000F3000BF3EE000BF00400E40224BD3F8AE
:10318000F03103F00703052B36D801A252F823F0E3
:10319000A9310000B1310000B9310000C131000097
:1031A000C9310000D13100000A238DF80F3013E03F
:1031B00004238DF80F300FE00B238DF80F300BE058
:1031C00005238DF80F3007E002238DF80F3003E060
:1031D00003238DF80F3000BF0EE000238DF80F3071
:1031E00042F20131094800F0FAFB06E000BF04E0BA
:1031F00000BF02E000BF00E000BF9DF80F3018469E
:1032000005B05DF804FB00BF00400E40AC45000077
:1032100000B587B003900291019200F0F5FB059094
:10322000039B002B04D14FF49C710A4800F0D7FB9C
:10323000039B1A68029BDB431A400199029B0B40D7
:103240001A43039B1A60059800F0EAFB00BF07B021
:103250005DF804FB0446000000B583B0034600910E
:103260008DF807309DF80730002B39D09DF80730D6
:10327000012B32D09DF80730022B2BD09DF8073060
:10328000032B24D09DF80730042B1DD09DF8073068
:10329000052B16D09DF80730062B0FD09DF8073070
:1032A000072B08D09DF80730082B02D14FF6FF738B
:1032B00018E0002316E04FF6FF7313E04FF6FF739C
:1032C00010E04FF6FF730DE04FF6FF730AE04FF684
:1032D000FF7307E04FF6FF7304E04FF6FF7301E062
:1032E0004FF6FF73009AD34003F00103002B04D183
:1032F00040F201410C4800F072FB9DF80720134694
:103300005B0013441B010C3303F1804303F50823D6
:103310000121009A01FA02F21146184600F097FBCB
:1033200000BF03B05DF804FB5C46000000B583B04D
:10333000034600918DF807309DF80730002B39D0F7
:103340009DF80730012B32D09DF80730022B2BD08F
:103350009DF80730032B24D09DF80730042B1DD097
:103360009DF80730052B16D09DF80730062B0FD09F
:103370009DF80730072B08D09DF80730082B02D1A5
:103380004FF6FF7318E0002316E04FF6FF7313E0CB
:103390004FF6FF7310E04FF6FF730DE04FF6FF732B
:1033A0000AE04FF6FF7307E04FF6FF7304E04FF6B5
:1033B000FF7301E04FF6FF73009AD34003F001035F
:1033C000002B04D14FF486610C4800F008FB9DF8F7
:1033D000072013465B0013441B010C3303F18043A9
:1033E00003F508230121009A01FA02F2114618465A
:1033F00000F020FB00BF03B05DF804FB5C4600005A
:1034000000B583B0034600918DF807309DF8073072
:10341000002B1FD09DF80730012B1BD09DF80730E3
:10342000022B17D09DF80730032B13D09DF80730DF
:10343000042B0FD09DF80730052B0BD09DF80730DB
:10344000062B07D09DF80730072B03D09DF80730D7
:10345000082B04D1009B23F00113002B03D07D2106
:103460000B4800F0BCFA9DF8072013465B0013449C
:103470001B0103F1804303F50823009A4FF001116B
:103480001846FFF7C5FE00BF03B05DF804FB00BFA0
:10349000B446000000B585B0029101920093034646
:1034A0008DF80F309DF80F30002B39D09DF80F307C
:1034B000012B32D09DF80F30022B2BD09DF80F300E
:1034C000032B24D09DF80F30042B1DD09DF80F3016
:1034D000052B16D09DF80F30062B0FD09DF80F301E
:1034E000072B08D09DF80F30082B02D14FF6FF7341
:1034F00018E0002316E04FF6FF7313E04FF6FF735A
:1035000010E04FF6FF730DE04FF6FF730AE04FF641
:10351000FF7307E04FF6FF7304E04FF6FF7301E01F
:103520004FF6FF73029AD34003F00103002B04D13E
:103530004FF4B071324800F052FA019B002B0FD0CB
:10354000009B002B06D09DF80F3002991846FFF71C
:10355000EDFE05E09DF80F3002991846FFF77CFE5E
:10356000029B072B19D89DF80F2013465B001344CC
:103570001B01043303F1804303F50823029A9200F0
:103580000F2101FA02F0029A9200019901FA02F267
:1035900001461846FFF73CFE1AE09DF80F2013463F
:1035A0005B0013441B01083303F1804303F5082338
:1035B000029A083A92000F2101FA02F0029A083AA0
:1035C0009200019901FA02F201461846FFF720FE27
:1035D000019B002B0FD1009B002B06D09DF80F30D4
:1035E00002991846FFF7A2FE05E09DF80F300299F8
:1035F0001846FFF731FE00BF05B05DF804FB00BFC1
:10360000B446000008B5064B044613B10021AFF3E1
:103610000080044B1B6803B19847204600F0E4F992
:10362000000000005410002070B50D4D0D4C641BBF
:10363000A4100026A64209D10B4D0C4C00F020FA34
:10364000641BA4100026A64205D170BD55F8043BAA
:1036500098470136EEE755F8043B98470136F2E704
:103660001410002014100020141000201810002046
:1036700082B001900B468DF803309DF8033063F063
:103680007F03DBB21A46019B9A6500BF02B0704708
:1036900082B001900B468DF8033000BF019B1B697F
:1036A00003F04003002BF9D09DF80320019B5A63DF
:1036B00000BF019B1B6903F02003002BF9D0019B85
:1036C000DB69DBB2184602B0704782B001900B464E
:1036D0008DF8033000BF019B1B6903F04003002BF2
:1036E000F9D09DF80320019B5A6300BF02B07047D8
:1036F00084B001900091019B03F1C0630393039B8D
:10370000009A1A6000BF04B0704784B00190009125
:10371000019B03F180630393039B009A1A6000BF2F
:1037200004B0704700B583B003468DF807309DF8AC
:103730000730002B06D0012B09D109210020FDF70D
:103740006DF904E009210020FDF7D2F900BF00BFA8
:1037500003B05DF804FB00B583B003468DF8073075
:103760009DF80730002B06D0012B09D1082100203D
:10377000FDF754F904E008210020FDF7B9F900BF76
:1037800000BF03B05DF804FB00B583B003468DF8BD
:1037900007309DF80730002B06D0012B09D10721F7
:1037A0000020FDF73BF904E007210020FDF7A0F918
:1037B00000BF00BF03B05DF804FB82B00190009130
:1037C000019B009A5A6100BF02B0704782B001901D
:1037D0000091019B9A69009B1A43019B9A6100BF6B
:1037E00002B0704784B001900091019B03F1C06367
:1037F0000393039B009A1A6000BF04B0704784B023
:1038000001900091019B03F180630393039B009A55
:103810001A6000BF04B0704784B001900091019B12
:1038200003F1C0630393039B009A1A6000BF04B0C6
:10383000704700B583B00190009108E0019B1B78B0
:1038400000991846FEF748FA019B01330193019B4A
:103850001B78002BF2D100BF00BF03B05DF804FB62
:1038600000B583B003468DF807309DF807000123AB
:103870000A220121FEF7A0FA0220FDF76DFC9DF857
:10388000070006231E220021FEF796FA9DF8070086
:1038900048231A220021FEF78FFA0520FDF75CFC71
:1038A0009DF807001A231C220121FEF785FA9DF8D6
:1038B000070000231D220121FEF77EFA9DF8070074
:1038C00000231B220121FEF777FA9DF8070003234E
:1038D0000B220121FEF770FA9DF807001123102238
:1038E0000121FEF769FA9DF8070000230922012152
:1038F000FEF762FA9DF8070000230A220121FEF775
:103900005BFA9DF80700002313220121FEF754FA09
:103910009DF8070000230C220121FEF74DFA9DF8C7
:103920000700002301220121FEF746FA9DF8070057
:10393000002303220121FEF73FFA9DF80700002330
:1039400005220121FEF738FA9DF80700002307221F
:103950000121FEF731FA9DF8070000230922012119
:10396000FEF72AFA9DF8070002231F220121FEF725
:1039700023FA0220FDF7F0FB00BF03B05DF804FB63
:1039800000B583B003468DF807309DF8073000225C
:1039900001210220FEF710FA00BF03B05DF804FB1E
:1039A00000B583B0019007E0019B1B781846FFF734
:1039B000E7FF019B01330193019B1B78002BF3D19F
:1039C00000BF00BF03B05DF804FB00BFFDE74FF48C
:1039D0000043184670474FF47A731846704782B018
:1039E0000190009100BFFDE782B0019000BFFDE7AC
:1039F00000B583B001900198FFF7A0F803460133AA
:103A0000184603B05DF804FB82B0EFF31083009317
:103A1000009B019372B600BF019B184602B070472D
:103A200082B00190019B002B01D162B600BF00BFA4
:103A300002B0704784B001900091019B03F1C06314
:103A40000393039B009A1A6000BF04B0704784B0D0
:103A500001900091019B03F180630393039B009A03
:103A60001A6000BF04B0704702440346934200D17D
:103A7000704703F8011BF9E7000000000000000098
:103A8000F8B500BFF8BC08BC9E467047F8B500BF4B
:103A9000F8BC08BC9E467047000000000000000013
:103AA0000000000000000000000000000000000016
:103AB0000000000000000000000000000000000006
:103AC000433A5C55736572735C4A6F6E61746861EA
:103AD0006E53746F7265795C53696D706C6963695C
:103AE000747953747564696F5C76355F776F726B48
:103AF00073706163655C4E4156434F4D5F46756E12
:103B00006374696F6E616C6974795F54657374690D
:103B10006E672F656D5F74696D65722E68000000B9
:103B2000433A2F55736572732F4A6F6E61746861E3
:103B30006E53746F7265792F53696D706C69636928
:103B4000747953747564696F2F53444B732F676591
:103B5000636B6F5F73646B5F322F706C6174666F41
:103B6000726D2F656D6C69622F7372632F656D5F67
:103B700074696D65722E6300433A2F5573657273D5
:103B80002F4A6F6E617468616E53746F7265792F1E
:103B900053696D706C696369747953747564696F86
:103BA0002F53444B732F6765636B6F5F73646B5F59
:103BB000322F706C6174666F726D2F656D6C696207
:103BC0002F7372632F656D5F75736172742E63005E
:103BD000633A5C75736572735C6A6F6E6174686179
:103BE0006E73746F7265795C73696D706C6963690B
:103BF000747973747564696F5C73646B735C676507
:103C0000636B6F5F73646B5F325C706C6174666F63
:103C1000726D5C656D6C69625C696E635C656D5F3D
:103C20006770696F2E680000457870616E64657218
:103C3000204120456E61626C65640A0D0000000041
:103C4000457870616E6465722041205368757464B4
:103C50006F776E0A0D000000457870616E646572C2
:103C6000204220456E61626C65640A0D0000000010
:103C7000726573657420636F6D706C6574650A0D91
:103C800000000000457870616E6465722042205328
:103C9000687574646F776E0A0D0000004578706176
:103CA0006E646572204320456E61626C65640A0D26
:103CB00000000000457870616E64657220432053F7
:103CC000687574646F776E0A0D000000456E657448
:103CD0002053776974636820456E61626C65642067
:103CE0000A0D0000456E657420737769746368205F
:103CF00053687574646F776E200A0D00504C56310E
:103D000020456E61626C65640A0D0000504C5631AE
:103D10002044697361626C65640A0D00525332334A
:103D200032204120456E61626C65640A0D0000001E
:103D300052533233322044697361626C65640A0DF8
:103D4000000000005253323332204220456E61623F
:103D50006C65640A0D000000525332333220422059
:103D600044697361626C65640A0D000046435055F6
:103D700020456E61626C6564200A0D004643505513
:103D80002053687574646F776E200A0D0000000080
:103D9000464350552053687574646F776E202D200C
:103DA00062757420736F6D657468696E67207765DE
:103DB0006E742077726F6E670A0D0000332E3356D3
:103DC0002052656720456E61626C65640A0D0000D3
:103DD000332E3356205265672053687574646F77AD
:103DE0006E0A0D0050485920656E61626C65640A68
:103DF0000D0000005048592073687574646F776E29
:103E00000A0D000045746865726E65742052657312
:103E1000657420616374697665200A0D00000000F6
:103E200045746865726E65742072657365742020D0
:103E3000646561637469766561746564200A0D0068
:103E400053444153205265736574206163746976ED
:103E500065200A0D00000000534441532064656151
:103E6000637469766561746564200A0D0000000062
:103E70005044454D205265736574206163746976C2
:103E800065200A0D000000005044454D2064656126
:103E9000637469766561746564200A0D0000000032
:103EA0004643505520726573657420646561637480
:103EB00069766561746564200A0D0000494D5520DE
:103EC000526573657420616374697665200A0D001C
:103ED000494D55207265736574206465616374692A
:103EE000766561746564200A0D000000416E74659A
:103EF0006E6E6120526573657420616374697665C6
:103F0000200A0D00416E74656E6E612072657365E6
:103F10007420646561637469766561746564200A00
:103F20000D000000464350555F4750494F5F302019
:103F300048696768200A0D00464350555F4750495D
:103F40004F5F30204C6F770A0D00000053656E7391
:103F50006F725F43616464795F4750494F5F3020FF
:103F600048696768200A0D0053656E736F725F437E
:103F7000616464795F4750494F5F30204C6F770A26
:103F80000D0000002053656E736F725F43616464BF
:103F9000795F4750494F5F312048696768200A0DB3
:103FA000000000002053656E736F725F43616464AC
:103FB000795F4750494F5F31204C6F770A0D000001
:103FC000504C41204750494F2030204869676820B5
:103FD0000A0D000020504C41204750494F2030200E
:103FE0004C6F770A0D00000020504C415F4750494C
:103FF0004F5F312048696768200A0D00504C415FCF
:104000004750494F5F31204C6F770A0D0000000088
:10401000504C425F4750494F5F30204869676820E5
:104020000A0D0000504C425F4750494F5F30204C12
:104030006F770A0D00000000504C425F4750494F17
:104040005F312048696768200A0D0000504C425FCC
:104050004750494F5F31204C6F770A0D0000000038
:10406000504C435F4750494F5F3020486967682094
:104070000A0D0000504C435F4750494F5F30204CC1
:104080006F770A0D00000000504C445F4750494FC5
:104090005F302048696768200A0D0000504C445F7B
:1040A0004750494F5F30204C6F770A0D00000000E9
:1040B000504C455F4750494F5F3020486967682042
:1040C0000A0D0000504C455F4750494F5F30204C6F
:1040D0006F770A0D00000000464350555F5350496A
:1040E0005F4D4F534920456E61626C65640A0D0057
:1040F000464350555F5350495F4D4F5349205368D5
:104100007574646F776E0A0D0000000046435055C9
:104110005F5350495F4D49534F20456E61626C6556
:10412000640A0D00464350555F5350495F4D495353
:104130004F2053687574646F776E0A0D000000009D
:104140000D0A3520566F6C74206973203A200909D6
:10415000000000000D0A3320566F6C742069732034
:104160003A200909000000000D0A52533233322070
:1041700041206973203A2009090000000D0A5253BA
:104180003233322042206973203A200909000000AE
:104190000D0A45746865726E6574206973203A2053
:1041A000090900000D0A457870616E64657273201C
:1041B00041206973203A2009000000000D0A45786B
:1041C00070616E646572732042206973203A200921
:1041D000000000000D0A457870616E6465727320FE
:1041E00043206973203A2009000000000D0A456E43
:1041F000657420726573657420206973203A200904
:10420000000000000D0A534441532072657374206E
:104210006973203A200900000D0A455044454D209D
:104220005265736574206973203A2009000000000C
:104230000D0A4643505520526573657420697320FA
:104240003A2009000D0A494D5520526573657420C6
:104250006973203A200900000D0A416E74656E6E84
:104260006120206973203A20090000001B5B324A5C
:1042700000000000303132333435363738394142AE
:10428000434445460000000068656C6C6F20667210
:104290006F6D204E6F6465200A0D000068656C6CC0
:1042A0006F2066726F6D20494D55200A0D00000089
:1042B00068656C6C6F2066726F6D205044454D20B0
:1042C0000A0D000068656C6C6F2066726F6D20537C
:1042D000444153200A0D000068656C6C6F206672C3
:1042E0006F6D205468727573746572200A0D00003A
:1042F00068656C6C6F2066726F6D20464350552068
:104300000A0D000068656C6C6F2066726F6D205539
:1043100053424C200A0D00002E2E2F656D5F7469EC
:104320006D65722E680000000101000000000000B1
:1043300060670100000000004E414B0A0D000000C4
:10434000633A5C75736572735C6A6F6E6174686101
:104350006E73746F7265795C73696D706C69636993
:10436000747973747564696F5C73646B735C67658F
:10437000636B6F5F73646B5F325C706C6174666FEC
:10438000726D5C656D6C69625C696E635C656D5FC6
:104390006770696F2E6800000D0A496E6974696C58
:1043A0006973696E67204E4156434F4D20636F6DB0
:1043B000706F6E656E74730D0A0000000D0A496E11
:1043C0006974696C6973696E672045746865726E9B
:1043D0006574207377697463680D0A000D0A496E6D
:1043E0006974696C6973696E672055415254204540
:1043F0007870616E646572730D0A0000633A5C75D3
:10440000736572735C6A6F6E617468616E73746FEA
:104410007265795C73696D706C69636974797374C2
:104420007564696F5C73646B735C6765636B6F5F06
:1044300073646B5F325C706C6174666F726D5C6527
:104440006D6C69625C696E635C656D5F6770696FF6
:104450002E6800006F6E2E0A0D0000006675636BFB
:1044600020697400780000000500000000000000D2
:1044700000C2010000050000001000000000000064
:1044800000000000050000000000000020A107005F
:104490000501010000000000000000000000000015
:1044A000633A5C75736572735C6A6F6E61746861A0
:1044B0006E73746F7265795C73696D706C69636932
:1044C000747973747564696F5C73646B735C67652E
:1044D000636B6F5F73646B5F325C706C6174666F8B
:1044E000726D5C636F6D6D6F6E5C696E635C736C37
:1044F0005F636F6D6D6F6E2E68000000633A5C75D0
:10450000736572735C6A6F6E617468616E73746FE9
:104510007265795C73696D706C69636974797374C1
:104520007564696F5C73646B735C6765636B6F5F05
:1045300073646B5F325C706C6174666F726D5C6526
:104540006D6C69625C696E635C656D5F6275732E2C
:1045500068000000633A5C75736572735C6A6F6E25
:10456000617468616E73746F7265795C73696D7084
:104570006C696369747973747564696F5C73646B77
:10458000735C6765636B6F5F73646B5F325C706CE9
:104590006174666F726D5C656D6C69625C696E6397
:1045A0005C656D5F636D752E68000000433A2F55A2
:1045B000736572732F4A6F6E617468616E53746FA6
:1045C0007265792F53696D706C696369747953747E
:1045D0007564696F2F53444B732F6765636B6F5F0F
:1045E00073646B5F322F706C6174666F726D2F65D0
:1045F0006D6C69622F7372632F656D5F636D752ECD
:1046000063000000633A5C75736572735C6A6F6E79
:10461000617468616E73746F7265795C73696D70D3
:104620006C696369747973747564696F5C73646BC6
:10463000735C6765636B6F5F73646B5F325C706C38
:104640006174666F726D5C656D6C69625C696E63E6
:104650005C656D5F6275732E68000000633A5C757F
:10466000736572735C6A6F6E617468616E73746F88
:104670007265795C73696D706C6963697479737460
:104680007564696F5C73646B735C6765636B6F5FA4
:1046900073646B5F325C706C6174666F726D5C65C5
:1046A0006D6C69625C696E635C656D5F6770696F94
:1046B0002E680000433A2F55736572732F4A6F6E50
:1046C000617468616E53746F7265792F53696D7090
:1046D0006C696369747953747564696F2F53444BC3
:1046E000732F6765636B6F5F73646B5F322F706CE2
:1046F0006174666F726D2F656D6C69622F73726382
:0C4700002F656D5F6770696F2E6300000D
:08470C00D8BAFF7F0100000094
:0C471400204700000010002007000000FB
:1047200080F0FA0200800000C0EA2101C0EA210105
:0C473000006CDC02C101000099010000D7
:0400000300001E8952
:00000001FF
