S02300004E4156434F4D5F46756E6374696F6E616C6974795F54657374696E672E73333708
S1130000001000207D2900002B5F00002B5F000002
S11300102B5F00002B5F00002B5F00002B5F0000B4
S11300202B5F00002B5F00002B5F00002B5F0000A4
S11300302B5F00002B5F00002B5F00002B5F000094
S11300402B5F00002B5F00002B5F00002B5F000084
S11300502B5F00008D1700002B5F00002B5F00005A
S11300602B5F00002B5F00002B5F0000C517000012
S11300702B5F00002B5F0000A91700002B5F00001E
S11300802B5F00002B5F00002B5F00002B5F000044
S11300902B5F00002B5F00002B5F00002B5F000034
S11300A02B5F00002B5F00002B5F00002B5F000024
S11300B02B5F00002B5F00002B5F00002B5F000014
S11300C02B5F00002B5F00002B5F00002B5F000004
S11300D02B5F00002B5F00002B5F00002B5F0000F4
S11300E02B5F00002B5F00002B5F00002B5F0000E4
S11300F02B5F00002B5F00002B5F00002B5F0000D4
S11301002B5F00002B5F00002B5F00002B5F0000C3
S11301102B5F00002B5F00002B5F00002B5F0000B3
S11301202B5F00002B5F00002B5F00002B5F0000A3
S11301302B5F00002B5F00002B5F00002B5F000093
S11301402B5F00002B5F00002B5F00002B5F000083
S113015000000000000000000348044B834202D06A
S1130160034B03B1184770472010002020100020D3
S1130170000000000548064B1B1AD90F01EBA30130
S1130180491002D0034B03B11847704720100020D8
S1130190201000200000000010B5064C237843B95D
S11301A0FFF7DAFF044B13B10448AFF300800123D7
S11301B0237010BD6810002000000000A071000032
S11301C008B5054B1BB105490548AFF30080BDE8F0
S11301D00840FFF7CFBF00BF000000002010002040
S11301E0A0710000A3F5803A704700BF174B002BA5
S11301F008BF134B9D46FFF7F5FF00218B460F46C2
S11302001348144A121A05F08CFF0E4B002B00D031
S113021098470D4B002B00D0984700200021040084
S11302200D000D48002802D00C48AFF3008005F003
S113023007FB2000290001F0E7FE05F0EFFA00BFFC
S11302400000080000000000000000000010002072
S113025020100020701000200000000000000000AA
S113026000B583B0034600918DF807309DF8073040
S1130270002B39D09DF80730012B32D09DF8073080
S1130280022B2BD09DF80730032B24D09DF8073088
S1130290042B1DD09DF80730052B16D09DF8073090
S11302A0062B0FD09DF80730072B08D09DF8073098
S11302B0082B02D14FF6FF7318E0002316E04FF627
S11302C0FF7313E04FF6FF7310E04FF6FF730DE07A
S11302D04FF6FF730AE04FF6FF7307E04FF6FF7324
S11302E004E04FF6FF7301E04FF6FF73009AD3402A
S11302F003F00103002B04D140F201410C4805F046
S11303001EFE9DF8072013465B0013441B010C33AB
S113031003F1804303F508230121009A01FA02F254
S11303201146184605F0B0FA00BF03B05DF804FBAF
S11303308061000082B00190019B1A4A934227D049
S1130340019B194A934223D0019B184A93421FD020
S1130350019B174A93421BD0019B164A934217D024
S1130360019B154A934213D0019B144A93420FD028
S1130370019B134A93420BD0019B124A934207D02C
S1130380019B114A934203D0019B104A934201D12D
S1130390012300E0002303F00103DBB2184602B09E
S11303A0704700BF00800140008401400088014084
S11303B0008C0140009001400094014000980140ED
S11303C000A0014000A4014000A8014000AC01408D
S11303D082B00190019B0B4A93420BD0019B0A4AC5
S11303E0934207D0019B094A934203D0019B084AD8
S11303F0934202D14FF0FF3301E04FF6FF731846EA
S113040002B0704700A0014000A4014000A80140D0
S113041000AC014000B585B00390029101920398AD
S1130420FFF7D6FF0246019B934204D94FF4507163
S1130430074805F084FD039A029B06331B0113440D
S11304400433019A1A6000BF05B05DF804FB00BFD5
S1130450D861000000B583B0019000910198FFF7C6
S1130460B7FF0246009B934204D94FF459710548E3
S113047005F065FD019B009A5A6200BF03B05DF868
S113048004FB00BFD861000000B583B001900B46A7
S11304908DF803300198FFF74DFF0346002B04D17C
S11304A040F28231084805F04AFD9DF80330002BE4
S11304B003D0019B01225A6002E0019B02225A6090
S11304C000BF03B05DF804FBD861000000B583B041
S11304D0019000910198FFF77BFF0246009B934235
S11304E004D940F2BC41054805F029FD019B009A5E
S11304F0DA6100BF03B05DF804FB00BFD8610000FF
S113050000B589B01D4B5B6B23F007031B4A43F016
S113051005035363194B1B6B184A43F00103136320
S113052004AB00221A605A609A60C3F80B200123BE
S11305308DF8103000238DF8123000238DF8103020
S113054004AB19460D4800F0C5F801AB00221A604F
S11305505A609A6003238DF80A3001238DF809301C
S113056002238DF8083001AB1A460021034800F03D
S11305703FF900BF09B05DF804FB00BF00880140EB
S113058000B587B003460091ADF80630BDF80630DB
S1130590002B03D0BDF80630002B08D100212348DE
S11305A0FFF772FF02210220FFF75AFE24E0002128
S11305B01E48FFF769FF00211C48FFF74BFFBDF8F9
S11305C006301B4A92FBF3F3013B05930599174848
S11305D0FFF77CFF059B322202FB03F3154AA2FBC3
S11305E003235B090493049A00211048FFF712FFC8
S11305F001210E48FFF748FF0023039302E0039B09
S113060001330393009B4FF47A7203FB02F2039BC2
S11306109A42F4D800210548FFF736FF0221022050
S1130620FFF71EFE00BF07B05DF804FB0088014021
S113063040420F001F85EB5182B00190019B1A4A82
S1130640934227D0019B194A934223D0019B184A15
S113065093421FD0019B174A93421BD0019B164A19
S1130660934217D0019B154A934213D0019B144A1D
S113067093420FD0019B134A93420BD0019B124A21
S1130680934207D0019B114A934203D0019B104A25
S1130690934201D1012300E0002303F00103DBB204
S11306A0184602B0704700BF00800140008401403A
S11306B000880140008C01400090014000940140FA
S11306C00098014000A0014000A4014000A801409E
S11306D000AC014000B585B0019000910198FFF78E
S11306E0ABFF0346002B03D1B421404805F027FC9F
S11306F000230393009B1B7883F00103DBB2002BE0
S113070002D0019B02225A60019B00225A62009B84
S11307109B781A06009BDB781B041A43009BDB7949
S11307209B021A43009B1B7A1B021343009A527AC2
S11307301343009A5278002A01D0402200E000229C
S11307401343009A927A002A01D0802200E000220A
S11307501343009AD27A002A01D0202200E000221A
S11307601343009A127B002A01D0102200E00022D9
S11307701343009A927B002A02D04FF4804200E097
S113078000221343009A527B002A01D0082200E081
S1130790002213430393009B1B79002B02D04FF4D8
S11307A0005200E00022009B5B79002B02D04FF046
S11307B0805300E000231343009A9279002A02D068
S11307C04FF0005200E000221343039A13430393B3
S11307D0019B039A1A60009B1B78002B02D0019B9B
S11307E001225A6000BF05B05DF804FB48620000B6
S11307F000B585B00390029101920398FFF71CFFA6
S11308000346002B04D14FF486712A4805F097FB68
S1130810029B032B04D940F20D11264805F08FFBEF
S1130820019B1B789A06019B5B781B061A43019B6C
S11308309B781B041A43019BDB781B031A43019B1F
S11308401B799B021A43019B5B791B021343019A98
S113085092791343019AD279002A02D04FF0804250
S113086000E000221343019A127A002A02D04FF0CA
S1130870005200E000221343019A527A002A01D068
S1130880102200E000221343019A927A002A01D038
S1130890042200E000221A43019BDB7A1B071A435F
S11308A00399029B06331B010B441A6000BF05B079
S11308B05DF804FB4862000000B587B00390029124
S11308C001928DF8033000230593019B002B04D182
S11308D040F255114C4805F032FB029B002B0CD121
S11308E0039B4A4A934204D1494802F07BFE02909A
S11308F003E0484802F076FE02909DF80330602B36
S113090034D0602B3FDC402B20D0402B3BDC002B31
S113091002D0202B0DD036E0029B1B09019A9A428B
S113092004D940F28711384805F009FB10230593D8
S11309302FE0029BDB08019A9A4204D94FF4C67156
S1130940314805F0FCFA0823059322E0029B324A61
S1130950A2FB03239B08019A9A4204D940F2911105
S1130960294805F0ECFA0623059312E0029B9B0844
S1130970019A9A4204D94FF4CB71234805F0DFFA67
S11309800423059305E04FF4CE711F4805F0D7FA10
S113099000BF059B002B33D0029B5A01059B019994
S11309A001FB03F35B0813440493059B019A02FBC8
S11309B003F3049AB2FBF3F30493049B203B0493E4
S11309C0049BDB000493049B144A934204D940F231
S11309D0B3110D4805F0B3FA049A104B1340049375
S11309E0039B1B6823F06002039B1A60039B1A6835
S11309F09DF803301A43039B1A60039B049A5A61BF
S1130A0000BF07B05DF804FBA062000000080140CD
S1130A105041070040410500ABAAAAAAF8FF7F0095
S1130A2000B587B0039002910192019B002B04D181
S1130A3040F2A621164805F082FA029B002B0CD145
S1130A40039B144A934204D1134802F0CBFD029055
S1130A5003E0124802F0C6FD0290029B5A1E019B5D
S1130A605B00B2FBF3F30593059B1B020593059A08
S1130A700B4B1340002B04D040F2CB21044805F06B
S1130A805EFA039B059A5A6100BF07B05DF804FB48
S1130A90A0620000000801405041070040410500E9
S1130AA0070080FF00B585B001900B468DF8033038
S1130AB0019B1C4A934220D0019B1B4A93421CD0A9
S1130AC0019B1A4A934218D0019B194A934214D0AD
S1130AD0019B184A934210D0019B174A93420CD0B1
S1130AE0019B164A934208D0019B154A934204D0B5
S1130AF04FF43971134805F022FA9DF80330DB43B3
S1130B000393039B03F005030393039B5A00019B88
S1130B10DA609DF80320019BDA6000BF05B05DF840
S1130B2004FB00BF00000140000401400008014034
S1130B30000C01400010014000140140004001403D
S1130B4000440140A062000000B583B00190009110
S1130B50019B434A934220D0019B424A93421CD0BA
S1130B60019B414A934218D0019B404A934214D0BE
S1130B70019B3F4A934210D0019B3E4A93420CD0C2
S1130B80019B3D4A934208D0019B3C4A934204D0C6
S1130B9040F215313A4805F0D2F9019800F00EF907
S1130BA0009B9B7C002B05D0019B1B6843F080427B
S1130BB0019B1A60009BDB7C002B05D0009B1B7DF6
S1130BC01946019804F06DFE009B5B7B1A46009B5E
S1130BD01B8A1343009AD2891A43019B5A60009BD3
S1130BE05968009B9A68009B1B7B0198FFF764FE81
S1130BF0009B5B7D002B05D0019B1B6843F4803276
S1130C00019B1A60009B9B7D002B05D0019B1B68F8
S1130C1043F40042019B1A60009BDB7D1B0703F039
S1130C20E042009B1B7E1B0503F4E0031A43019B77
S1130C301A66019B5B6F23F03002019B5A67019B8C
S1130C405B6F009A527E1A43019B5A67009B1B7884
S1130C501A46019BDA6000BF03B05DF804FB00BFD5
S1130C60000001400004014000080140000C014064
S1130C7000100140001401400040014000440140C4
S1130C80A062000000B583B001900091019B444A2A
S1130C90934218D0019B434A934214D0019B424A89
S1130CA0934210D0019B414A93420CD0019B404A8D
S1130CB0934208D0019B3F4A934204D040F28131D1
S1130CC03D4805F03CF9019800F078F8019B1A685A
S1130CD0009B1B8A43F001039BB21946009B9B7B3C
S1130CE0002B02D04FF4806300E000230B431A432F
S1130CF0019B1A60019B1B68009A127D002A02D096
S1130D004FF0005200E000221A43019B1A60009B3E
S1130D109B7C002B05D0009BDB7C1946019804F0DA
S1130D20C0FD009B1B7B43F48052019B5A60009BD7
S1130D305968009B9B681A460198FFF771FE009B57
S1130D405B7B002B02D0019B1022DA60009B5B7D51
S1130D50002B05D0019B1B6843F48032019B1A6071
S1130D60009B9B7D002B05D0019B1B6843F4004234
S1130D70019B1A60009BDB7D1B0703F0E042009B94
S1130D801B7E1B0503F4E0031A43019B1A66009BB8
S1130D901B781A46019BDA6000BF03B05DF804FBC0
S1130DA0000001400004014000080140000C014023
S1130DB00010014000140140A062000000B583B09F
S1130DC00190019B334A934220D0019B324A9342C3
S1130DD01CD0019B314A934218D0019B304A934264
S1130DE014D0019B2F4A934210D0019B2E4A934268
S1130DF00CD0019B2D4A934208D0019B2C4A93426C
S1130E0004D040F25E412B4805F099F8019B40F66E
S1130E10AA62DA60019B00221A60019B41F205027A
S1130E205A60019B00229A60019B00225A61019B37
S1130E300022DA64019B204A9A64019B00221A660C
S1130E40019B00225A67019B00229A67019B0022A2
S1130E50DA67019B0F4A934203D0019B0F4A9342E6
S1130E6002D1019B00221A65019B00229A65019B15
S1130E70094A934207D0019B094A934203D0019B3C
S1130E80084A934202D1019B0022DA6500BF03B0F5
S1130E905DF804FB0000014000040140000801402B
S1130EA0000C0140001001400014014000400140CA
S1130EB000440140A0620000F9FF010000B583B0C6
S1130EC0034600918DF807309DF80730002B39D088
S1130ED09DF80730012B32D09DF80730022B2BD020
S1130EE09DF80730032B24D09DF80730042B1DD028
S1130EF09DF80730052B16D09DF80730062B0FD030
S1130F009DF80730072B08D09DF80730082B02D135
S1130F104FF6FF7318E0002316E04FF6FF7313E05B
S1130F204FF6FF7310E04FF6FF730DE04FF6FF73BB
S1130F300AE04FF6FF7307E04FF6FF7304E04FF645
S1130F40FF7301E04FF6FF73009AD34003F00103EF
S1130F50002B04D140F201410C4804F0F0FF9DF84D
S1130F60072013465B0013441B010C3303F1804339
S1130F7003F508230121009A01FA02F211461846EA
S1130F8004F0EBFC00BF03B05DF804FBF862000062
S1130F9000B583B0034600918DF807309DF8073003
S1130FA0002B39D09DF80730012B32D09DF8073043
S1130FB0022B2BD09DF80730032B24D09DF807304B
S1130FC0042B1DD09DF80730052B16D09DF8073053
S1130FD0062B0FD09DF80730072B08D09DF807305B
S1130FE0082B02D14FF6FF7318E0002316E04FF6EA
S1130FF0FF7313E04FF6FF7310E04FF6FF730DE03D
S11310004FF6FF730AE04FF6FF7307E04FF6FF73E6
S113101004E04FF6FF7301E04FF6FF73009AD340EC
S113102003F00103002B04D14FF486610C4804F053
S113103086FF9DF8072013465B0013441B010C3305
S113104003F1804303F508230121009A01FA02F217
S11310501146184604F074FC00BF03B05DF804FBAD
S1131060F862000000B583B0034600918DF80730A4
S11310709DF80730002B0DD0012B17D1022103203E
S1131080FFF786FF02210B4804F055FD009B012267
S1131090DA720BE002210320FFF710FF0221064859
S11310A004F049FD009B0022DA7200BF00BF03B0C8
S11310B05DF804FB506300006863000000B583B072
S11310C0034600918DF807309DF80730002B11D0AE
S11310D0012B1BD103210320FFF75AFF02210D48E6
S11310E004F029FD02210C4804F025FD009B002298
S11310F01A730BE003210320FFF7E0FE02210748E7
S113110004F019FD009B01221A7300BF00BF03B055
S11311105DF804FB8063000098630000AC6300008A
S113112000B583B0034600918DF807309DF8073071
S1131130002B0DD0012B17D104210320FFF728FF2A
S113114002210B4804F0F7FC009B01225A730BE0C8
S113115004210320FFF7B2FE0221064804F0EBFC51
S1131160009B00225A7300BF00BF03B05DF804FB6C
S1131170C4630000DC63000000B583B00346009143
S11311808DF807309DF80730002B0DD0012B17D1B7
S11311900A210420FFF7FCFE02210B4804F0CBFCDB
S11311A0009B01221A710BE00A210420FFF786FE3E
S11311B00221064804F0BFFC009B00221A7100BF04
S11311C000BF03B05DF804FBF46300000C6400008E
S11311D000B583B0034600918DF807309DF80730C1
S11311E0002B0DD0012B17D104210020FFF7D0FED6
S11311F002210B4804F09FFC009B01225A720BE071
S113120004210020FFF75AFE0221064804F093FC53
S1131210009B00225A7200BF00BF03B05DF804FBBC
S1131220446400005864000000B583B00346009194
S11312308DF807309DF80730002B0DD0012B17D106
S113124005210020FFF7A4FE02210B4804F073FCE3
S1131250009B01229A720BE005210020FFF72EFE6D
S11312600221064804F067FC009B00229A7200BF2A
S113127000BF03B05DF804FB6C64000080640000F0
S113128000B583B0034600918DF807309DF8073010
S1131290002B0DD0012B17D10F210020FFF778FE72
S11312A00221114804F047FC009B01225A7117E007
S11312B00F210020FFF702FE02210C4804F03BFC42
S11312C0009B00225A710BE00F210020FFF7F6FD6E
S11312D00221074804F02FFC009B00225A7100BF32
S11312E000BF03B05DF804FB94640000A464000034
S11312F0B464000000B583B0034600918DF8073054
S11313009DF80730002B0DD0012B17D102210120AD
S1131310FFF73EFE02210B4804F00DFC009B012266
S11313209A710BE002210120FFF7C8FD0221064853
S113133004F001FC009B00229A7100BF00BF03B0BF
S11313405DF804FBE0640000F464000000B583B0C1
S1131350034600918DF807309DF80730002B0DD01F
S1131360012B17D108210420FFF712FE02210B489C
S113137004F0E1FB009B01229A730BE00821042096
S1131380FFF79CFD0221064804F0D5FB009B0022D8
S11313909A7300BF00BF03B05DF804FB286500002A
S11313A04465000008B50221024804F0C4FB00BFF4
S11313B008BD00BF9069000008B508210220FFF7AE
S11313C0E7FD04210420FFF7E3FD02210E4804F0A9
S11313D0B2FB00210D4804F0AEFB01210C4804F0DF
S11313E0AAFB05210B4804F0A6FB03210A4804F0DC
S11313F0A2FB0621094804F09EFB0721084804F0DB
S11314009AFB00BFE1E700BFAC690000C0690000BF
S1131410D4690000E8690000FC690000146A000057
S1131420286A000082B003468DF807309DF9073022
S1131430002B0CDB9DF8073003F01F0205499DF9D2
S113144007305B09012000FA02F241F8232000BFB3
S113145002B0704700E100E082B00190019B1A4A9B
S1131460934227D0019B194A934223D0019B184AE7
S113147093421FD0019B174A93421BD0019B164AEB
S1131480934217D0019B154A934213D0019B144AEF
S113149093420FD0019B134A93420BD0019B124AF3
S11314A0934207D0019B114A934203D0019B104AF7
S11314B0934201D1012300E0002303F00103DBB2D6
S11314C0184602B0704700BF00800140008401400C
S11314D000880140008C01400090014000940140CC
S11314E00098014000A0014000A4014000A8014070
S11314F000AC014082B00190019B0B4A93420BD097
S1131500019B0A4A934207D0019B094A934203D0A4
S1131510019B084A934202D14FF0FF3301E04FF69A
S1131520FF73184602B0704700A0014000A40140B8
S113153000A8014000AC014000B583B001900091C7
S11315400198FFF7D7FF0246009B934204D94FF45A
S11315505971054804F0F3FC019B009A5A6200BFDC
S113156003B05DF804FB00BF3C6A000000B583B023
S113157001900B468DF803300198FFF76DFF034689
S1131580002B04D140F28231084804F0D8FC9DF8C5
S11315900330002B03D0019B01225A6002E0019B1F
S11315A002225A6000BF03B05DF804FB3C6A0000ED
S11315B000B583B0019000910198FFF79BFF0246AC
S11315C0009B934204D940F2BC41054804F0B7FCA7
S11315D0019B009ADA6100BF03B05DF804FB00BF11
S11315E03C6A000000B587B00121154801F042FFB4
S11315F001AB00221A605A609A60C3F80B200123E1
S11316008DF8043000238DF8043006238DF806305D
S113161001AB19460B48FFF75DF840F20D33059313
S113162005990848FFF7C4FF0121064804F0FDF9B5
S11316300520FFF7F7FE00BF07B05DF804FB00BF0D
S1131640000206000080014000B587B00121144863
S113165001F010FF01AB00221A605A609A60C3F8CF
S11316600B2001238DF8043000238DF804300A2365
S11316708DF8063001AB19460A48FFF72BF83123E1
S1131680059305990748FFF793FF0121054804F0E6
S1131690CCF90E20FFF7C6FE00BF07B05DF804FBCF
S11316A0001204000084014000B585B00190019B44
S11316B0002B31D000211A48FFF73EFF72B600BF5D
S11316C0184B00221A7062B600BF01211448FFF7BC
S11316D04DFF0023039316E000BF124B1B78DBB2CF
S11316E083F00103DBB2002BF7D172B600BF0D4BC0
S11316F000221A7062B600BF00210948FFF71CFFE0
S1131700039B01330393039B019A9A42E4D800217B
S11317100348FFF72BFF00E000BF05B05DF804FBB2
S1131720008401406A10002000B585B00190019B3F
S1131730002B23D0019B40F20D3202FB03F3114A2C
S1131740A2FB03239B090393039B002B01D10123D9
S1131750039300210C48FFF7EFFE01210A48FFF72D
S113176005FF00BF084804F050F90246039B93426A
S1131770F8D800210448FFF7F9FE00E000BF05B0E7
S11317805DF804FBD34D62100080014008B50121CF
S1131790034804F041F9034B01221A7000BF08BD4D
S11317A0008001406910002008B50121034804F0BD
S11317B033F9034B01221A7000BF08BD00840140B5
S11317C06A10002000B583B0434B5B6B0193019B0F
S11317D003F08003002B10D00221404804F0ABF941
S11317E03F4B06221A703C4B02225A603A4B80222D
S11317F0DA633C4B01221A706AE0394B1B78DBB286
S1131800013B062B59D801A252F823F029180000F5
S11318104F180000BB18000073180000BB1800002C
S1131820BB1800009B1800000221312000F0CCFFFF
S1131830019B03F04003002B43D0274B0022DA62C4
S1131840274B02221A70244B4022DA6339E0019BB1
S113185003F01003002B36D01F4B01225A601E4B9D
S11318603322DA621E4B04221A701B4B1022DA63F5
S113187029E0019B03F02003002B26D0164BDB69E3
S1131880DAB2194B1A70144B0A225A60144B07220D
S11318901A70114B2022DA6317E0019B03F4807362
S11318A0002B14D00F4B01221A700D4B00221A701A
S11318B0094B4FF48072DA6309E0074A019BD36352
S11318C006E000BF04E000BF02E000BF00E000BF8C
S11318D003B05DF804FB00BF009008405C6A0000A0
S11318E06B1000206C1000206D10002000B583B038
S11318F0034600918DF807309DF80730002B39D04E
S11319009DF80730012B32D09DF80730022B2BD0E5
S11319109DF80730032B24D09DF80730042B1DD0ED
S11319209DF80730052B16D09DF80730062B0FD0F5
S11319309DF80730072B08D09DF80730082B02D1FB
S11319404FF6FF7318E0002316E04FF6FF7313E021
S11319504FF6FF7310E04FF6FF730DE04FF6FF7381
S11319600AE04FF6FF7307E04FF6FF7304E04FF60B
S1131970FF7301E04FF6FF73009AD34003F00103B5
S1131980002B04D140F201410C4804F0D8FA9DF830
S1131990072013465B0013441B010C3303F18043FF
S11319A003F508230121009A01FA02F211461846B0
S11319B004F054F800BF03B05DF804FB646A00004F
S11319C000B583B0034600918DF807309DF80730C9
S11319D0002B39D09DF80730012B32D09DF8073009
S11319E0022B2BD09DF80730032B24D09DF8073011
S11319F0042B1DD09DF80730052B16D09DF8073019
S1131A00062B0FD09DF80730072B08D09DF8073020
S1131A10082B02D14FF6FF7318E0002316E04FF6AF
S1131A20FF7313E04FF6FF7310E04FF6FF730DE002
S1131A304FF6FF730AE04FF6FF7307E04FF6FF73AC
S1131A4004E04FF6FF7301E04FF6FF73009AD340B2
S1131A5003F00103002B04D14FF486610C4804F019
S1131A606EFA9DF8072013465B0013441B010C33E8
S1131A7003F1804303F508230121009A01FA02F2DD
S1131A801146184603F0DDFF00BF03B05DF804FB08
S1131A90646A00004FF0804301225A64164BD3F865
S1131AA0B030154A43F00103C2F8B030124BD3F8FA
S1131AB0E030114A43F00803C2F8E0300F4B1B68D2
S1131AC00E4A43F4805313600B4BD3F8E0300A4AB8
S1131AD023F00803C2F8E030074BD3F8B030064ACD
S1131AE023F00103C2F8B030054B1B68044A43F4E9
S1131AF0F843136000BF704700400E403440054077
S1131B00A4310E4000B585B0FFF7C4FFF54A01AB20
S1131B1007CA83E807001023ADF804301023ADF89A
S1131B20063001AB184603F0F5F8EF4801F010F861
S1131B3001220121022003F065F90421112002F0A1
S1131B40C9FD0121E94801F095FC0121E84801F0B3
S1131B5091FC0121E74801F08DFC0121E64801F0E8
S1131B6089FC0121E54801F085FC0121E44801F0EC
S1131B7081FC0121E34801F07DFC0121E24801F0F0
S1131B8079FC0121E14801F075FC0121E04801F0F4
S1131B9071FC0121DF4801F06DFC0121DE4801F0F8
S1131BA069FC002301220A21022003F07FFD0123A6
S1131BB004220B21022003F079FD012304220821D1
S1131BC0022003F073FD002301220121032003F00E
S1131BD06DFD012304220021032003F067FD00238F
S1131BE001220121052003F061FD012304220021CB
S1131BF0052003F05BFD012304220521052003F0E9
S1131C0055FD002301220721042003F04FFD012389
S1131C1004220621042003F049FD012304220421A7
S1131C20042003F043FD01230F220821012003F0C7
S1131C303DFD012305220721012003F037FD012387
S1131C4005220421022003F031FD4FF0011102208E
S1131C5003F0E2FC4FF00111012003F0DDFC01234D
S1131C6004220A21002003F021FD0A210020FFF7AD
S1131C70A7FE002301220921042003F017FD0023FD
S1131C8001220121012003F011FD01230422062178
S1131C90002003F00BFD002301220121042003F0A6
S1131CA005FD012304220021042003F0FFFC00238E
S1131CB001220321042003F0F9FC01230422022160
S1131CC0042003F0F3FC012304220121002003F08B
S1131CD0EDFC01210020FFF709FE0123042202216B
S1131CE0002003F0E3FC02210020FFF7FFFD0123A5
S1131CF004220321002003F0D9FC03210020FFF774
S1131D00F5FD012304220F21002003F0CFFC0F2155
S1131D100020FFF7EBFD012304220421002003F03F
S1131D20C5FC04210020FFF7E1FD01230422052165
S1131D30002003F0BBFC05210020FFF7D7FD0123A1
S1131D4004220221012003F0B1FC02210120FFF74B
S1131D50CDFD012304220F21002003F0A7FC0F2155
S1131D600020FFF7C3FD012304220A21042003F00D
S1131D709DFC0A210420FFF7B9FD012304220F2151
S1131D80042003F093FC0F210420FFF7AFFD01238F
S1131D9004220E21042003F089FC0E210420FFF705
S1131DA0A5FD012304220C21052003F07FFC0C2156
S1131DB00520FFF79BFD012304220821042003F0E2
S1131DC075FC08210420FFF791FD01230422012161
S1131DD0022003F06BFC01210220FFF787FD0123A1
S1131DE004220B21002003F061FC0B210020FFF7EB
S1131DF07DFD012304220721022003F057FC072163
S1131E000220FFF773FD012304220921022003F0BD
S1131E104DFC09210220FFF769FD0123042206215C
S1131E20012003F043FC06210120FFF75FFD01239D
S1131E3004220221032003F039FC02210320FFF7CE
S1131E4055FD012304220321032003F02FFC032169
S1131E500320FFF74BFD012304220421032003F098
S1131E6025FC04210320FFF741FD4FF0011103205D
S1131E7003F0D2FB4FF00111002003F0CDFB01234E
S1131E8004220921002003F011FC09210020FFF79E
S1131E9097FD012304220821002003F007FC0821F8
S1131EA00020FFF78DFD012304220721002003F009
S1131EB0FDFB07210020FFF783FD012304220A21F3
S1131EC0002003F0F3FB0A210020FFF779FD012332
S1131ED004220021002003F0E9FB00210020FFF789
S1131EE06FFD1BE0BC6A000080F0FA02404105006F
S1131EF000550A00001209000022040000720400C8
S1131F00008204000092060000A2040000B2040053
S1131F1000C20400004E0400005E040001230422F9
S1131F200A21012003F0C2FB0A210120FFF7DEFC95
S1131F30012304220921012003F0B8FB0921012017
S1131F40FFF7D4FC012304220E21002003F0AEFB92
S1131F500E210020FFF7CAFC012304220D210120D9
S1131F6003F0A4FB0D210120FFF7C0FC0123042290
S1131F700C21002003F09AFB0C210020FFF7B6FC93
S1131F80012304220521012003F090FB05210120F7
S1131F90FFF7ACFC012304220B21052003F086FB90
S1131FA00B210520FFF7A2FC012304220A210520AE
S1131FB003F07CFB0A210520FFF798FC012304228F
S1131FC00521032003F072FB05210320FFF78EFC9B
S1131FD0012304220221022003F068FB02210220D3
S1131FE0FFF784FC002301220521022003F05EFB9D
S1131FF0FFF7F8FAFFF728FBFEF782FA00F044FB3C
S113200000BF05B05DF804FB00B583B0FFF77AFDAF
S1132010034B019300F026FA00F092FAFCE700BFAC
S11320203810002000B583B0034600918DF80730C6
S11320309DF80730002B39D09DF80730012B32D0A2
S11320409DF80730022B2BD09DF80730032B24D0AA
S11320509DF80730042B1DD09DF80730052B16D0B2
S11320609DF80730062B0FD09DF80730072B08D0BA
S11320709DF80730082B02D14FF6FF7318E00023B8
S113208016E04FF6FF7313E04FF6FF7310E04FF6C0
S1132090FF730DE04FF6FF730AE04FF6FF7307E09E
S11320A04FF6FF7304E04FF6FF7301E04FF6FF7342
S11320B0009AD34003F00103002B04D14FF486614E
S11320C00C4803F03CFF9DF8072013465B001344C3
S11320D01B010C3303F1804303F508230121009A0B
S11320E001FA02F21146184603F0C5FC00BF03B022
S11320F05DF804FB2C6B0000054B064A1A60044B88
S113210000221A71024B01225A7100BF704700BFAE
S113211058100020A46D000000B583B00190022186
S1132120064803F008FD4FF47A70FFF7BDFAFFF795
S113213043F900BF03B05DF804FB00BF206C00004E
S113214000B585B00190019B03930221054803F07B
S1132150F2FC0121034803F0EEFC00BF05B05DF87A
S113216004FB00BF406C0000054B064A1A60044B98
S113217000221A71024B01225A7100BF704700BF3E
S113218058100020BC6D0000054B064A1A60044B31
S113219000221A71024B01225A7100BF704700BF1E
S11321A058100020E06D000000B585B00190019B3F
S11321B0039303990120FFF763F84FF47A70FFF754
S11321C073FA03990120FFF795F84FF47A70FFF73B
S11321D06BFA03990120FEF7FBFF03990120FFF737
S11321E023F84FF47A70FFF75FFA03990120FEF7A2
S11321F039FF03990120FEF761FF03990120FEF7DF
S11322008FFF002003F0B6FB002003F0CCFB00207E
S113221003F0E2FB03210320FFF704FF0221032064
S1132220FFF700FF04210320FFF7FCFE6420FFF703
S11322303BFA012003F0AFFC022003F0ACFC0320C6
S113224003F0A9FC6420FFF72FFA0A20FFF72CFA09
S1132250054A0021012003F049FE0221034803F04E
S11322606AFC00BFF1E700BFB46C0000C06C000062
S1132270054B064A1A60044B00221A71024B0122D4
S11322805A7100BF704700BF58100020046E000050
S113229000B583B001900221184803F04CFC4FF4C0
S11322A07A714FF48370FEF76BF94FF47A71002062
S11322B0FEF766F94FF47A7140F20B20FEF760F9ED
S11322C04FF47A710020FEF75BF94FF47A7140F213
S11322D01740FEF755F94FF47A710020FEF750F9D4
S11322E04FF47A7140F62D00FEF74AF94FF47A71F3
S11322F00020FEF745F900BFD1E700BFE06C000005
S113230000B583B001900221054803F014FC0721B5
S1132310034803F010FC00BF03B05DF804FB00BFEA
S1132320F86C000000B583B003468DF807309DF8C3
S11323300730092B09D99DF807300F4AA2FB032364
S1132340DB08DBB21846FFF7EDFF9DF807200A4BC8
S1132350A3FB0213D9080B469B000B445B00D31A62
S1132360DBB23033DBB20221184600F02DFA00BF95
S113237003B05DF804FB00BFCDCCCCCC00B583B07A
S113238002212B4803F0D7FB2A4B1B689B680221D0
S1132390184603F0D0FB0221274803F0CCFB0023AE
S11323A08DF8073031E0234B1B799DF807209A42C2
S11323B004D10221214803F0BEFB03E0022120489E
S11323C003F0B9FB9DF807300133DBB21846FFF781
S11323D0A9FF02211B4803F0AEFB164B1B681968CA
S11323E09DF8072013465B0013449B000B441B68B5
S11323F00221184603F09FFB0221134803F09BFBC4
S11324009DF8073001338DF807300A4B1B681B79A0
S11324109DF807209A42C6D3064B5B79002B03D064
S113242002210A4803F087FB00BF03B05DF804FBF8
S1132430186D000058100020206D0000286D000069
S11324402C6D0000306D0000346D0000386D00000C
S113245008B5034803F086FB0346184608BD00BFD1
S113246000080140054B064A1A60044B00221A7109
S1132470024B00225A7100BF704700BF5810002061
S1132480746D0000054B1B79002B05D0034B1B79A1
S1132490013BDAB2014B1A7100BF7047581000209B
S11324A0084B1B791A46074B1B681B79013B9A4260
S11324B005DA044B1B790133DAB2024B1A7100BFFF
S11324C0704700BF5810002000B583B0114B1B6843
S11324D01A68104B1B7919460B465B000B449B0092
S11324E013445B68002B11D00A4B1B681A68094B14
S11324F01B7919460B465B000B449B001344019364
S1132500019B5B68019A92681046984700BF03B02C
S11325105DF804FB58100020074B5B79002B08D0B2
S1132520054B064A1A60044B00221A71024B002222
S11325305A7100BF704700BF58100020746D00002E
S113254000B583B0FEF72EFFFFF718FFFFF780FFFB
S113255003468DF807309DF80730772BF2DC422BC9
S113256009DA302B00F08680302BEBDC0A2B7BD091
S11325700D2B79D082E0423B352BE3D801A252F8EF
S113258023F000BF6F26000045250000452500000C
S1132590452500004525000045250000452500008F
S11325A0452500004525000045250000452500007F
S11325B0452500004525000045250000452500006F
S11325C07F26000045250000632600004525000005
S11325D045250000452500005D2600004525000036
S11325E0452500004525000045250000452500003F
S11325F0452500004525000045250000452500002F
S1132600452500006F2600004525000045250000F3
S1132610452500004525000045250000452500000E
S113262045250000452500004525000045250000FE
S113263045250000452500004525000045250000EE
S113264045250000452500006326000045250000BF
S113265045250000452500005D260000FFF712FF18
S11326600CE0FFF71DFF09E0FFF72EFF06E0FFF780
S113267053FF03E0FFF750FF00BF63E762E700BFCB
S113268003B05DF804FB00BF30B58FB0444B07AC1A
S11326901D460FCD0FC495E8070084E80700414BA1
S11326A06C461D460FCD0FC495E8070084E807006B
S11326B007AB19463C48FEF747FA3B4B40F202226F
S11326C09A67394B5B6F384A43F00303536707AB90
S11326D019463648FEF738FA344B40F201129A672D
S11326E0324B5B6F314A43F00303536707AB194620
S11326F02F48FEF729FA2E4B40F205529A672C4BCD
S11327005B6F2B4A43F00303536707AB1946294811
S1132710FEF71AFA274B40F201129A67254B5B6FBA
S1132720244A43F0030353676B4619462248FEF7D5
S1132730A9FA214B00229A671F4B5B6F1E4A43F094
S11327400B03536707AB19461C48FEF7FDF91B4BF7
S11327504FF481729A67194B5B6F184A43F0030375
S1132760536707AB19461648FEF7EEF9144B40F2CF
S113277001129A67124B03225A6707AB1946114894
S1132780FEF7E2F90F4B40F203329A670D4B032236
S11327905A6705210848FEF785F900BF0FB030BD20
S11327A0106E00002C6E0000000001400004014087
S11327B000080140000C01400010014000140140D9
S11327C0004001400044014000B583B0034600913D
S11327D08DF80730009B072B4AD801A252F823F04A
S11327E0012800000F2800001D2800002B280000ED
S11327F039280000472800005528000063280000FD
S11328009DF807301946204803F087F837E09DF813
S1132810073019461D4803F080F830E09DF8073072
S113282019461B4803F079F829E09DF8073019464A
S1132830184803F072F822E09DF80730194616484C
S113284003F06BF81BE09DF807301946134803F0BA
S113285064F814E09DF807301946114803F05DF858
S11328600DE09DF8073019460E4803F056F806E0CF
S11328709DF807301946064803F04FF800BF00BF23
S113288003B05DF804FB00BF0000014000040140F8
S113289000080140000C01400010014000140140F8
S11328A0004001400044014010B584B0044608468D
S11328B011461A4623468DF8073003468DF8063034
S11328C00B468DF8053013468DF804309DF806301C
S11328D05B015BB203F060035BB263F07F035AB247
S11328E09DF9053003F01F035BB213435BB28DF80F
S11328F00F309DF80730032B0ED0032B10DC012B77
S113290002D0022B04D00BE0012003F033F807E0DF
S1132910012003F048F803E0012003F05DF800BF54
S11329200120FEF701FF9DF80F301946124802F00E
S1132930D7FF9DF8043019460F4802F0D1FF01205B
S1132940FEF7F2FE9DF80730032B0ED0032B10DCAC
S1132950012B02D0022B04D00BE0002003F00AF874
S113296007E0002003F01FF803E0002003F034F830
S113297000BF00BF04B010BD0010014000B585B019
S113298000F0FEF81F4B039319E0002302930EE0BE
S1132990039B1A68029B9B001A44039B5968029B81
S11329A09B000B4412681A60029B01330293039B41
S11329B09B68029A9A42EBD3039B0C330393039BC9
S11329C0114A9342E1D3114B019314E00023009385
S11329D009E0019B1A68009B9B00134400221A60C3
S11329E0009B01330093019B5B68009A9A42F0D3E9
S11329F0019B08330193019B054A9342E6D3FDF7FB
S1132A00F5FB00BFA8710000B4710000B4710000B0
S1132A10B471000000B583B000F020F801900A4BB7
S1132A20D3F808311B0AC3F308030093009B013356
S1132A30019AB2FBF3F30193044A019B1360019BD7
S1132A40184603B05DF804FB00400E400810002057
S1132A50014B1846704700BF00A24A0482B0314BB4
S1132A60D3F8943003F00703023B042B49D801A2A6
S1132A7052F823F0992A0000912A0000892A0000C4
S1132A80F92A0000A12A0000274B1B6801933CE0AF
S1132A904FF40043019338E0244B1B68019334E066
S1132AA0204B9B681B0C03F01F03073B072B1FD80D
S1132AB001A252F823F000BFD92A0000F12A000035
S1132AC0F12A0000F12A0000DF2A0000F12A0000A8
S1132AD0E52A0000EB2A0000154B01930BE0154B8F
S1132AE0019308E0144B019305E0144B019302E0B9
S1132AF00023019300BF08E0114B1B685B0801939E
S1132B0003E00F4B1B68019300BF064BD3F8003161
S1132B101B0A03F01F030133019AB2FBF3F31846B7
S1132B2002B0704700400E40041000200010002046
S1132B300024F4000048E801006CDC0280F0FA0292
S1132B400C100020014B1B68184670470010002031
S1132B5000B583B00190084A019B1360074BD3F87A
S1132B60943003F00703022B01D1FFF753FF00BF9A
S1132B7003B05DF804FB00BF0010002000400E40CD
S1132B80064B074A9A60054BD3F88830034A43F44E
S1132B907003C2F8883000BF704700BF00ED00E04A
S1132BA000000000014B1B68184670470410002009
S1132BB000B583B00190019B1F2B04D940F277111B
S1132BC0054803F0BCF90122019B02FA03F31846FD
S1132BD003B05DF804FB00BF486E000000B587B089
S1132BE0039002910192029B1F2B03D991210A4861
S1132BF003F0A5F9039B03F1424303F58013DA00C4
S1132C00029B13449B000593059B019A1A6000BF25
S1132C1007B05DF804FB00BFA46E000000B585B0EA
S1132C200190019B002B03D0019BB3F5004F04D905
S1132C3040F693510A4803F082F9019B0293029BE8
S1132C40002B01D1202303E0029BB3FA83F3DBB210
S1132C50C3F11F030393039B184605B05DF804FBFF
S1132C60FC6E000000B585B00190019BB3F5004FE8
S1132C7004D340F63A61124803F061F9019B013331
S1132C800293029B002B01D1202303E0029BB3FAA1
S1132C9083F3DBB2C3F11F0303930398FFF788FFA9
S1132CA00346013B019A9A4204D040F6416104482C
S1132CB003F045F9039B184605B05DF804FB00BF1B
S1132CC0FC6E0000054B1B6803F04003002B01D190
S1132CD0012300E000231846704700BF3C300E403B
S1132CE008B5FFF7EFFF034683F00103DBB2002BC7
S1132CF008D100BF1221044803F02AF90346002B2F
S1132D00F8D100E000BF08BD04300E4008B5FFF75D
S1132D10E7FF044B5B681B0C03F00303DBB21846AC
S1132D2008BD00BF00300E4000B585B001900123FE
S1132D300393019B124A934204D800230393002374
S1132D40029308E0019B0F4A934202D801230293A5
S1132D5001E002230293039A10210B48FFF73EFF80
S1132D60094BD3F8003123F04072029B1B0606493D
S1132D701343C1F8003100BF05B05DF804FB00BF88
S1132D800048E8010090D00300400E4082B0034B9D
S1132D901B680193019B184602B070471010002075
S1132DA000B583B0FFF75AFE0190074BD3F800310A
S1132DB01B0A03F01F030133019A02FB03F31846B5
S1132DC003B05DF804FB00BF00400E4000B583B0C3
S1132DD0104801F09FFA03468DF803309DF8033044
S1132DE0072B05D0092B07D1FFF738FE01900BE024
S1132DF0FFF7CCFF019007E00023019341F2D66175
S1132E00054803F09CF800BF019B184603B05DF829
S1132E1004FB00BF06000E00546F000000B585B02F
S1132E200190019B002B03D0019B012B07D00DE0E7
S1132E30244801F06FFA03468DF80B300DE0224868
S1132E4001F068FA03468DF80B3006E041F2F661B2
S1132E501E4803F074F8002330E09DF80B30013B6A
S1132E60072B22D801A252F823F000BF8D2E0000B8
S1132E70AB2E0000AB2E00009B2E0000AB2E0000FA
S1132E80AB2E0000932E0000A32E0000002303931A
S1132E9013E0FFF77BFF03900FE0FFF753FE03906F
S1132EA00BE0FFF77DFF039007E00023039341F25B
S1132EB00D71064803F043F800BF039B184605B0A4
S1132EC05DF804FBB8003200B9003400546F000010
S1132ED000B583B01C4801F01DFA03468DF8033099
S1132EE09DF80330043B062B20D801A252F823F0AE
S1132EF0152F00000D2F00002D2F00001D2F0000A6
S1132F002D2F00002D2F0000252F00000F4B1B68D4
S1132F10019313E0FFF716FE01900FE0FFF736FF71
S1132F2001900BE00A4B1B68019307E00023019317
S1132F3041F23771074803F002F800BF019B1846BD
S1132F4003B05DF804FB00BF0A7B36000C100020C0
S1132F5014100020546F000000B585B00190019B4F
S1132F60002B1DD1204801F0D5F903468DF80B3014
S1132F7000BF9DF80B30043B062B28D801A252F861
S1132F8023F000BFB72F0000AF2F0000CF2F0000A9
S1132F90BF2F0000CF2F0000CF2F0000C72F00004D
S1132FA041F25271114802F0CAFF002318E0104B9D
S1132FB01B68039313E0FFF7C5FD03900FE0FFF7D1
S1132FC0E5FE03900BE00B4B1B68039307E0002323
S1132FD0039341F26971054802F0B1FF00BF039BFE
S1132FE0184605B05DF804FB0B7C3800546F0000F4
S1132FF00C1000201410002000B583B0244801F008
S113300089F903468DF803309DF80330023B092B00
S113301030D801A252F823F0653000006D30000072
S1133020493000005D30000075300000753000004C
S11330307530000075300000413000005130000050
S1133040144B1B6801931DE0FFF77CFD019019E010
S1133050FFF778FD03465B00019313E00E4B1B68FA
S113306001930FE0FFF79EFD01900BE002F05FFF7C
S1133070019007E0002301934FF4BE51074802F08A
S11330805EFF00BF019B184603B05DF804FB00BF60
S11330900C7F3A00141000200C100020546F000024
S11330A000B585B00190009102F096FF034603F04D
S11330B0407303930023029312E01D4A029BDB003A
S11330C013441A79009BDBB29A4206D1184A029B38
S11330D052F83330019A9A4206D9029B0133029383
S11330E0029B062BE9D900E000BF029B072B07D106
S11330F00323039341F614010E4802F020FF05E078
S11331000B4A029BDB0013445B790393039B1B066E
S1133110039302F061FF034623F04073039A1343C1
S11331200393039802F05DFF00BF05B05DF804FB54
S1133130AC6F0000546F000000B585B001900091A1
S11331400B4B0393009B022B01D10A4B0393019A6F
S1133150039B9A4204D90849084802F00BFF03E094
S11331600549064802F013FF00BF05B05DF804FBF3
S113317080D543020024F400020202000001004052
S113318000B583B001900091019B0C4A934209D988
S1133190009B002B06D14FF480514FF0804002F089
S11331A0E9FE06E04FF480514FF0804002F0EFFE5C
S11331B000BF00BF03B05DF804FB00BF80F0FA025B
S11331C0034B5B6A1B0903F003031846704700BFF7
S11331D000400E4082B00190054B5B6A23F0300240
S11331E0019B1B01024913434B6200BF02B07047AD
S11331F000400E4010B584B0019000230293019B5F
S11332004D4A934219D0019B4B4A93420FD8019BDC
S11332104A4A934211D0019B484A934207D8019BE2
S1133220474A934209D0019B464A934205D041F64E
S11332301311454802F083FE00E000BF019801F03D
S113324069F803460393019B3B4A934229D0019BAF
S1133250394A93422CD8019B384A93421AD0019B95
S1133260364A934224D8019B354A934204D0019BA9
S1133270344A934207D01BE0344BD3F8803003F038
S1133280070303931AE0314BD3F8843003F00703A8
S1133290039313E02D4BD3F88C3003F0070303930F
S11332A00CE02A4BD3F8883003F00703039305E0BE
S11332B041F64211244802F042FE00BF039B042B56
S11332C02DD801A252F823F019330000DD3200009A
S11332D0E5320000F5320000ED32000002F027FE76
S11332E0029024E0FFF75EFC029020E002F023FE4F
S11332F002901CE0FFF7B2FB0446144BD3F80031F4
S11333001B0E03F0030301331846FFF751FC034679
S1133310B4FBF3F302930AE00023029307E00023D3
S1133320029341F69411084802F009FE00BF029B83
S1133330184604B010BD00BF05002400040022009C
S113334002001E0003002000546F000000400E40E5
S113335082B00190094BD3F8443103F00103002BF0
S113336008D100BF054BD3F84021019B1340002B2B
S1133370F8D100E000BF02B0704700BF00400E402B
S113338008B50321064800F0F5FC0321054800F0C8
S1133390F1FC0321044800F0EDFC00BF08BD00BFB0
S11333A040410500504107006041090000B583B069
S11333B0FFF754FB0090FFF7A9FC0346022B1AD138
S11333C0009A234B1344234AA2FB0323DB0D0193EE
S11333D0019B002B02D0019B013B019301991E48E4
S11333E000F0C8FC01991D4800F0C4FC01991C4878
S11333F000F0C0FC27E0009A1A4B13441A4AA2FBBF
S113340003231B0E0193019B002B02D0019B013B64
S113341001930199104800F0ADFC0199104800F0A7
S1133420A9FC009A114B1344114AA2FB03239B0EDF
S11334300193019B002B02D0019B013B0193019955
S1133440064800F097FC00BF03B05DF804FB00BF22
S1133450FF2C31016BCA5F6B4041050050410700EE
S1133460604109007FF0FA02893BE655FFA14A0456
S1133470B5FA9BEE00B587B001900B468DF803308A
S113348000230493019B1B0A03F00F03013B0E2B43
S113349072D801A252F823F0D5340000E1340000C0
S11334A07935000079350000DB340000ED3400008C
S11334B0F7340000013500000D35000073350000BD
S11334C0193500004335000079350000E734000069
S11334D06D350000364B059354E0364B059351E0AF
S11334E0354B05934EE0354B05934BE0344B059338
S11334F00123049346E0334B05931023049341E0E6
S1133500314B05934FF4807304933BE02F4B0593A9
S11335104FF48033049335E02D4B05939DF803302D
S1133520002B14BF01230023DBB283F00103DBB2C1
S11335308DF803309DF8033003F001038DF8033058
S113354020E0244B05939DF80330002B14BF012386
S11335500023DBB283F00103DBB28DF803309DF866
S1133560033003F001038DF803300BE01A4B05938D
S113357008E01A4B059305E041F6B051184802F0F3
S1133580DEFC11E0019B1B0B03F01F030393049B60
S1133590002B02D00498FFF7DBFE9DF803301A4697
S11335A003990598FFF71AFB07B05DF804FB00BF09
S11335B000400E40B0400E40C0400E40C4400E409B
S11335C0E0400E40E8400E40EC400E40F0400E401B
S11335D060410E4064410E40F0410E4050410E40A7
S11335E0546F000010B584B00190019B03F478136C
S11335F0B3F5781F00F01082B3F5781F00F217823C
S1133600B3F5681F00F00482B3F5681F00F20F825F
S1133610B3F5601F00F0F781B3F5601F00F2078275
S1133620B3F5581F00F0EB81B3F5581F00F2FF818A
S1133630B3F5501F00F0D381B3F5501F00F2F781AA
S1133640B3F5481F00F0BC81B3F5481F00F2EF81C9
S1133650B3F5401F00F08E81B3F5401F00F2E781FF
S1133660B3F5381F00F04D81B3F5381F00F2DF8148
S1133670B3F5281F00F03281B3F5281F00F2D7817B
S1133680B3F5201F00F08A81B3F5201F00F2CF812B
S1133690B3F5101F00F08781B3F5101F00F2C78146
S11336A0B3F5001F00F03C81B3F5001F00F2BF81A9
S11336B0B3F5F01F00F0CB80B3F5F01F00F2B78133
S11336C0B3F5E01F00F04381B3F5E01F00F2AF81D2
S11336D0B3F5D01F00F02981B3F5D01F00F2A78104
S11336E0B3F5C01F00F0E780B3F5C01F00F29F815F
S11336F0B3F5B01F00F0CD80B3F5B01F00F2978191
S1133700B3F5A01F00F0B780B3F5A01F00F28F81BE
S1133710B3F5901F00F0A080B3F5901F00F28781ED
S1133720B3F5801F00F04881B3F5801F00F27F815C
S1133730B3F5602F00F03C81B3F5602F00F2778180
S1133740B3F5402F74D0B3F5402F00F27081B3F578
S1133750202F4FD0B3F5202F00F26981B3F5002F4D
S113376039D0B3F5002F00F26281B3F5C02F23D016
S1133770B3F5C02F00F25B81B3F5802F0DD0B3F504
S1133780802F00F25481002B03D0B3F5003F40D0CA
S11337904DE1FFF763F9039051E1FFF75FF90390FF
S11337A0A94BD3F80C311B0AC3F308030133039A62
S11337B0B2FBF3F3039342E1FFF750F90390A24BFA
S11337C0D3F818311B0AC3F308030133039AB2FB7D
S11337D0F3F3039333E1FFF741F903909A4BD3F8E2
S11337E01C311B0AC3F308030133039AB2FBF3F33E
S11337F0039324E1FFF732F90390934BD3F8043198
S11338001B0AC3F308030133039AB2FBF3F30393D4
S113381015E1FFF723F903908B4BD3F808311B0A0A
S1133820C3F308030133039AB2FBF3F3039306E1F2
S1133830FFF714F90390844BD3F814311B0A03F0F7
S11338401F030133039AB2FBF3F30393F7E07F48BA
S1133850FFF7D0FC0390F2E07C48FFF7CBFC039029
S1133860794BD3F820311B0C03F00F03039A22FA8F
S113387003F30393E3E07648FFF7BCFC0390724B39
S1133880D3F8303103F00303039A22FA03F30393CA
S1133890D5E06E48FFF7AEFC03906B4BD3F82031B4
S11338A003F00F031846FFF783F90246039BB3FBAB
S11338B0F2F30393C3E06548FFF79CFC0390624B6B
S11338C0D3F820311B0903F00F031846FFF770F9F2
S11338D00246039BB3FBF2F30393B0E05B48FFF7AC
S11338E089FC0390584BD3F820311B0B03F00703DA
S11338F01846FFF75DF90246039BB3FBF2F303930B
S11339009DE05248FFF776FC03904F4BD3F82031EB
S11339101B0A03F00303039A22FA03F303938EE0D2
S11339204C48FFF767FC039089E04A48FFF762FCC4
S11339300390454BD3F8283103F003031846FFF7EF
S113394037F90246039BB3FBF2F3039377E0414854
S1133950FFF750FC03903C4BD3F828311B0903F0CC
S113396003031846FFF724F90246039BB3FBF2F363
S1133970039364E03748FFF73DFC0390324BD3F8E0
S113398028311B0B03F0030304331846FFF710F927
S11339900246039BB3FBF2F3039350E02E48FFF778
S11339A029FC03904BE02A48FFF724FC039046E0EF
S11339B0FFF70CFA039042E0FFF7E8F903903EE0CA
S11339C00020FFF72BFA03901F4BD3F85C3103F070
S11339D003030133039AB2FBF3F303932FE00120B3
S11339E0FFF71CFA0390184BD3F85C311B0C03F05F
S11339F003030133039AB2FBF3F303931FE0FFF7CE
S1133A0067FA03901BE00020FFF7A6FA039016E084
S1133A10FFF7F2FA039012E0FFF720F8044601984A
S1133A2002F023FB0346B4FBF3F3039307E0002304
S1133A3003934FF4F751094802F081FA00BF039B46
S1133A40184604B010BD00BF00400E4002001E0026
S1133A50050024000300200004002200546F00002D
S1133A6000B585B00190019B1B0903F00F0302937D
S1133A70029B013B0B2B00F2538101A252F823F06D
S1133A80B13A0000C13A0000D13A0000F13A000016
S1133A90013B0000113B0000213B0000313B0000D2
S1133AA01D3C0000A73C0000CF3C0000113D00007D
S1133AB0A24BD3F800311B0A03F01F03039337E131
S1133AC09E4BD3F814311B0A03F01F0303932FE119
S1133AD09A4BD3F800311B0E03F003030393039BAB
S1133AE001331846FFF764F80346013B03931FE1D3
S1133AF0924BD3F80C311B0AC3F30803039317E169
S1133B008E4BD3F818311B0AC3F3080303930FE158
S1133B108A4BD3F81C311B0AC3F30803039307E150
S1133B20864BD3F808311B0AC3F308030393FFE061
S1133B30019B834A934230D0019B814A934264D8CB
S1133B40019B804A934244D0019B7E4A93425CD8B5
S1133B50019B7D4A93423CD0019B7B4A934254D8BB
S1133B60019B7A4A934226D0019B784A93424CD8CF
S1133B70019B774A93423AD0019B764A934244D1BF
S1133B806E4BD3F8203103F00F0303930398FFF730
S1133B900FF80346013B03933FE0684BD3F8203111
S1133BA01B0A03F0030303930398FFF701F803468A
S1133BB0013B039331E0614BD3F820311B0903F03F
S1133BC00F0303930398FEF7F3FF0346013B0393AC
S1133BD023E05A4BD3F820311B0B03F00703039364
S1133BE00398FEF7E5FF0346013B039315E0534BAF
S1133BF0D3F820311B0C03F00F0303930398FEF753
S1133C00D7FF0346013B039307E00023039341F6E8
S1133C105471514802F093F900BF89E0019B4F4A67
S1133C20934227D0019B4D4A934233D8019B4C4A7F
S1133C30934204D0019B4B4A93420DD02AE03F4B60
S1133C40D3F8283103F0030303930398FEF7B0FF7E
S1133C500346013B039325E0384BD3F828311B0975
S1133C6003F0030303930398FEF7A2FF0346013B0B
S1133C70039317E0314BD3F828311B0B03F00303F4
S1133C800393039B04331846FEF792FF0346013B5C
S1133C90039307E00023039341F678712E4802F062
S1133CA04EF900BF44E0019B2F4A934206D1234BB7
S1133CB0D3F8303103F00303039307E000230393A5
S1133CC041F68771244802F03AF900BF30E0019BC5
S1133CD0264A934204D0019B254A934207D00EE022
S1133CE0164BD3F85C3103F0030303930FE0134B3B
S1133CF0D3F85C311B0C03F00303039307E00023A8
S1133D00039341F69F71144802F019F900BF0FE0C4
S1133D100A4BD3F804311B0AC3F30803039307E0E7
S1133D200023039341F6AC710B4802F008F900BF7D
S1133D30039B184605B05DF804FB00BF00400E402D
S1133D4080262E0000362C0080002A0080161800E1
S1133D508046120080061600546F00009037300031
S1133D6090071A0090171C00A0091400B800320034
S1133D70B900340000B585B001900091019B1B0986
S1133D8003F00F030393039B013B0B2B00F2A78269
S1133D9001A252F823F000BFC93D0000233E0000F9
S1133DA04B3E00006B3E0000993E0000C73E000001
S1133DB0F53E00003B3F000025410000FF410000AC
S1133DC043420000B1420000009B1F2B04D941F67E
S1133DD0D571AB4802F0B3F802F00CF9A948FEF72C
S1133DE0A3FFFFF7CDFAA84BD3F8003123F4F85220
S1133DF0009B1B02A4491343C1F80031FEF70AFEDD
S1133E000290FEF783FF03461946029802F00CF96C
S1133E10FEF724FE03461846FEF786FFFFF7C6FAB0
S1133E2063E2009B1F2B04D941F6EB71944802F026
S1133E3086F8954BD3F8143123F4F852009B1B02F7
S1133E4091491343C1F814314FE20098FEF7E6FE9E
S1133E5000908D4BD3F8003123F04072009B1B0679
S1133E6089491343C1F800313FE2009BB3F5007F59
S1133E7004D341F6F871824802F061F8824BD3F81A
S1133E800C3123F4FF3323F48073009A12027E4929
S1133E901343C1F80C3128E2009BB3F5007F04D32F
S1133EA041F6FF71764802F04AF8774BD3F818319F
S1133EB023F4FF3323F48073009A120272491343EC
S1133EC0C1F8183111E2009BB3F5007F04D342F22C
S1133ED007016B4802F033F86B4BD3F81C3123F421
S1133EE0FF3323F48073009A120267491343C1F825
S1133EF01C31FAE1009BB3F5007F04D342F20E01BA
S1133F005F4802F01CF802F075F85F4BD3F80831F3
S1133F1023F4FF3323F48073009A12025A491343A3
S1133F20C1F80831FEF776FD0290FEF7EFFE034676
S1133F301946029802F078F8D7E1019B534A93425C
S1133F4000F0B280019B514A934200F2E480019B4D
S1133F504F4A934200F0C380019B4D4A934200F2C2
S1133F60DA80019B4B4A934200F0B980019B494A95
S1133F70934200F2D080019B474A934264D0019B54
S1133F80454A934200F2C780019B444A934240D081
S1133F90019B424A934200F2BE80019B404A9342F5
S1133FA004D0019B3F4A93421CD0B4E0009BB3F57C
S1133FB0004F04D942F22001314801F0C0FF0098BB
S1133FC0FEF750FE00900420FFF7C2F92E4BD3F801
S1133FD0203123F47022009B1B042B491343C1F8A6
S1133FE020319EE0009B022B04D942F23101244887
S1133FF001F0A5FF4FF48020FFF7AAF9224BD3F874
S1134000303123F003022049009B1343C1F83031BF
S113401087E0009BB3F5004F04D942F24E011848E3
S113402001F08DFF0098FEF71DFE00900420FFF7BD
S11340308FF9154BD3F8203123F00F021249009B5E
S11340401343C1F820316CE0009BB3F5004F04D951
S113405042F25D010A4801F072FF0098FEF702FE89
S113406000900420FFF774F9074BD3F8203123F0B4
S1134070F002009B1B0104491343C1F8203150E0B6
S1134080546F00000148E80100400E4080262E00D5
S113409000362C0080002A008016180080061600C6
S11340A080461200A0091400009B082B04D942F298
S11340B06C01904801F043FF0098FEF7D3FD009097
S11340C00420FFF745F98C4BD3F8203123F44072D8
S11340D0009B1B0288491343C1F8203121E0009B57
S11340E0B3F5004F04D942F27C01824801F027FF66
S11340F00098FEF7B7FD00900420FFF729F97E4BE6
S1134100D3F8203123F4E042009B1B037A49134384
S1134110C1F8203105E042F28A01764801F00FFF30
S113412000BFE2E0019B754A934241D0019B734A70
S113413093425DD8019B724A934204D0019B714A19
S113414093421AD054E0009B082B04D942F2930105
S1134150684801F0F4FE0098FEF784FD00904020CA
S1134160FFF7F6F8644BD3F8283123F003026249D1
S1134170009B1343C1F8283140E0009B082B04D96D
S113418042F2A2015B4801F0DAFE0098FEF76AFDF4
S113419000904020FFF7DCF8574BD3F8283123F088
S11341A03002009B1B0154491343C1F8283125E018
S11341B0009B7F2B02D8009B0E2B04D842F2B10146
S11341C04C4801F0BCFE0098FEF74CFD0346043B4E
S11341D000934020FFF7BCF8474BD3F8283123F471
S11341E04052009B1B0344491343C1F8283105E0A6
S11341F04FF403513F4801F0A2FE00BF75E0019B5C
S1134200414A934216D1009B022B04D942F2CA01BF
S1134210384801F094FE4FF48020FFF799F8364BAC
S1134220D3F8303123F003023349009B1343C1F820
S1134230303105E042F2DA012E4801F080FE00BF81
S113424053E0019B314A934204D0019B304A93428C
S113425013D026E0009B032B04D942F2E501254844
S113426001F06DFE244BD3F85C3123F003022249A4
S1134270009B1343C1F85C3119E0009B032B04D964
S113428042F2ED011B4801F05AFE1B4BD3F85C319E
S113429023F44032009B1B0417491343C1F85C31DB
S11342A005E042F2F301134801F049FE00BF1CE0AF
S11342B0009BB3F5007F04D342F2FB010D4801F0EB
S11342C03EFE0D4BD3F8043123F4FF3323F4807303
S11342D0009A120208491343C1F8043105E042F27E
S11342E00211044801F02BFE00BF00BF05B05DF8C9
S11342F004FB00BF546F000000400E4090373000B4
S113430090071A0090171C00A0091400B80032008E
S1134310B900340000B585B0019001238DF80F3049
S1134320019B03F00F030293029B013B0B2B00F252
S1134330B68101A252F823F069430000D343000080
S113434011440000A144000063440000DF44000065
S11343509F4600000945000057450000AB4500009A
S1134360F345000041460000B44BD3F8943003F009
S11343700703023B052B27D801A252F823F000BF04
S1134380A9430000A143000099430000B143000089
S1134390C1430000B943000002238DF80F3017E039
S11343A003238DF80F3013E004238DF80F300FE052
S11343B00D238DF80F300BE00E238DF80F3007E03E
S11343C00A238DF80F3003E005238DF80F3000BF6A
S11343D075E19A4BD3F8803003F00703042B0ED019
S11343E0042B10D8012B02D0022B04D00BE00323A2
S11343F08DF80F300BE002238DF80F3007E00C230B
S11344008DF80F3003E001238DF80F3000BF56E123
S11344108A4BD3F8843003F00703013B032B1BD8EA
S113442001A252F823F000BF3944000041440000C7
S1134430514400004944000003238DF80F300FE07D
S113444002238DF80F300BE00C238DF80F3007E0BA
S113445006238DF80F3003E001238DF80F3000BFE1
S11344602DE1764BD3F8883003F00703042B0ED0EC
S1134470042B10D8012B02D0022B04D00BE0032311
S11344808DF80F300BE002238DF80F3007E00C237A
S11344908DF80F3003E001238DF80F3000BF0EE1DB
S11344A0664BD3F88C3003F00703042B0ED0042B97
S11344B010D8012B02D0022B04D00BE003238DF87B
S11344C00F300BE002238DF80F3007E00C238DF83A
S11344D00F3003E001238DF80F3000BFEFE0574B9E
S11344E01B6F03F00303002B05D0012B07D1092315
S11344F08DF80F3007E007238DF80F3003E0012318
S11345008DF80F3000BFDAE04C4BD3F85C3103F088
S11345103003302B16D0302B18D8202B0ED0202B64
S113452014D8002B02D0102B04D00FE001238DF8F7
S11345300F300FE007238DF80F300BE004238DF8C4
S11345400F3007E008238DF80F3003E001238DF8C6
S11345500F3000BFB3E0394BD3F85C3103F44013A0
S1134560B3F5401F1CD0B3F5401F00F2A180B3F592
S1134570001F11D0B3F5001F00F29A80002B03D066
S1134580B3F5801F04D093E001238DF80F300BE0C6
S113459007238DF80F3007E004238DF80F3003E074
S11345A008238DF80F3000BF82E0244BD3F860312C
S11345B003F00303032B7DD801A252F823F000BFBC
S11345C0D1450000D9450000E1450000E94500005F
S11345D005238DF80F300BE004238DF80F3007E02E
S11345E007238DF80F3003E00A238DF80F3000BF46
S11345F060E0124BD3F8643103F00303032B5BD860
S113460001A252F823F000BF194600002146000021
S1134610294600003146000005238DF80F300BE0D9
S113462004238DF80F3007E007238DF80F3003E0E3
S11346300A238DF80F3000BF3EE000BF00400E405B
S1134640224BD3F8F03103F00703052B36D801A22F
S113465052F823F06D460000754600007D460000C8
S1134660854600008D460000954600000A238DF81B
S11346700F3013E004238DF80F300FE00B238DF877
S11346800F300BE005238DF80F3007E002238DF87F
S11346900F3003E003238DF80F3000BF0EE000233A
S11346A08DF80F3042F20131094801F048FC06E070
S11346B000BF04E000BF02E000BF00E000BF9DF8BF
S11346C00F30184605B05DF804FB00BF00400E40F3
S11346D0546F000000B58BB001900B468DF8033089
S11346E00323099303238DF8233000230693002327
S11346F00593019B112B1BD19DF80330042B03D18F
S1134700FEF720FA05900CE09DF80330052B08D144
S113471000F0FAFA0346BD4A934202D900F0F4FAD3
S11347200590059B002B03D00021059800F0DAFDCD
S1134730019B03F00F030493049B013B0B2B00F23A
S1134740D38201A252F823F0794700009748000071
S1134750ED480000AD480000CD4800009949000034
S1134760E94C0000C54900006B4A0000ED4A000016
S11347707B4B00000B4C00009DF80330023B0C2BDC
S113478052D801A252F823F0BD470000C9470000E7
S1134790D5470000E74700002948000029480000E9
S11347A02948000029480000114800002948000059
S11347B01D480000F9470000054800000423099340
S11347C000238DF8233035E00323099301238DF86A
S11347D023302FE00223099302238DF823308C48E1
S11347E0FEF7A2FA26E00123099303238DF8233070
S11347F08748FEF799FA1DE00523099303238DF8F2
S1134800233017E00723099307238DF8233011E0A1
S11348100623099305238DF823300BE042F22F5130
S11348207C4801F08CFB65E242F23451794801F096
S113483086FB5FE29DF82330072B06D09DF82330DA
S113484001220121184600F0DDFA01F0D3FBFEF746
S113485097FD059B002B01D0FEF742FA6E4A099B97
S11348605367FEF7D7F80390FEF7F8F803461846A7
S1134870FEF75AFAFEF74AFA03461946039801F07E
S1134880D3FB059B002B03D10121002000F02AFD5E
S1134890FEF78CFD2EE2614B06939DF80330062B48
S11348A004D142F273515B4801F049FB069B002B93
S11348B001D0069B00E05A4B06939DF80330062B6B
S11348C004D142F27B51534801F039FB069B002B83
S11348D001D0069B00E0534B06939DF80330062B52
S11348E004D142F283514B4801F029FB069B002B73
S11348F001D0069B00E04C4B06939DF80330013B2E
S11349000B2B3FD801A252F823F000BF3D49000011
S113491043490000534900008549000085490000CF
S1134920634900008549000085490000854900006D
S113493085490000854900007F4900000023079352
S113494026E001220121002000F05CFA02230793F3
S11349501EE001220121012000F054FA01230793F3
S113496016E0FEF77BF803461846FEF7DDF9012250
S113497000212E48FEF732F90323079308E00423AD
S1134980079305E042F2AE51224801F0D8FAB1E1B2
S1134990069B079A1A60ADE19DF80330072B02D0FD
S11349A0092B04D007E01C4B00221A6709E01A4BBC
S11349B001221A6705E042F23861164801F0BFFA95
S11349C098E197E19DF80330013B072B3BD801A206
S11349D052F823F0F5490000474A0000474A000016
S11349E0314A0000474A0000474A0000FB490000E2
S11349F0414A0000002307932BE0012201210420F7
S1134A0000F000FA0123079323E000BF002D3101D9
S1134A100148E801546F000000400E4080400E4001
S1134A208C400E4088400E4084400E40B0400E4002
S1134A3001220121022000F0E5F90223079308E096
S1134A400323079305E042F29661AC4801F077FA3C
S1134A5050E1AB4BD3F85C3123F03002079B1B01D0
S1134A60A7491343C1F85C3144E19DF80330013B8D
S1134A70072B29D801A252F823F000BF9D4A000059
S1134A80C94A0000C94A0000B34A0000C94A0000EC
S1134A90C94A0000A34A0000C34A00000023079348
S1134AA018E001220121042000F0ACF9012307934E
S1134AB010E001220121022000F0A4F9022307934F
S1134AC008E00323079305E042F2B9618B4801F043
S1134AD036FA0FE18A4BD3F85C3123F44012079B7A
S1134AE01B0587491343C1F85C3103E19DF803308A
S1134AF0043B062B30D801A252F823F0294B0000C6
S1134B00194B0000594B0000394B0000594B000071
S1134B10594B0000494B000001220121032000F001
S1134B2071F9002307931DE001220121022000F006
S1134B3069F90123079315E001220121042000F003
S1134B4061F9022307930DE001220121052000F001
S1134B5059F90323079305E042F2E061674801F045
S1134B60EEF9C7E0664BD3F8603123F003026449E1
S1134B70079B1343C1F86031BCE09DF80330043B4C
S1134B80062B31D801A252F823F000BFB94B000024
S1134B90A94B0000E94B0000C94B0000E94B0000A1
S1134BA0E94B0000D94B000001220121032000F051
S1134BB029F9002307931DE001220121022000F0BE
S1134BC021F90123079315E001220121042000F0BB
S1134BD019F9022307930DE001220121052000F0B9
S1134BE011F90323079305E042F20771434801F0EA
S1134BF0A6F97FE0424BD3F8643123F00302404925
S1134C00079B1343C1F8643174E09DF80330023B01
S1134C10092B58D801A252F823F000BFA74C00007A
S1134C20B74C0000554C0000974C0000C74C0000E6
S1134C30C74C0000C74C0000C74C0000454C0000A6
S1134C40654C000001220121052000F0DBF800235F
S1134C5007933EE001220121022000F0D3F8012352
S1134C60079336E0FDF76EFF0346264A934204D9C4
S1134C7042F22271214801F062F9214B5B6A204A19
S1134C8043F00803536201220121022000F0BAF824
S1134C90022307931DE001220121032000F0B2F852
S1134CA00323079315E001220121002000F0AAF854
S1134CB0042307930DE001220121012000F0A2F852
S1134CC00523079305E042F241710C4801F037F9DE
S1134CD010E00B4BD3F8F03123F007020849079B8F
S1134CE01343C1F8F03105E042F26D71034801F05D
S1134CF026F900BF0BB05DF804FB00BF546F000041
S1134D0000400E4040787D01014B1B6818467047F7
S1134D100C10002000B585B001901120FFF7FAFABD
S1134D200346042B04D142F67321334801F007F9FA
S1134D3001220021022000F065F800230393019B67
S1134D40DB7A022B09D0022B0DDC002B02D0012BC5
S1134D5006D008E0002303930BE00323039308E049
S1134D600123039305E042F68721234801F0E7F885
S1134D7000BF224B5B6A23F003022049039B1343C9
S1134D804B6200230393FDF7DDFE03461C4A934266
S1134D9003D8039B43F008030393184B5B6A23F087
S1134DA008021649039B13434B62019B1B88DB02D9
S1134DB0019A92881A43114BDA62104B1B6B1B0D3C
S1134DC01B05019A5288D2021343019AD2881146D4
S1134DD00A4A0B431363019B1B7A1A03019B5B7AF8
S1134DE01B011343019A927A1A43044B5A6300BF7E
S1134DF005B05DF804FB00BF546F000000400E4096
S1134E0040787D0100B589B003468DF807300B4624
S1134E108DF8063013468DF805309DF80730052BC4
S1134E2048D801A252F823F0894E0000774E0000C2
S1134E30534E0000414E0000654E00009F4E00009E
S1134E40012305930223049301230793002306936C
S1134E5036E00423059308230493032307930223D2
S1134E6006932DE010230593202304930523079331
S1134E700423069324E0402305938023049307230B
S1134E800793062306931BE04FF4807305934FF4B6
S1134E9000730493092307930823069310E04FF447
S1134EA0806305934FF4006304930B2307930A2351
S1134EB0069305E042F6F931464801F040F885E0F2
S1134EC09DF80630002B64D000238DF80F309DF838
S1134ED00730022B1BD1FEF773F90346012B16D1C1
S1134EE03D4BDB6B03F48063002B04D142F6084195
S1134EF0384801F024F801238DF80F30374B5B6AF2
S1134F0003F00303032B02D10220FEF763F9334AB3
S1134F10059B136600BF0699314801F019F8034652
S1134F20002BF8D09DF80530002B4FD000BF079917
S1134F302B4801F00DF80346002BF8D09DF80730FC
S1134F40022B43D19DF80F30002B3FD0234B5B6ADB
S1134F5003F00303032B03D00021022000F054F9D3
S1134F60022000F03FF80290012200210220FFF706
S1134F7049FF0299022000F07DF8184A059B136648
S1134F8000BF0799164800F0E3FF0346002BF8D052
S1134F901CE0124A049B136600BF104BD3F89030F8
S1134FA00121069A01FA02F21340002BF5D19DF873
S1134FB00530002B0AD000BF084BD3F890300121F4
S1134FC0079A01FA02F21340002BF5D109B05DF8FB
S1134FD004FB00BF546F000000300E4000400E4040
S1134FE090400E4000B585B003468DF807309DF81B
S1134FF00730052B2CD801A252F823F045500000AD
S1135000155000005150000021500000395000009C
S11350102D500000154B1B6AC3F3080303931FE0D4
S1135020124B1B6903F07F03039319E00F4B9B683A
S113503003F07F03039313E00C4B9B6903F07F039E
S113504003930DE0094B9B6B03F07F03039307E08D
S11350500023039342F68B41054800F070FF00BF24
S1135060039B184605B05DF804FB00BF00400E40EA
S1135070546F000000B587B0034600918DF80730E7
S113508000238DF817309DF80730052B00F2AC8013
S113509001A252F823F000BF9F510000B15000005C
S11350A0E9510000F1500000655100002B5100004F
S11350B0009BB3F5007F04D342F6B4414F4800F09F
S11350C03EFF009BC3F30803009300BF1A214C4822
S11350D000F03EFF0346002BF8D14A4B1B6A23F431
S11350E0FF7323F001034749009A13430B6281E0E5
S11350F0009B7F2B04D942F6C141404800F01FFFBA
S1135100009B03F07F03009300BF18213C4800F08C
S11351101FFF0346002BF8D13A4B1B6923F07F0293
S11351203849009B13430B6164E0009B7F2B04D937
S113513042F6CF41314800F002FF009B03F07F03A9
S1135140009300BF1E212E4800F002FF0346002BEF
S1135150F8D12C4B9B6823F07F022A49009B134310
S11351608B6047E0009B7F2B04D942F6DC41234847
S113517000F0E5FE009B03F07F03009300BF1921BC
S11351801F4800F0E5FE0346002BF8D11D4B9B6938
S113519023F07F021B49009B13438B612AE0009B91
S11351A07F2B04D942F60751144800F0C8FE4F2360
S11351B00493009B0393039A049B934228BF1346D2
S11351C08DF8173000BF1D210D4800F0C1FE0346C5
S11351D0002BF8D10B4B9B6B23F07F029DF817300B
S11351E0084913438B6305E042F61551034800F068
S11351F0A6FE00BF00BF07B05DF804FB546F0000BB
S113520040410E4000400E4000B585B00346009179
S11352108DF807309DF80730022B04D042F62D514B
S1135220144800F08CFEFDF7CBFF0346012B03D19D
S11352304FF4800303930EE0009B002B03D14FF443
S11352408003039307E00C4B039342F6485109484B
S113525000F075FE00BF00BF084BD3F89020039BFD
S11352601340039A9A42F7D10123184605B05DF81A
S113527004FB00BF546F0000FF3F473A00400E405C
S1135280054B1B6803F04003002B01D1012300E010
S113529000231846704700BF3C300E4008B5FFF7A6
S11352A0EFFF034683F00103DBB2002B08D100BFFC
S11352B01221044800F0FBFE0346002BF8D100E065
S11352C000BF08BD04300E4008B5FFF7E7FF044BEC
S11352D05B681B0C03F00303DBB2184608BD00BF78
S11352E000300E4000B585B001900B468DF80330B8
S11352F0FFF7C6FF034683F00103DBB2002B2AD17C
S1135300019B002B0FD1164BD3F800311B0A03F07D
S11353101F0301330293FDF7A1FB0246029B02FB2C
S113532003F3039301E0019B03930E4B1B78002BC3
S11353300AD0039B0C4A934206D89DF803301946C1
S1135340022000F013F807E09DF80330194600200E
S113535000F00CF800E000BF05B05DF804FB00BFEE
S113536000400E4060100020002D310110B586B0C1
S113537003460A468DF8073013468DF80630FFF7CA
S11353807FFF034683F00103DBB2002B3FD1FFF71D
S11353909BFF03461A469DF80730934239D01E4BB3
S11353A0D3F800311B0A03F01F0301330593FDF703
S11353B055FB0490049B059A02FB03F303939DF8A9
S11353C00730022B0CD1039B144A934204D940F2B8
S11353D0AD71134800F0B3FD0221049800F024FEDF
S11353E0104C9DF80730184600F073FE0346236105
S11353F09DF80630002B01D0FFF750FF9DF80730D1
S1135400002B07D10021049800F00EFE02E000BF3B
S113541000E000BF06B010BD00400E40002D310179
S11354203C70000000300E4000B587B0039002913C
S1135430019200F026FE0590039B002B04D14FF44B
S11354409C710A4800F07BFD039B1A68029BDB43B6
S11354501A400199029B0B401A43039B1A6005985A
S113546000F01BFE00BF07B05DF804FB987000005D
S113547000B583B0034600918DF807309DF80730DE
S1135480002B39D09DF80730012B32D09DF807301E
S1135490022B2BD09DF80730032B24D09DF8073026
S11354A0042B1DD09DF80730052B16D09DF807302E
S11354B0062B0FD09DF80730072B08D09DF8073036
S11354C0082B02D14FF6FF7318E0002316E04FF6C5
S11354D0FF7313E04FF6FF7310E04FF6FF730DE018
S11354E04FF6FF730AE04FF6FF7307E04FF6FF73C2
S11354F004E04FF6FF7301E04FF6FF73009AD340C8
S113550003F00103002B04D140F201410C4800F0E8
S113551016FD9DF8072013465B0013441B010C3352
S113552003F1804303F508230121009A01FA02F2F2
S11355301146184600F0E8FD00BF03B05DF804FB17
S1135540F070000000B583B0034600918DF8073079
S11355509DF80730002B39D09DF80730012B32D04D
S11355609DF80730022B2BD09DF80730032B24D055
S11355709DF80730042B1DD09DF80730052B16D05D
S11355809DF80730062B0FD09DF80730072B08D065
S11355909DF80730082B02D14FF6FF7318E0002363
S11355A016E04FF6FF7313E04FF6FF7310E04FF66B
S11355B0FF730DE04FF6FF730AE04FF6FF7307E049
S11355C04FF6FF7304E04FF6FF7301E04FF6FF73ED
S11355D0009AD34003F00103002B04D14FF48661F9
S11355E00C4800F0ACFC9DF8072013465B00134404
S11355F01B010C3303F1804303F508230121009AB6
S113560001FA02F21146184600F071FD00BF03B022
S11356105DF804FBF070000000B583B00346009110
S11356208DF807309DF80730002B1FD09DF8073008
S1135630012B1BD09DF80730022B17D09DF80730A3
S1135640032B13D09DF80730042B0FD09DF807309F
S1135650052B0BD09DF80730062B07D09DF807309B
S1135660072B03D09DF80730082B04D1009B23F0AF
S11356700113002B03D07D210B4800F060FC9DF842
S1135680072013465B0013441B0103F1804303F519
S11356900823009A4FF001111846FFF7C5FE00BF1A
S11356A003B05DF804FB00BF4871000000B585B08D
S11356B002910192009303468DF80F309DF80F304C
S11356C0002B39D09DF80F30012B32D09DF80F30CC
S11356D0022B2BD09DF80F30032B24D09DF80F30D4
S11356E0042B1DD09DF80F30052B16D09DF80F30DC
S11356F0062B0FD09DF80F30072B08D09DF80F30E4
S1135700082B02D14FF6FF7318E0002316E04FF682
S1135710FF7313E04FF6FF7310E04FF6FF730DE0D5
S11357204FF6FF730AE04FF6FF7307E04FF6FF737F
S113573004E04FF6FF7301E04FF6FF73029AD34083
S113574003F00103002B04D14FF4B071324800F090
S1135750F6FB019B002B0FD0009B002B06D09DF87D
S11357600F3002991846FFF7EDFE05E09DF80F3063
S113577002991846FFF77CFE029B072B19D89DF867
S11357800F2013465B0013441B01043303F18043D1
S113579003F50823029A92000F2101FA02F0029AFB
S11357A09200019901FA02F201461846FFF73CFE05
S11357B01AE09DF80F2013465B0013441B010833C5
S11357C003F1804303F50823029A083A92000F215B
S11357D001FA02F0029A083A9200019901FA02F2DF
S11357E001461846FFF720FE019B002B0FD1009BBA
S11357F0002B06D09DF80F3002991846FFF7A2FE41
S113580005E09DF80F3002991846FFF731FE00BFFE
S113581005B05DF804FB00BF4871000008B5064BF5
S1135820044613B10021AFF30080044B1B6803B19D
S11358309847204600F088FB000000006410002018
S113584070B50D4D0D4C641BA4100026A64209D161
S11358500B4D0C4C00F074FC641BA4100026A642F3
S113586005D170BD55F8043B98470136EEE755F86D
S1135870043B98470136F2E7181000201810002066
S1135880181000201C10002084B001900091019B8E
S113589003F180630393039B009A1A6000BF04B072
S11358A0704782B001900B468DF803309DF80330A9
S11358B063F07F03DBB21A46019B9A6500BF02B016
S11358C0704782B0019000BF019B1B6903F0800305
S11358D0002BF9D0019BDB69DBB2184602B070479C
S11358E082B001900B468DF8033000BF019B1B6909
S11358F003F04003002BF9D09DF80320019B5A6369
S113590000BF019B1B6903F02003002BF9D0019B0E
S1135910DB69DBB2184602B0704782B001900B46D7
S11359208DF8033000BF019B1B6903F04003002B7B
S1135930F9D09DF80320019B5A6300BF02B0704761
S113594084B001900091019B03F1C0630393039B16
S1135950009A1A6000BF04B0704784B001900091AF
S1135960019B03F180630393039B009A1A6000BFB9
S113597004B0704700B583B003468DF807309DF836
S11359800730002B06D0012B09D109210020FBF799
S113599095FA04E009210020FBF7FAFA00BF00BFE2
S11359A003B05DF804FB00B583B003468DF80730FF
S11359B09DF80730002B06D0012B09D108210020C7
S11359C0FBF77CFA04E008210020FBF7E1FA00BFB2
S11359D000BF03B05DF804FB00B583B003468DF847
S11359E007309DF80730002B06D0012B09D1072181
S11359F00020FBF763FA04E007210020FBF7C8FA54
S1135A0000BF00BF03B05DF804FB82B00190019BAE
S1135A105B6A184602B0704782B001900091019B06
S1135A20009A5A6100BF02B0704782B001900091A1
S1135A30019B9A69009B1A43019B9A6100BF02B0C3
S1135A40704784B001900091019B03F1C0630393FC
S1135A50039B009A1A6000BF04B0704784B00190A1
S1135A600091019B03F180630393039B009A1A60E6
S1135A7000BF04B0704784B001900091019B03F112
S1135A80C0630393039B009A1A6000BF04B070477D
S1135A9000B585B00190019B039303990120FBF7A6
S1135AA0EFFB4FF47A70FBF7FFFD03990120FBF73E
S1135AB021FC4FF47A70FBF7F7FD03990120FBF703
S1135AC087FB03990120FBF7AFFB4FF47A70FBF7D8
S1135AD0EBFD00BF05B05DF804FB00B585B0019097
S1135AE0019B039303990020FBF746FB6420FBF71B
S1135AF0DBFD03990120FBF73FFB0A20FBF7D4FDF4
S1135B0003990020FBF722FC9620FBF7CDFD0399B7
S1135B100120FBF71BFC9620FBF7C6FD40F6B830CE
S1135B20FBF7C2FD00BF05B05DF804FB82B0019035
S1135B3000BF02B0704700B583B00190009108E047
S1135B40019B1B7800991846FCF73EFE019B01332C
S1135B500193019B1B78002BF2D100BF00BF03B05F
S1135B605DF804FB00B585B0019000238DF80F307B
S1135B7000BF019B1B6903F08003002BF9D001983F
S1135B80FFF79FFE03468DF80F309DF80F3018463F
S1135B9005B05DF804FB00B583B003468DF807300B
S1135BA09DF8070001230A220021FCF77DFE022054
S1135BB0FBF77AFD9DF8070006231E220021FCF75F
S1135BC073FE9DF8070048231A220021FCF76CFE9F
S1135BD00520FBF769FD9DF807009C231C2200218A
S1135BE0FCF762FE9DF8070000231D220021FCF74C
S1135BF05BFE9DF8070004231B220021FCF754FEE2
S1135C009DF8070003230B220021FCF74DFE9DF8AD
S1135C100700112310220021FCF746FE9DF807001F
S1135C20002309220021FCF73FFE9DF80700002312
S1135C300A220021FCF738FE9DF8070000231322F6
S1135C400021FCF731FE9DF8070000230C220021FF
S1135C50FCF72AFE9DF80700002301220021FCF72F
S1135C6023FE9DF80700002303220021FCF71CFEFD
S1135C709DF80700002305220021FCF715FE9DF87E
S1135C800700002307220021FCF70EFE9DF8070001
S1135C909C231C220121FCF707FE9DF8070000232A
S1135CA01D220121FCF700FE9DF8070004231B229E
S1135CB00121FCF7F9FD9DF8070003230B220121C4
S1135CC0FCF7F2FD9DF80700112310220121FCF7D7
S1135CD0EBFD9DF80700002309220121FCF7E4FDF8
